{"abi":[{"type":"constructor","inputs":[{"name":"_admin","type":"address","internalType":"address"},{"name":"_asset","type":"address","internalType":"contract IERC20"},{"name":"_name","type":"string","internalType":"string"},{"name":"_symbol","type":"string","internalType":"string"},{"name":"_agent","type":"address","internalType":"address"},{"name":"_rewardsToken","type":"address","internalType":"address"}],"stateMutability":"nonpayable"},{"type":"function","name":"ADMIN_ROLE","inputs":[],"outputs":[{"name":"","type":"bytes32","internalType":"bytes32"}],"stateMutability":"view"},{"type":"function","name":"AGENT_ROLE","inputs":[],"outputs":[{"name":"","type":"bytes32","internalType":"bytes32"}],"stateMutability":"view"},{"type":"function","name":"DEFAULT_ADMIN_ROLE","inputs":[],"outputs":[{"name":"","type":"bytes32","internalType":"bytes32"}],"stateMutability":"view"},{"type":"function","name":"addPool","inputs":[{"name":"poolName","type":"string","internalType":"string"},{"name":"poolAddress","type":"address","internalType":"address"}],"outputs":[],"stateMutability":"nonpayable"},{"type":"function","name":"addStrategy","inputs":[{"name":"strategyType","type":"uint8","internalType":"enum RewardVault.StrategyType"},{"name":"strategyAddress","type":"address","internalType":"address"}],"outputs":[],"stateMutability":"nonpayable"},{"type":"function","name":"allocateToStrategy","inputs":[{"name":"strategyType","type":"uint8","internalType":"enum RewardVault.StrategyType"},{"name":"amount","type":"uint256","internalType":"uint256"}],"outputs":[],"stateMutability":"nonpayable"},{"type":"function","name":"allowance","inputs":[{"name":"owner","type":"address","internalType":"address"},{"name":"spender","type":"address","internalType":"address"}],"outputs":[{"name":"","type":"uint256","internalType":"uint256"}],"stateMutability":"view"},{"type":"function","name":"approve","inputs":[{"name":"spender","type":"address","internalType":"address"},{"name":"value","type":"uint256","internalType":"uint256"}],"outputs":[{"name":"","type":"bool","internalType":"bool"}],"stateMutability":"nonpayable"},{"type":"function","name":"asset","inputs":[],"outputs":[{"name":"","type":"address","internalType":"address"}],"stateMutability":"view"},{"type":"function","name":"balanceOf","inputs":[{"name":"account","type":"address","internalType":"address"}],"outputs":[{"name":"","type":"uint256","internalType":"uint256"}],"stateMutability":"view"},{"type":"function","name":"claimRewards","inputs":[],"outputs":[{"name":"","type":"uint256","internalType":"uint256"}],"stateMutability":"nonpayable"},{"type":"function","name":"convertToAssets","inputs":[{"name":"shares","type":"uint256","internalType":"uint256"}],"outputs":[{"name":"","type":"uint256","internalType":"uint256"}],"stateMutability":"view"},{"type":"function","name":"convertToShares","inputs":[{"name":"assets","type":"uint256","internalType":"uint256"}],"outputs":[{"name":"","type":"uint256","internalType":"uint256"}],"stateMutability":"view"},{"type":"function","name":"decimals","inputs":[],"outputs":[{"name":"","type":"uint8","internalType":"uint8"}],"stateMutability":"view"},{"type":"function","name":"deposit","inputs":[{"name":"assets","type":"uint256","internalType":"uint256"},{"name":"receiver","type":"address","internalType":"address"}],"outputs":[{"name":"","type":"uint256","internalType":"uint256"}],"stateMutability":"nonpayable"},{"type":"function","name":"deposit","inputs":[{"name":"amount","type":"uint256","internalType":"uint256"}],"outputs":[],"stateMutability":"nonpayable"},{"type":"function","name":"getAccruedRewards","inputs":[{"name":"user","type":"address","internalType":"address"}],"outputs":[{"name":"","type":"uint256","internalType":"uint256"}],"stateMutability":"view"},{"type":"function","name":"getPoolList","inputs":[],"outputs":[{"name":"","type":"string[]","internalType":"string[]"}],"stateMutability":"view"},{"type":"function","name":"getRoleAdmin","inputs":[{"name":"role","type":"bytes32","internalType":"bytes32"}],"outputs":[{"name":"","type":"bytes32","internalType":"bytes32"}],"stateMutability":"view"},{"type":"function","name":"getStrategyAddress","inputs":[{"name":"strategyType","type":"uint8","internalType":"enum RewardVault.StrategyType"}],"outputs":[{"name":"","type":"address","internalType":"address"}],"stateMutability":"view"},{"type":"function","name":"grantRole","inputs":[{"name":"role","type":"bytes32","internalType":"bytes32"},{"name":"account","type":"address","internalType":"address"}],"outputs":[],"stateMutability":"nonpayable"},{"type":"function","name":"hasRole","inputs":[{"name":"role","type":"bytes32","internalType":"bytes32"},{"name":"account","type":"address","internalType":"address"}],"outputs":[{"name":"","type":"bool","internalType":"bool"}],"stateMutability":"view"},{"type":"function","name":"lendingPools","inputs":[{"name":"","type":"string","internalType":"string"}],"outputs":[{"name":"poolAddress","type":"address","internalType":"address"},{"name":"isActive","type":"bool","internalType":"bool"}],"stateMutability":"view"},{"type":"function","name":"maxDeposit","inputs":[{"name":"","type":"address","internalType":"address"}],"outputs":[{"name":"","type":"uint256","internalType":"uint256"}],"stateMutability":"view"},{"type":"function","name":"maxMint","inputs":[{"name":"","type":"address","internalType":"address"}],"outputs":[{"name":"","type":"uint256","internalType":"uint256"}],"stateMutability":"view"},{"type":"function","name":"maxRedeem","inputs":[{"name":"owner","type":"address","internalType":"address"}],"outputs":[{"name":"","type":"uint256","internalType":"uint256"}],"stateMutability":"view"},{"type":"function","name":"maxWithdraw","inputs":[{"name":"owner","type":"address","internalType":"address"}],"outputs":[{"name":"","type":"uint256","internalType":"uint256"}],"stateMutability":"view"},{"type":"function","name":"mint","inputs":[{"name":"shares","type":"uint256","internalType":"uint256"},{"name":"receiver","type":"address","internalType":"address"}],"outputs":[{"name":"","type":"uint256","internalType":"uint256"}],"stateMutability":"nonpayable"},{"type":"function","name":"name","inputs":[],"outputs":[{"name":"","type":"string","internalType":"string"}],"stateMutability":"view"},{"type":"function","name":"poolList","inputs":[{"name":"","type":"uint256","internalType":"uint256"}],"outputs":[{"name":"","type":"string","internalType":"string"}],"stateMutability":"view"},{"type":"function","name":"previewDeposit","inputs":[{"name":"assets","type":"uint256","internalType":"uint256"}],"outputs":[{"name":"","type":"uint256","internalType":"uint256"}],"stateMutability":"view"},{"type":"function","name":"previewMint","inputs":[{"name":"shares","type":"uint256","internalType":"uint256"}],"outputs":[{"name":"","type":"uint256","internalType":"uint256"}],"stateMutability":"view"},{"type":"function","name":"previewRedeem","inputs":[{"name":"shares","type":"uint256","internalType":"uint256"}],"outputs":[{"name":"","type":"uint256","internalType":"uint256"}],"stateMutability":"view"},{"type":"function","name":"previewWithdraw","inputs":[{"name":"assets","type":"uint256","internalType":"uint256"}],"outputs":[{"name":"","type":"uint256","internalType":"uint256"}],"stateMutability":"view"},{"type":"function","name":"redeem","inputs":[{"name":"shares","type":"uint256","internalType":"uint256"},{"name":"receiver","type":"address","internalType":"address"},{"name":"owner","type":"address","internalType":"address"}],"outputs":[{"name":"","type":"uint256","internalType":"uint256"}],"stateMutability":"nonpayable"},{"type":"function","name":"renounceRole","inputs":[{"name":"role","type":"bytes32","internalType":"bytes32"},{"name":"callerConfirmation","type":"address","internalType":"address"}],"outputs":[],"stateMutability":"nonpayable"},{"type":"function","name":"revokeRole","inputs":[{"name":"role","type":"bytes32","internalType":"bytes32"},{"name":"account","type":"address","internalType":"address"}],"outputs":[],"stateMutability":"nonpayable"},{"type":"function","name":"rewardsDistributor","inputs":[],"outputs":[{"name":"","type":"address","internalType":"contract IRewardsDistributor"}],"stateMutability":"view"},{"type":"function","name":"setAdmin","inputs":[{"name":"_admin","type":"address","internalType":"address"}],"outputs":[],"stateMutability":"nonpayable"},{"type":"function","name":"setAgent","inputs":[{"name":"_agent","type":"address","internalType":"address"}],"outputs":[],"stateMutability":"nonpayable"},{"type":"function","name":"setRewardsDistributor","inputs":[{"name":"_rewardsDistributor","type":"address","internalType":"address"}],"outputs":[],"stateMutability":"nonpayable"},{"type":"function","name":"strategies","inputs":[{"name":"","type":"uint8","internalType":"enum RewardVault.StrategyType"}],"outputs":[{"name":"","type":"address","internalType":"address"}],"stateMutability":"view"},{"type":"function","name":"supportsInterface","inputs":[{"name":"interfaceId","type":"bytes4","internalType":"bytes4"}],"outputs":[{"name":"","type":"bool","internalType":"bool"}],"stateMutability":"view"},{"type":"function","name":"symbol","inputs":[],"outputs":[{"name":"","type":"string","internalType":"string"}],"stateMutability":"view"},{"type":"function","name":"totalAssets","inputs":[],"outputs":[{"name":"","type":"uint256","internalType":"uint256"}],"stateMutability":"view"},{"type":"function","name":"totalSupply","inputs":[],"outputs":[{"name":"","type":"uint256","internalType":"uint256"}],"stateMutability":"view"},{"type":"function","name":"transfer","inputs":[{"name":"to","type":"address","internalType":"address"},{"name":"value","type":"uint256","internalType":"uint256"}],"outputs":[{"name":"","type":"bool","internalType":"bool"}],"stateMutability":"nonpayable"},{"type":"function","name":"transferFrom","inputs":[{"name":"from","type":"address","internalType":"address"},{"name":"to","type":"address","internalType":"address"},{"name":"value","type":"uint256","internalType":"uint256"}],"outputs":[{"name":"","type":"bool","internalType":"bool"}],"stateMutability":"nonpayable"},{"type":"function","name":"withdraw","inputs":[{"name":"shares","type":"uint256","internalType":"uint256"}],"outputs":[],"stateMutability":"nonpayable"},{"type":"function","name":"withdraw","inputs":[{"name":"assets","type":"uint256","internalType":"uint256"},{"name":"receiver","type":"address","internalType":"address"},{"name":"owner","type":"address","internalType":"address"}],"outputs":[{"name":"","type":"uint256","internalType":"uint256"}],"stateMutability":"nonpayable"},{"type":"function","name":"withdrawFromStrategy","inputs":[{"name":"strategyType","type":"uint8","internalType":"enum RewardVault.StrategyType"},{"name":"amount","type":"uint256","internalType":"uint256"}],"outputs":[],"stateMutability":"nonpayable"},{"type":"event","name":"Approval","inputs":[{"name":"owner","type":"address","indexed":true,"internalType":"address"},{"name":"spender","type":"address","indexed":true,"internalType":"address"},{"name":"value","type":"uint256","indexed":false,"internalType":"uint256"}],"anonymous":false},{"type":"event","name":"Deposit","inputs":[{"name":"sender","type":"address","indexed":true,"internalType":"address"},{"name":"owner","type":"address","indexed":true,"internalType":"address"},{"name":"assets","type":"uint256","indexed":false,"internalType":"uint256"},{"name":"shares","type":"uint256","indexed":false,"internalType":"uint256"}],"anonymous":false},{"type":"event","name":"FundsAllocated","inputs":[{"name":"strategyType","type":"uint8","indexed":true,"internalType":"enum RewardVault.StrategyType"},{"name":"amount","type":"uint256","indexed":false,"internalType":"uint256"}],"anonymous":false},{"type":"event","name":"FundsWithdrawn","inputs":[{"name":"strategyType","type":"uint8","indexed":true,"internalType":"enum RewardVault.StrategyType"},{"name":"amount","type":"uint256","indexed":false,"internalType":"uint256"}],"anonymous":false},{"type":"event","name":"PoolAdded","inputs":[{"name":"poolName","type":"string","indexed":true,"internalType":"string"},{"name":"poolAddress","type":"address","indexed":false,"internalType":"address"}],"anonymous":false},{"type":"event","name":"PoolDeposit","inputs":[{"name":"poolName","type":"string","indexed":true,"internalType":"string"},{"name":"asset","type":"address","indexed":true,"internalType":"address"},{"name":"amount","type":"uint256","indexed":false,"internalType":"uint256"}],"anonymous":false},{"type":"event","name":"PoolWithdraw","inputs":[{"name":"poolName","type":"string","indexed":true,"internalType":"string"},{"name":"asset","type":"address","indexed":true,"internalType":"address"},{"name":"amount","type":"uint256","indexed":false,"internalType":"uint256"}],"anonymous":false},{"type":"event","name":"RewardsClaimed","inputs":[{"name":"user","type":"address","indexed":true,"internalType":"address"},{"name":"amount","type":"uint256","indexed":false,"internalType":"uint256"}],"anonymous":false},{"type":"event","name":"RewardsDistributorSet","inputs":[{"name":"rewardsDistributor","type":"address","indexed":false,"internalType":"address"}],"anonymous":false},{"type":"event","name":"RoleAdminChanged","inputs":[{"name":"role","type":"bytes32","indexed":true,"internalType":"bytes32"},{"name":"previousAdminRole","type":"bytes32","indexed":true,"internalType":"bytes32"},{"name":"newAdminRole","type":"bytes32","indexed":true,"internalType":"bytes32"}],"anonymous":false},{"type":"event","name":"RoleGranted","inputs":[{"name":"role","type":"bytes32","indexed":true,"internalType":"bytes32"},{"name":"account","type":"address","indexed":true,"internalType":"address"},{"name":"sender","type":"address","indexed":true,"internalType":"address"}],"anonymous":false},{"type":"event","name":"RoleRevoked","inputs":[{"name":"role","type":"bytes32","indexed":true,"internalType":"bytes32"},{"name":"account","type":"address","indexed":true,"internalType":"address"},{"name":"sender","type":"address","indexed":true,"internalType":"address"}],"anonymous":false},{"type":"event","name":"StrategyDeployed","inputs":[{"name":"strategyType","type":"uint8","indexed":true,"internalType":"enum RewardVault.StrategyType"},{"name":"strategyAddress","type":"address","indexed":false,"internalType":"address"}],"anonymous":false},{"type":"event","name":"Transfer","inputs":[{"name":"from","type":"address","indexed":true,"internalType":"address"},{"name":"to","type":"address","indexed":true,"internalType":"address"},{"name":"value","type":"uint256","indexed":false,"internalType":"uint256"}],"anonymous":false},{"type":"event","name":"Withdraw","inputs":[{"name":"sender","type":"address","indexed":true,"internalType":"address"},{"name":"receiver","type":"address","indexed":true,"internalType":"address"},{"name":"owner","type":"address","indexed":true,"internalType":"address"},{"name":"assets","type":"uint256","indexed":false,"internalType":"uint256"},{"name":"shares","type":"uint256","indexed":false,"internalType":"uint256"}],"anonymous":false},{"type":"error","name":"AccessControlBadConfirmation","inputs":[]},{"type":"error","name":"AccessControlUnauthorizedAccount","inputs":[{"name":"account","type":"address","internalType":"address"},{"name":"neededRole","type":"bytes32","internalType":"bytes32"}]},{"type":"error","name":"ERC20InsufficientAllowance","inputs":[{"name":"spender","type":"address","internalType":"address"},{"name":"allowance","type":"uint256","internalType":"uint256"},{"name":"needed","type":"uint256","internalType":"uint256"}]},{"type":"error","name":"ERC20InsufficientBalance","inputs":[{"name":"sender","type":"address","internalType":"address"},{"name":"balance","type":"uint256","internalType":"uint256"},{"name":"needed","type":"uint256","internalType":"uint256"}]},{"type":"error","name":"ERC20InvalidApprover","inputs":[{"name":"approver","type":"address","internalType":"address"}]},{"type":"error","name":"ERC20InvalidReceiver","inputs":[{"name":"receiver","type":"address","internalType":"address"}]},{"type":"error","name":"ERC20InvalidSender","inputs":[{"name":"sender","type":"address","internalType":"address"}]},{"type":"error","name":"ERC20InvalidSpender","inputs":[{"name":"spender","type":"address","internalType":"address"}]},{"type":"error","name":"ERC4626ExceededMaxDeposit","inputs":[{"name":"receiver","type":"address","internalType":"address"},{"name":"assets","type":"uint256","internalType":"uint256"},{"name":"max","type":"uint256","internalType":"uint256"}]},{"type":"error","name":"ERC4626ExceededMaxMint","inputs":[{"name":"receiver","type":"address","internalType":"address"},{"name":"shares","type":"uint256","internalType":"uint256"},{"name":"max","type":"uint256","internalType":"uint256"}]},{"type":"error","name":"ERC4626ExceededMaxRedeem","inputs":[{"name":"owner","type":"address","internalType":"address"},{"name":"shares","type":"uint256","internalType":"uint256"},{"name":"max","type":"uint256","internalType":"uint256"}]},{"type":"error","name":"ERC4626ExceededMaxWithdraw","inputs":[{"name":"owner","type":"address","internalType":"address"},{"name":"assets","type":"uint256","internalType":"uint256"},{"name":"max","type":"uint256","internalType":"uint256"}]},{"type":"error","name":"ReentrancyGuardReentrantCall","inputs":[]},{"type":"error","name":"SafeERC20FailedOperation","inputs":[{"name":"token","type":"address","internalType":"address"}]}],"bytecode":{"object":"0x60c060405234801561000f575f5ffd5b50604051614b85380380614b8583398101604081905261002e9161053e565b848484600361003d8382610673565b50600461004a8282610673565b5050505f5f61005e836102fa60201b60201c565b915091508161006e576012610070565b805b60ff1660a05250506001600160a01b03908116608052600160065586166100f05760405162461bcd60e51b815260206004820152602960248201527f5265776172645661756c743a2061646d696e2063616e6e6f74206265207a65726044820152686f206164647265737360b81b60648201526084015b60405180910390fd5b6001600160a01b0382166101585760405162461bcd60e51b815260206004820152602960248201527f5265776172645661756c743a206167656e742063616e6e6f74206265207a65726044820152686f206164647265737360b81b60648201526084016100e7565b600780546001600160a01b038089166001600160a01b03199283161790925560088054888416908316179055600980549285169290911691909117905561019f5f876103d0565b506101ca7fa49807205ce4d355092ef5a8a18f56e8913cf4a201fbe287825b095693c21775876103d0565b506101f57fcab5a0bfe0b79d2c4b1c2e02599fa044d115b7511f9659307cb4276950967709836103d0565b506001600160a01b038116156102ef575f81876040516102149061047d565b6001600160a01b03928316815291166020820152604001604051809103905ff080158015610244573d5f5f3e3d5ffd5b50601180546001600160a01b0319166001600160a01b038316908117909155604051636817031b60e01b815230600482015291925090636817031b906024015f604051808303815f87803b15801561029a575f5ffd5b505af11580156102ac573d5f5f3e3d5ffd5b50506040516001600160a01b03841681527f950a88e6770f863d57a76f0536e93cc7c318c1188c4c189aa9d7a98a6e62f8649250602001905060405180910390a1505b50505050505061075a565b60408051600481526024810182526020810180516001600160e01b031663313ce56760e01b17905290515f918291829182916001600160a01b038716916103409161072d565b5f60405180830381855afa9150503d805f8114610378576040519150601f19603f3d011682016040523d82523d5f602084013e61037d565b606091505b509150915081801561039157506020815110155b156103c4575f818060200190518101906103ab9190610743565b905060ff81116103c2576001969095509350505050565b505b505f9485945092505050565b5f8281526005602090815260408083206001600160a01b038516845290915281205460ff16610474575f8381526005602090815260408083206001600160a01b03861684529091529020805460ff1916600117905561042c3390565b6001600160a01b0316826001600160a01b0316847f2f8788117e7eff1d82e926ec794901d17c78024a50270940304540a733656f0d60405160405180910390a4506001610477565b505f5b92915050565b61161e8061356783390190565b6001600160a01b038116811461049e575f5ffd5b50565b634e487b7160e01b5f52604160045260245ffd5b5f82601f8301126104c4575f5ffd5b81516001600160401b038111156104dd576104dd6104a1565b604051601f8201601f19908116603f011681016001600160401b038111828210171561050b5761050b6104a1565b604052818152838201602001851015610522575f5ffd5b8160208501602083015e5f918101602001919091529392505050565b5f5f5f5f5f5f60c08789031215610553575f5ffd5b865161055e8161048a565b602088015190965061056f8161048a565b60408801519095506001600160401b0381111561058a575f5ffd5b61059689828a016104b5565b606089015190955090506001600160401b038111156105b3575f5ffd5b6105bf89828a016104b5565b93505060808701516105d08161048a565b60a08801519092506105e18161048a565b809150509295509295509295565b600181811c9082168061060357607f821691505b60208210810361062157634e487b7160e01b5f52602260045260245ffd5b50919050565b601f82111561066e57805f5260205f20601f840160051c8101602085101561064c5750805b601f840160051c820191505b8181101561066b575f8155600101610658565b50505b505050565b81516001600160401b0381111561068c5761068c6104a1565b6106a08161069a84546105ef565b84610627565b6020601f8211600181146106d2575f83156106bb5750848201515b5f19600385901b1c1916600184901b17845561066b565b5f84815260208120601f198516915b8281101561070157878501518255602094850194600190920191016106e1565b508482101561071e57868401515f19600387901b60f8161c191681555b50505050600190811b01905550565b5f82518060208501845e5f920191825250919050565b5f60208284031215610753575f5ffd5b5051919050565b60805160a051612dbb6107ac5f395f610bfb01525f818161045e0152818161073401528181611132015281816117470152818161186c015281816118e10152818161226201526123140152612dbb5ff3fe608060405234801561000f575f5ffd5b50600436106102e5575f3560e01c8063704b6c0211610195578063ba087652116100e4578063d41dcbea1161009e578063d80dbdf511610079578063d80dbdf5146106d2578063d905777e146106e5578063dd62ed3e146106f8578063ef8b30f71461065e575f5ffd5b8063d41dcbea14610697578063d520e525146106ac578063d547741f146106bf575f5ffd5b8063ba08765214610638578063bcf685ed1461064b578063c63d75b6146104bc578063c6e6f5921461065e578063ce96cb7714610671578063d1f5c33b14610684575f5ffd5b80639bc969bc1161014f578063ad083dad1161012a578063ad083dad146105ec578063b3d7f6b9146105ff578063b460af9414610612578063b6b55f2514610625575f5ffd5b80639bc969bc14610573578063a217fddf146105d2578063a9059cbb146105d9575f5ffd5b8063704b6c021461050b57806370a082311461051e57806375b238fc1461053157806391d148541461054557806394bf804d1461055857806395d89b411461056b575f5ffd5b80632a48235b1161025157806338d52e0f1161020b578063402d267d116101e6578063402d267d146104bc5780634cdad5061461033c578063667316e9146104d05780636e553f65146104f8575f5ffd5b806338d52e0f1461045c57806338e5dcb0146104965780633f2a5540146104a9575f5ffd5b80632a48235b146103ee5780632e1a7d4d146104015780632f2ff15d14610414578063313ce5671461042757806336568abe14610441578063372500ab14610454575f5ffd5b80630af2a53a116102a25780630af2a53a1461037557806318160ddd1461038a57806322459e181461039257806323b872dd146103a6578063248a9ca3146103b95780632552aa1f146103db575f5ffd5b806301e1d114146102e957806301ffc9a71461030457806306fdde031461032757806307a2d13a1461033c578063095ea7b31461034f5780630a28a47714610362575b5f5ffd5b6102f1610730565b6040519081526020015b60405180910390f35b61031761031236600461261b565b6107d2565b60405190151581526020016102fb565b61032f610808565b6040516102fb9190612670565b6102f161034a366004612682565b610898565b61031761035d3660046126b4565b6108a3565b6102f1610370366004612682565b6108ba565b6103886103833660046126ea565b6108c6565b005b6002546102f1565b6102f15f516020612d465f395f51905f5281565b6103176103b436600461271b565b610a6b565b6102f16103c7366004612682565b5f9081526005602052604090206001015490565b6102f16103e9366004612755565b610a90565b61032f6103fc366004612682565b610b15565b61038861040f366004612682565b610bbb565b61038861042236600461276e565b610bca565b61042f610bf4565b60405160ff90911681526020016102fb565b61038861044f36600461276e565b610c24565b6102f1610c5c565b7f00000000000000000000000000000000000000000000000000000000000000005b6040516001600160a01b0390911681526020016102fb565b61047e6104a436600461278f565b610d7b565b60115461047e906001600160a01b031681565b6102f16104ca366004612755565b505f1990565b61047e6104de36600461278f565b600e6020525f90815260409020546001600160a01b031681565b6102f161050636600461276e565b610dc1565b610388610519366004612755565b610e89565b6102f161052c366004612755565b610f14565b6102f15f516020612d665f395f51905f5281565b61031761055336600461276e565b610f2e565b6102f161056636600461276e565b610f58565b61032f610f94565b6105b36105813660046127bc565b8051602081830181018051600f825292820191909301209152546001600160a01b03811690600160a01b900460ff1682565b604080516001600160a01b0390931683529015156020830152016102fb565b6102f15f81565b6103176105e73660046126b4565b610fa3565b6103886105fa36600461286f565b610fb0565b6102f161060d366004612682565b61122a565b6102f1610620366004612889565b611236565b610388610633366004612682565b611300565b6102f1610646366004612889565b61130a565b610388610659366004612755565b611348565b6102f161066c366004612682565b6113d3565b6102f161067f366004612755565b6113de565b610388610692366004612755565b6113f1565b61069f61149e565b6040516102fb91906128c2565b6103886106ba366004612925565b611572565b6103886106cd36600461276e565b6115e5565b6103886106e036600461286f565b611609565b6102f16106f3366004612755565b6119cb565b6102f1610706366004612998565b6001600160a01b039182165f90815260016020908152604080832093909416825291909152205490565b5f807f00000000000000000000000000000000000000000000000000000000000000006040516370a0823160e01b81523060048201526001600160a01b0391909116906370a0823190602401602060405180830381865afa158015610797573d5f5f3e3d5ffd5b505050506040513d601f19601f820116820180604052508101906107bb91906129b2565b600a549091506107cb81836129dd565b9250505090565b5f6001600160e01b03198216637965db0b60e01b148061080257506301ffc9a760e01b6001600160e01b03198316145b92915050565b606060038054610817906129f0565b80601f0160208091040260200160405190810160405280929190818152602001828054610843906129f0565b801561088e5780601f106108655761010080835404028352916020019161088e565b820191905f5260205f20905b81548152906001019060200180831161087157829003601f168201915b5050505050905090565b5f610802825f6119d5565b5f336108b0818585611a0d565b5060019392505050565b5f610802826001611a1a565b6108dd5f516020612d665f395f51905f5233610f2e565b6109025760405162461bcd60e51b81526004016108f990612a28565b60405180910390fd5b6001600160a01b0381166109285760405162461bcd60e51b81526004016108f990612a5f565b5f600e8184600281111561093e5761093e612a96565b600281111561094f5761094f612a96565b815260208101919091526040015f20546001600160a01b0316146109c15760405162461bcd60e51b8152602060048201526024808201527f5265776172645661756c743a20737472617465677920616c72656164792065786044820152636973747360e01b60648201526084016108f9565b80600e5f8460028111156109d7576109d7612a96565b60028111156109e8576109e8612a96565b81526020019081526020015f205f6101000a8154816001600160a01b0302191690836001600160a01b03160217905550816002811115610a2a57610a2a612a96565b6040516001600160a01b03831681527fbe44a193195f5fb40126b2dc79f05f6867a0e1ec5c13407aff393ec4c5206eec906020015b60405180910390a25050565b5f33610a78858285611a49565b610a83858585611aac565b60019150505b9392505050565b6011545f906001600160a01b0316610aa957505f919050565b601154604051632552aa1f60e01b81526001600160a01b03848116600483015290911690632552aa1f90602401602060405180830381865afa158015610af1573d5f5f3e3d5ffd5b505050506040513d601f19601f8201168201806040525081019061080291906129b2565b60108181548110610b24575f80fd5b905f5260205f20015f915090508054610b3c906129f0565b80601f0160208091040260200160405190810160405280929190818152602001828054610b68906129f0565b8015610bb35780601f10610b8a57610100808354040283529160200191610bb3565b820191905f5260205f20905b815481529060010190602001808311610b9657829003601f168201915b505050505081565b610bc681333361130a565b5050565b5f82815260056020526040902060010154610be481611b09565b610bee8383611b16565b50505050565b5f610c1f817f0000000000000000000000000000000000000000000000000000000000000000612aaa565b905090565b6001600160a01b0381163314610c4d5760405163334bd91960e11b815260040160405180910390fd5b610c578282611ba7565b505050565b5f610c65611c12565b6011546001600160a01b0316610cc95760405162461bcd60e51b815260206004820152602360248201527f5265776172645661756c743a206e6f20726577617264732064697374726962756044820152623a37b960e91b60648201526084016108f9565b601154604051630ef4ecdb60e11b81523360048201525f916001600160a01b031690631de9d9b6906024016020604051808303815f875af1158015610d10573d5f5f3e3d5ffd5b505050506040513d601f19601f82011682018060405250810190610d3491906129b2565b60405181815290915033907ffc30cddea38e2bf4d6ea7d3f9ed3b6ad7f176419f4963bd81318067a4aee73fe9060200160405180910390a29050610d786001600655565b90565b5f600e5f836002811115610d9157610d91612a96565b6002811115610da257610da2612a96565b815260208101919091526040015f20546001600160a01b031692915050565b5f610dca611c12565b60115482906001600160a01b031615610e71575f610de782610f14565b9050610df38585611c3c565b92505f610dff83610f14565b9050808214610e6a5760115460405163acda95d760e01b81526001600160a01b039091169063acda95d790610e3c90869086908690600401612ac3565b5f604051808303815f87803b158015610e53575f5ffd5b505af1158015610e65573d5f5f3e3d5ffd5b505050505b5050610e7e565b610e7b8484611c3c565b91505b506108026001600655565b610ea05f516020612d665f395f51905f5233610f2e565b610ebc5760405162461bcd60e51b81526004016108f990612a28565b6001600160a01b038116610ee25760405162461bcd60e51b81526004016108f990612a5f565b600780546001600160a01b0319166001600160a01b038316179055610bc65f516020612d665f395f51905f5282611b16565b6001600160a01b03165f9081526020819052604090205490565b5f9182526005602090815260408084206001600160a01b0393909316845291905290205460ff1690565b5f610f61611c12565b60115482906001600160a01b031615610f8a575f610f7e82610f14565b9050610df38585611c5f565b610e7b8484611c5f565b606060048054610817906129f0565b5f336108b0818585611aac565b610fc75f516020612d465f395f51905f5233610f2e565b61100d5760405162461bcd60e51b81526020600482015260176024820152765265776172645661756c743a206167656e74206f6e6c7960481b60448201526064016108f9565b611015611c12565b5f811161105f5760405162461bcd60e51b815260206004820152601860248201527714995dd85c9915985d5b1d0e881e995c9bc8185b5bdd5b9d60421b60448201526064016108f9565b5f600e8184600281111561107557611075612a96565b600281111561108657611086612a96565b815260208101919091526040015f20546001600160a01b0316036110ec5760405162461bcd60e51b815260206004820152601f60248201527f5265776172645661756c743a207374726174656779206e6f7420666f756e640060448201526064016108f9565b600e5f83600281111561110157611101612a96565b600281111561111257611112612a96565b815260208101919091526040015f20546001600160a01b031663f3fef3a37f00000000000000000000000000000000000000000000000000000000000000006040516001600160e01b031960e084901b1681526001600160a01b039091166004820152602481018490526044016020604051808303815f875af115801561119b573d5f5f3e3d5ffd5b505050506040513d601f19601f820116820180604052508101906111bf91906129b2565b508060076003015f8282546111d49190612ae4565b9091555082905060028111156111ec576111ec612a96565b6040518281527fc59416657ef96db8816b572d224c0073e3a7a903e51e841b77390368a3232574906020015b60405180910390a2610bc66001600655565b5f6108028260016119d5565b5f61123f611c12565b60115482906001600160a01b0316156112e7575f61125c82610f14565b9050611269868686611c7a565b92505f61127583610f14565b90508082146112e05760115460405163acda95d760e01b81526001600160a01b039091169063acda95d7906112b290869086908690600401612ac3565b5f604051808303815f87803b1580156112c9575f5ffd5b505af11580156112db573d5f5f3e3d5ffd5b505050505b50506112f5565b6112f2858585611c7a565b91505b50610a896001600655565b610bc68133610dc1565b5f611313611c12565b60115482906001600160a01b03161561133d575f61133082610f14565b9050611269868686611cd0565b6112f2858585611cd0565b61135f5f516020612d665f395f51905f5233610f2e565b61137b5760405162461bcd60e51b81526004016108f990612a28565b6001600160a01b0381166113a15760405162461bcd60e51b81526004016108f990612a5f565b600980546001600160a01b0319166001600160a01b038316179055610bc65f516020612d465f395f51905f5282611b16565b5f610802825f611a1a565b5f6108026113eb83610f14565b5f6119d5565b6114085f516020612d665f395f51905f5233610f2e565b6114245760405162461bcd60e51b81526004016108f990612a28565b6001600160a01b03811661144a5760405162461bcd60e51b81526004016108f990612a5f565b601180546001600160a01b0319166001600160a01b0383169081179091556040519081527f950a88e6770f863d57a76f0536e93cc7c318c1188c4c189aa9d7a98a6e62f8649060200160405180910390a150565b60606010805480602002602001604051908101604052809291908181526020015f905b82821015611569578382905f5260205f200180546114de906129f0565b80601f016020809104026020016040519081016040528092919081815260200182805461150a906129f0565b80156115555780601f1061152c57610100808354040283529160200191611555565b820191905f5260205f20905b81548152906001019060200180831161153857829003601f168201915b5050505050815260200190600101906114c1565b50505050905090565b6115895f516020612d665f395f51905f5233610f2e565b6115a55760405162461bcd60e51b81526004016108f990612a28565b610c5783838080601f0160208091040260200160405190810160405280939291908181526020018383808284375f92019190915250859250611d1d915050565b5f828152600560205260409020600101546115ff81611b09565b610bee8383611ba7565b6116205f516020612d465f395f51905f5233610f2e565b6116665760405162461bcd60e51b81526020600482015260176024820152765265776172645661756c743a206167656e74206f6e6c7960481b60448201526064016108f9565b61166e611c12565b5f81116116b85760405162461bcd60e51b815260206004820152601860248201527714995dd85c9915985d5b1d0e881e995c9bc8185b5bdd5b9d60421b60448201526064016108f9565b5f600e818460028111156116ce576116ce612a96565b60028111156116df576116df612a96565b815260208101919091526040015f20546001600160a01b0316036117455760405162461bcd60e51b815260206004820152601f60248201527f5265776172645661756c743a207374726174656779206e6f7420666f756e640060448201526064016108f9565b7f00000000000000000000000000000000000000000000000000000000000000006040516370a0823160e01b81523060048201526001600160a01b0391909116906370a0823190602401602060405180830381865afa1580156117aa573d5f5f3e3d5ffd5b505050506040513d601f19601f820116820180604052508101906117ce91906129b2565b8111156118275760405162461bcd60e51b815260206004820152602160248201527f5265776172645661756c743a20696e73756666696369656e742062616c616e636044820152606560f81b60648201526084016108f9565b61189b600e5f84600281111561183f5761183f612a96565b600281111561185057611850612a96565b815260208101919091526040015f20546001600160a01b0316827f00000000000000000000000000000000000000000000000000000000000000006001600160a01b03169190611f40565b600e5f8360028111156118b0576118b0612a96565b60028111156118c1576118c1612a96565b815260208101919091526040015f20546001600160a01b03166347e7ef247f00000000000000000000000000000000000000000000000000000000000000006040516001600160e01b031960e084901b1681526001600160a01b039091166004820152602481018490526044016020604051808303815f875af115801561194a573d5f5f3e3d5ffd5b505050506040513d601f19601f8201168201806040525081019061196e91906129b2565b508060076003015f82825461198391906129dd565b90915550829050600281111561199b5761199b612a96565b6040518281527f019996a5e299d9c8c5b01f0a4aea5620518062b6b6af65d9b65452895f0cf21590602001611218565b5f61080282610f14565b5f610a896119e1610730565b6119ec9060016129dd565b6119f75f600a612bda565b600254611a0491906129dd565b85919085611ffd565b610c57838383600161203f565b5f610a89611a2982600a612bda565b600254611a3691906129dd565b611a3e610730565b611a049060016129dd565b6001600160a01b038381165f908152600160209081526040808320938616835292905220545f19811015610bee5781811015611a9e57828183604051637dc7a0d960e11b81526004016108f993929190612ac3565b610bee84848484035f61203f565b6001600160a01b038316611ad557604051634b637e8f60e11b81525f60048201526024016108f9565b6001600160a01b038216611afe5760405163ec442f0560e01b81525f60048201526024016108f9565b610c57838383612111565b611b138133612224565b50565b5f611b218383610f2e565b611ba0575f8381526005602090815260408083206001600160a01b03861684529091529020805460ff19166001179055611b583390565b6001600160a01b0316826001600160a01b0316847f2f8788117e7eff1d82e926ec794901d17c78024a50270940304540a733656f0d60405160405180910390a4506001610802565b505f610802565b5f611bb28383610f2e565b15611ba0575f8381526005602090815260408083206001600160a01b0386168085529252808320805460ff1916905551339286917ff6391f5c32d9c69d2a47ea670b442974b53935d1edc7fd64eb21e047a839171b9190a4506001610802565b600260065403611c3557604051633ee5aeb560e01b815260040160405180910390fd5b6002600655565b5f5f195f611c49856113d3565b9050611c573385878461225d565b949350505050565b5f5f195f611c6c8561122a565b9050611c573385838861225d565b5f5f611c85836113de565b905080851115611cae57828582604051633fa733bb60e21b81526004016108f993929190612ac3565b5f611cb8866108ba565b9050611cc733868689856122e1565b95945050505050565b5f5f611cdb836119cb565b905080851115611d0457828582604051632e52afbb60e21b81526004016108f993929190612ac3565b5f611d0e86610898565b9050611cc7338686848a6122e1565b6001600160a01b038116611d735760405162461bcd60e51b815260206004820152601e60248201527f5265776172645661756c743a207a65726f20706f6f6c2061646472657373000060448201526064016108f9565b600f82604051611d839190612be8565b9081526040519081900360200190205460ff600160a01b9091041615611deb5760405162461bcd60e51b815260206004820181905260248201527f5265776172645661756c743a20706f6f6c20616c72656164792065786973747360448201526064016108f9565b5f825111611e3b5760405162461bcd60e51b815260206004820152601c60248201527f5265776172645661756c743a20656d70747920706f6f6c206e616d650000000060448201526064016108f9565b80600f83604051611e4c9190612be8565b90815260405190819003602001812080546001600160a01b03939093166001600160a01b031990931692909217909155600190600f90611e8d908590612be8565b9081526040519081900360200190208054911515600160a01b0260ff60a01b19909216919091179055601080546001810182555f919091527f1b6847dc741a1b0cd08d278845f9d819d87b734759afb55fe2de5cb82a9ae67201611ef18382612c49565b5081604051611f009190612be8565b6040519081900381206001600160a01b0383168252907f9fc832451def12b9be6bbcb29abfd2ac19235d11bda120811e38a70e922fb4e590602001610a5f565b604080516001600160a01b038416602482015260448082018490528251808303909101815260649091019091526020810180516001600160e01b031663095ea7b360e01b179052611f9184826123a1565b610bee576040516001600160a01b0384811660248301525f6044830152611ff391869182169063095ea7b3906064015b604051602081830303815290604052915060e01b6020820180516001600160e01b0383818316178352505050506123ea565b610bee84826123ea565b5f61202a61200a83612456565b801561202557505f848061202057612020612d04565b868809115b151590565b612035868686612482565b611cc791906129dd565b6001600160a01b0384166120685760405163e602df0560e01b81525f60048201526024016108f9565b6001600160a01b03831661209157604051634a1406b160e11b81525f60048201526024016108f9565b6001600160a01b038085165f9081526001602090815260408083209387168352929052208290558015610bee57826001600160a01b0316846001600160a01b03167f8c5be1e5ebec7d5bd14f71427d1e84f3dd0314c0f7b2291e5b200ac8c7c3b9258460405161210391815260200190565b60405180910390a350505050565b6001600160a01b03831661213b578060025f82825461213091906129dd565b909155506121989050565b6001600160a01b0383165f908152602081905260409020548181101561217a5783818360405163391434e360e21b81526004016108f993929190612ac3565b6001600160a01b0384165f9081526020819052604090209082900390555b6001600160a01b0382166121b4576002805482900390556121d2565b6001600160a01b0382165f9081526020819052604090208054820190555b816001600160a01b0316836001600160a01b03167fddf252ad1be2c89b69c2b068fc378daa952ba7f163c4a11628f55a4df523b3ef8360405161221791815260200190565b60405180910390a3505050565b61222e8282610f2e565b610bc65760405163e2517d3f60e01b81526001600160a01b0382166004820152602481018390526044016108f9565b6122897f0000000000000000000000000000000000000000000000000000000000000000853085612538565b6122938382612571565b826001600160a01b0316846001600160a01b03167fdcbc1c05240f31ff3ad067ef1ee35ce4997762752e3a095284754544f4c709d78484604051612103929190918252602082015260400190565b826001600160a01b0316856001600160a01b03161461230557612305838683611a49565b61230f83826125a5565b61233a7f000000000000000000000000000000000000000000000000000000000000000085846125d9565b826001600160a01b0316846001600160a01b0316866001600160a01b03167ffbde797d201c681b91056529119e0b02407c7bb96a4a2c75c01fc9667232c8db8585604051612392929190918252602082015260400190565b60405180910390a45050505050565b5f5f5f5f60205f8651602088015f8a5af192503d91505f5190508280156123e0575081156123d257806001146123e0565b5f866001600160a01b03163b115b9695505050505050565b5f5f60205f8451602086015f885af180612409576040513d5f823e3d81fd5b50505f513d9150811561242057806001141561242d565b6001600160a01b0384163b155b15610bee57604051635274afe760e01b81526001600160a01b03851660048201526024016108f9565b5f600282600381111561246b5761246b612a96565b6124759190612d18565b60ff166001149050919050565b5f838302815f1985870982811083820303915050805f036124b6578382816124ac576124ac612d04565b0492505050610a89565b8084116124cd576124cd600385150260111861260a565b5f848688095f868103871696879004966002600389028118808a02820302808a02820302808a02820302808a02820302808a02820302808a02909103029181900381900460010186841190950394909402919094039290920491909117919091029150509392505050565b6040516001600160a01b038481166024830152838116604483015260648201839052610bee9186918216906323b872dd90608401611fc1565b6001600160a01b03821661259a5760405163ec442f0560e01b81525f60048201526024016108f9565b610bc65f8383612111565b6001600160a01b0382166125ce57604051634b637e8f60e11b81525f60048201526024016108f9565b610bc6825f83612111565b6040516001600160a01b03838116602483015260448201839052610c5791859182169063a9059cbb90606401611fc1565b634e487b715f52806020526024601cfd5b5f6020828403121561262b575f5ffd5b81356001600160e01b031981168114610a89575f5ffd5b5f81518084528060208401602086015e5f602082860101526020601f19601f83011685010191505092915050565b602081525f610a896020830184612642565b5f60208284031215612692575f5ffd5b5035919050565b80356001600160a01b03811681146126af575f5ffd5b919050565b5f5f604083850312156126c5575f5ffd5b6126ce83612699565b946020939093013593505050565b8035600381106126af575f5ffd5b5f5f604083850312156126fb575f5ffd5b612704836126dc565b915061271260208401612699565b90509250929050565b5f5f5f6060848603121561272d575f5ffd5b61273684612699565b925061274460208501612699565b929592945050506040919091013590565b5f60208284031215612765575f5ffd5b610a8982612699565b5f5f6040838503121561277f575f5ffd5b8235915061271260208401612699565b5f6020828403121561279f575f5ffd5b610a89826126dc565b634e487b7160e01b5f52604160045260245ffd5b5f602082840312156127cc575f5ffd5b813567ffffffffffffffff8111156127e2575f5ffd5b8201601f810184136127f2575f5ffd5b803567ffffffffffffffff81111561280c5761280c6127a8565b604051601f8201601f19908116603f0116810167ffffffffffffffff8111828210171561283b5761283b6127a8565b604052818152828201602001861015612852575f5ffd5b816020840160208301375f91810160200191909152949350505050565b5f5f60408385031215612880575f5ffd5b6126ce836126dc565b5f5f5f6060848603121561289b575f5ffd5b833592506128ab60208501612699565b91506128b960408501612699565b90509250925092565b5f602082016020835280845180835260408501915060408160051b8601019250602086015f5b8281101561291957603f19878603018452612904858351612642565b945060209384019391909101906001016128e8565b50929695505050505050565b5f5f5f60408486031215612937575f5ffd5b833567ffffffffffffffff81111561294d575f5ffd5b8401601f8101861361295d575f5ffd5b803567ffffffffffffffff811115612973575f5ffd5b866020828401011115612984575f5ffd5b6020918201945092506128b9908501612699565b5f5f604083850312156129a9575f5ffd5b61270483612699565b5f602082840312156129c2575f5ffd5b5051919050565b634e487b7160e01b5f52601160045260245ffd5b80820180821115610802576108026129c9565b600181811c90821680612a0457607f821691505b602082108103612a2257634e487b7160e01b5f52602260045260245ffd5b50919050565b60208082526017908201527f5265776172645661756c743a2061646d696e206f6e6c79000000000000000000604082015260600190565b60208082526019908201527f5265776172645661756c743a207a65726f206164647265737300000000000000604082015260600190565b634e487b7160e01b5f52602160045260245ffd5b60ff8181168382160190811115610802576108026129c9565b6001600160a01b039390931683526020830191909152604082015260600190565b81810381811115610802576108026129c9565b6001815b6001841115612b3257808504811115612b1657612b166129c9565b6001841615612b2457908102905b60019390931c928002612afb565b935093915050565b5f82612b4857506001610802565b81612b5457505f610802565b8160018114612b6a5760028114612b7457612b90565b6001915050610802565b60ff841115612b8557612b856129c9565b50506001821b610802565b5060208310610133831016604e8410600b8410161715612bb3575081810a610802565b612bbf5f198484612af7565b805f1904821115612bd257612bd26129c9565b029392505050565b5f610a8960ff841683612b3a565b5f82518060208501845e5f920191825250919050565b601f821115610c5757805f5260205f20601f840160051c81016020851015612c235750805b601f840160051c820191505b81811015612c42575f8155600101612c2f565b5050505050565b815167ffffffffffffffff811115612c6357612c636127a8565b612c7781612c7184546129f0565b84612bfe565b6020601f821160018114612ca9575f8315612c925750848201515b5f19600385901b1c1916600184901b178455612c42565b5f84815260208120601f198516915b82811015612cd85787850151825560209485019460019092019101612cb8565b5084821015612cf557868401515f19600387901b60f8161c191681555b50505050600190811b01905550565b634e487b7160e01b5f52601260045260245ffd5b5f60ff831680612d3657634e487b7160e01b5f52601260045260245ffd5b8060ff8416069150509291505056fecab5a0bfe0b79d2c4b1c2e02599fa044d115b7511f9659307cb4276950967709a49807205ce4d355092ef5a8a18f56e8913cf4a201fbe287825b095693c21775a264697066735822122023d5bfc66bb709270bd0277a41d3598370adde1d0a62602e6165d4041c93d3eb64736f6c634300081b003360a060405262093a80600655348015610016575f5ffd5b5060405161161e38038061161e83398101604081905261003591610233565b6001600160a01b0382166100b65760405162461bcd60e51b815260206004820152603860248201527f526577617264734469737472696275746f723a207265776172647320746f6b6560448201527f6e2063616e6e6f74206265207a65726f2061646472657373000000000000000060648201526084015b60405180910390fd5b6001600160a01b0381166101255760405162461bcd60e51b815260206004820152603060248201527f526577617264734469737472696275746f723a2061646d696e2063616e6e6f7460448201526f206265207a65726f206164647265737360801b60648201526084016100ad565b6001600160a01b03821660805261013c5f8261016f565b506101677fa49807205ce4d355092ef5a8a18f56e8913cf4a201fbe287825b095693c217758261016f565b505050610264565b5f828152602081815260408083206001600160a01b038516845290915281205460ff1661020f575f838152602081815260408083206001600160a01b03861684529091529020805460ff191660011790556101c73390565b6001600160a01b0316826001600160a01b0316847f2f8788117e7eff1d82e926ec794901d17c78024a50270940304540a733656f0d60405160405180910390a4506001610212565b505f5b92915050565b80516001600160a01b038116811461022e575f5ffd5b919050565b5f5f60408385031215610244575f5ffd5b61024d83610218565b915061025b60208401610218565b90509250929050565b6080516113866102985f395f81816103f5015281816105ae015281816107ff01528181610b790152610c1601526113865ff3fe608060405234801561000f575f5ffd5b50600436106101db575f3560e01c806380faa57d11610109578063c8f33c911161009e578063d547741f1161006e578063d547741f1461042f578063df136d6514610442578063ebe2b12b1461044b578063fbfa77cf14610454575f5ffd5b8063c8f33c91146103cc578063cc1a378f146103d5578063cd3daf9d146103e8578063d1af0c7d146103f0575f5ffd5b806398c4f1ac116100d957806398c4f1ac14610378578063a217fddf1461039f578063acda95d7146103a6578063beceed39146103b9575f5ffd5b806380faa57d1461032b5780638980f11f146103335780638b8763471461034657806391d1485414610365575f5ffd5b806327e235e31161017f5780636817031b1161014f5780636817031b146102e857806374791fb6146102fb57806375b238fc1461030e5780637b0a47ee14610322575f5ffd5b806327e235e3146102985780632f2ff15d146102b757806336568abe146102cc578063386a9525146102df575f5ffd5b806318160ddd116101ba57806318160ddd146102475780631de9d9b614610250578063248a9ca3146102635780632552aa1f14610285575f5ffd5b80628cc262146101df57806301ffc9a7146102055780630700037d14610228575b5f5ffd5b6101f26101ed366004611186565b610467565b6040519081526020015b60405180910390f35b61021861021336600461119f565b6104e2565b60405190151581526020016101fc565b6101f2610236366004611186565b60096020525f908152604090205481565b6101f260075481565b6101f261025e366004611186565b610516565b6101f26102713660046111c6565b5f9081526020819052604090206001015490565b6101f2610293366004611186565b610620565b6101f26102a6366004611186565b600a6020525f908152604090205481565b6102ca6102c53660046111dd565b61062a565b005b6102ca6102da3660046111dd565b610654565b6101f260065481565b6102ca6102f6366004611186565b61068c565b6102ca6103093660046111c6565b610780565b6101f25f5160206113315f395f51905f5281565b6101f260025481565b6101f26107b8565b6102ca610341366004611207565b6107ca565b6101f2610354366004611186565b60086020525f908152604090205481565b6102186103733660046111dd565b6108f1565b6101f27f31e0210044b4f6757ce6aa31f9c6e8d4896d24a755014887391a926c5224d95981565b6101f25f81565b6102ca6103b436600461122f565b610919565b6102ca6103c73660046111c6565b610a73565b6101f260035481565b6102ca6103e33660046111c6565b610d46565b6101f2610e97565b6104177f000000000000000000000000000000000000000000000000000000000000000081565b6040516001600160a01b0390911681526020016101fc565b6102ca61043d3660046111dd565b610ef6565b6101f260045481565b6101f260055481565b600154610417906001600160a01b031681565b6001600160a01b0381165f908152600960209081526040808320546008909252822054670de0b6b3a76400009061049c610e97565b6104a69190611273565b6001600160a01b0385165f908152600a60205260409020546104c89190611286565b6104d2919061129d565b6104dc91906112bc565b92915050565b5f6001600160e01b03198216637965db0b60e01b14806104dc57506301ffc9a760e01b6001600160e01b03198316146104dc565b5f81610520610e97565b60045561052b6107b8565b6003556001600160a01b038116156105715761054681610467565b6001600160a01b0382165f908152600960209081526040808320939093556004546008909152919020555b6001600160a01b0383165f908152600960205260409020548015610619576001600160a01b038085165f908152600960205260408120556105d5907f0000000000000000000000000000000000000000000000000000000000000000168583610f1a565b836001600160a01b03167fe2403640ba68fed3a2f88b7557551d1993f84b99bb10ff833f0cf8db0c5e04868260405161061091815260200190565b60405180910390a25b9392505050565b5f6104dc82610467565b5f8281526020819052604090206001015461064481610f79565b61064e8383610f86565b50505050565b6001600160a01b038116331461067d5760405163334bd91960e11b815260040160405180910390fd5b6106878282611015565b505050565b6106a35f5160206113315f395f51905f52336108f1565b6106c85760405162461bcd60e51b81526004016106bf906112cf565b60405180910390fd5b6001600160a01b0381166107375760405162461bcd60e51b815260206004820152603060248201527f526577617264734469737472696275746f723a207661756c742063616e6e6f7460448201526f206265207a65726f206164647265737360801b60648201526084016106bf565b600180546001600160a01b0319166001600160a01b03831617905561077c7f31e0210044b4f6757ce6aa31f9c6e8d4896d24a755014887391a926c5224d95982610f86565b5050565b6107975f5160206113315f395f51905f52336108f1565b6107b35760405162461bcd60e51b81526004016106bf906112cf565b600255565b5f6107c54260055461107e565b905090565b6107e15f5160206113315f395f51905f52336108f1565b6107fd5760405162461bcd60e51b81526004016106bf906112cf565b7f00000000000000000000000000000000000000000000000000000000000000006001600160a01b0316826001600160a01b0316036108975760405162461bcd60e51b815260206004820152603060248201527f526577617264734469737472696275746f723a2063616e6e6f7420776974686460448201526f3930bb903932bbb0b932103a37b5b2b760811b60648201526084016106bf565b6108ab6001600160a01b0383163383610f1a565b604080516001600160a01b0384168152602081018390527f8c1256b8896378cd5044f80c202f9772b9d77dc85c8a6eb51967210b09bfaa28910160405180910390a15050565b5f918252602082815260408084206001600160a01b0393909316845291905290205460ff1690565b6109437f31e0210044b4f6757ce6aa31f9c6e8d4896d24a755014887391a926c5224d959336108f1565b6109a35760405162461bcd60e51b815260206004820152602b60248201527f526577617264734469737472696275746f723a2063616c6c6572206973206e6f60448201526a1d081d1a19481d985d5b1d60aa1b60648201526084016106bf565b826109ac610e97565b6004556109b76107b8565b6003556001600160a01b038116156109fd576109d281610467565b6001600160a01b0382165f908152600960209081526040808320939093556004546008909152919020555b8183600754610a0c9190611273565b610a1691906112bc565b6007556001600160a01b0384165f818152600a602052604090819020849055517faf5edae402c0c0b6e836a00378d20125216486bc516635cba9311f52682ec1f390610a659085815260200190565b60405180910390a250505050565b610a8a5f5160206113315f395f51905f52336108f1565b610aa65760405162461bcd60e51b81526004016106bf906112cf565b5f610aaf610e97565b600455610aba6107b8565b6003556001600160a01b03811615610b0057610ad581610467565b6001600160a01b0382165f908152600960209081526040808320939093556004546008909152919020555b5f8211610b6c5760405162461bcd60e51b815260206004820152603460248201527f526577617264734469737472696275746f723a20616d6f756e74206d7573742060448201527362652067726561746572207468616e207a65726f60601b60648201526084016106bf565b610ba16001600160a01b037f00000000000000000000000000000000000000000000000000000000000000001633308561108d565b6005544210610bbf57600654610bb7908361129d565b600255610bff565b5f42600554610bce9190611273565b90505f60025482610bdf9190611286565b600654909150610bef82866112bc565b610bf9919061129d565b60025550505b6040516370a0823160e01b81523060048201525f907f00000000000000000000000000000000000000000000000000000000000000006001600160a01b0316906370a0823190602401602060405180830381865afa158015610c63573d5f5f3e3d5ffd5b505050506040513d601f19601f82011682018060405250810190610c879190611319565b905060065481610c97919061129d565b6002541115610cf95760405162461bcd60e51b815260206004820152602860248201527f526577617264734469737472696275746f723a207265776172642072617465206044820152670e8dede40d0d2ced60c31b60648201526084016106bf565b426003819055600654610d0b916112bc565b6005556040518381527fde88a922e0d3b88b24e9623efeb464919c6bf9f66857a65e2bfcf2ce87a9433d9060200160405180910390a1505050565b610d5d5f5160206113315f395f51905f52336108f1565b610d795760405162461bcd60e51b81526004016106bf906112cf565b6005544211610df05760405162461bcd60e51b815260206004820152603c60248201527f526577617264734469737472696275746f723a2070726576696f75732072657760448201527f6172647320706572696f64206d75737420626520636f6d706c6574650000000060648201526084016106bf565b5f8111610e5c5760405162461bcd60e51b815260206004820152603460248201527f526577617264734469737472696275746f723a20726577617264206475726174604482015273696f6e206d757374206265206e6f6e2d7a65726f60601b60648201526084016106bf565b60068190556040518181527ffb46ca5a5e06d4540d6387b930a7c978bce0db5f449ec6b3f5d07c6e1d44f2d39060200160405180910390a150565b5f6007545f03610ea8575060045490565b600754600254600354610eb96107b8565b610ec39190611273565b610ecd9190611286565b610edf90670de0b6b3a7640000611286565b610ee9919061129d565b6004546107c591906112bc565b5f82815260208190526040902060010154610f1081610f79565b61064e8383611015565b6040516001600160a01b0383811660248301526044820183905261068791859182169063a9059cbb906064015b604051602081830303815290604052915060e01b6020820180516001600160e01b0383818316178352505050506110c6565b610f838133611132565b50565b5f610f9183836108f1565b61100e575f838152602081815260408083206001600160a01b03861684529091529020805460ff19166001179055610fc63390565b6001600160a01b0316826001600160a01b0316847f2f8788117e7eff1d82e926ec794901d17c78024a50270940304540a733656f0d60405160405180910390a45060016104dc565b505f6104dc565b5f61102083836108f1565b1561100e575f838152602081815260408083206001600160a01b0386168085529252808320805460ff1916905551339286917ff6391f5c32d9c69d2a47ea670b442974b53935d1edc7fd64eb21e047a839171b9190a45060016104dc565b5f828218828410028218610619565b6040516001600160a01b03848116602483015283811660448301526064820183905261064e9186918216906323b872dd90608401610f47565b5f5f60205f8451602086015f885af1806110e5576040513d5f823e3d81fd5b50505f513d915081156110fc578060011415611109565b6001600160a01b0384163b155b1561064e57604051635274afe760e01b81526001600160a01b03851660048201526024016106bf565b61113c82826108f1565b61077c5760405163e2517d3f60e01b81526001600160a01b0382166004820152602481018390526044016106bf565b80356001600160a01b0381168114611181575f5ffd5b919050565b5f60208284031215611196575f5ffd5b6106198261116b565b5f602082840312156111af575f5ffd5b81356001600160e01b031981168114610619575f5ffd5b5f602082840312156111d6575f5ffd5b5035919050565b5f5f604083850312156111ee575f5ffd5b823591506111fe6020840161116b565b90509250929050565b5f5f60408385031215611218575f5ffd5b6112218361116b565b946020939093013593505050565b5f5f5f60608486031215611241575f5ffd5b61124a8461116b565b95602085013595506040909401359392505050565b634e487b7160e01b5f52601160045260245ffd5b818103818111156104dc576104dc61125f565b80820281158282048414176104dc576104dc61125f565b5f826112b757634e487b7160e01b5f52601260045260245ffd5b500490565b808201808211156104dc576104dc61125f565b6020808252602a908201527f526577617264734469737472696275746f723a2063616c6c6572206973206e6f6040820152693a1030b71030b236b4b760b11b606082015260800190565b5f60208284031215611329575f5ffd5b505191905056fea49807205ce4d355092ef5a8a18f56e8913cf4a201fbe287825b095693c21775a264697066735822122035c1fca950a76538007c6f82c8ec5b4518d28da139391f7d5ff17b311da87dcb64736f6c634300081b0033","linkReferences":{}},"methodIdentifiers":{"ADMIN_ROLE()":"75b238fc","AGENT_ROLE()":"22459e18","DEFAULT_ADMIN_ROLE()":"a217fddf","addPool(string,address)":"d520e525","addStrategy(uint8,address)":"0af2a53a","allocateToStrategy(uint8,uint256)":"d80dbdf5","allowance(address,address)":"dd62ed3e","approve(address,uint256)":"095ea7b3","asset()":"38d52e0f","balanceOf(address)":"70a08231","claimRewards()":"372500ab","convertToAssets(uint256)":"07a2d13a","convertToShares(uint256)":"c6e6f592","decimals()":"313ce567","deposit(uint256)":"b6b55f25","deposit(uint256,address)":"6e553f65","getAccruedRewards(address)":"2552aa1f","getPoolList()":"d41dcbea","getRoleAdmin(bytes32)":"248a9ca3","getStrategyAddress(uint8)":"38e5dcb0","grantRole(bytes32,address)":"2f2ff15d","hasRole(bytes32,address)":"91d14854","lendingPools(string)":"9bc969bc","maxDeposit(address)":"402d267d","maxMint(address)":"c63d75b6","maxRedeem(address)":"d905777e","maxWithdraw(address)":"ce96cb77","mint(uint256,address)":"94bf804d","name()":"06fdde03","poolList(uint256)":"2a48235b","previewDeposit(uint256)":"ef8b30f7","previewMint(uint256)":"b3d7f6b9","previewRedeem(uint256)":"4cdad506","previewWithdraw(uint256)":"0a28a477","redeem(uint256,address,address)":"ba087652","renounceRole(bytes32,address)":"36568abe","revokeRole(bytes32,address)":"d547741f","rewardsDistributor()":"3f2a5540","setAdmin(address)":"704b6c02","setAgent(address)":"bcf685ed","setRewardsDistributor(address)":"d1f5c33b","strategies(uint8)":"667316e9","supportsInterface(bytes4)":"01ffc9a7","symbol()":"95d89b41","totalAssets()":"01e1d114","totalSupply()":"18160ddd","transfer(address,uint256)":"a9059cbb","transferFrom(address,address,uint256)":"23b872dd","withdraw(uint256)":"2e1a7d4d","withdraw(uint256,address,address)":"b460af94","withdrawFromStrategy(uint8,uint256)":"ad083dad"},"id":37}