{"abi":[{"type":"constructor","inputs":[{"name":"_asset","type":"address","internalType":"address"},{"name":"_rewardsToken","type":"address","internalType":"address"},{"name":"_rewardsDistributor","type":"address","internalType":"address"},{"name":"_name","type":"string","internalType":"string"},{"name":"_symbol","type":"string","internalType":"string"}],"stateMutability":"nonpayable"},{"type":"function","name":"ADMIN_ROLE","inputs":[],"outputs":[{"name":"","type":"bytes32","internalType":"bytes32"}],"stateMutability":"view"},{"type":"function","name":"AGENT_ROLE","inputs":[],"outputs":[{"name":"","type":"bytes32","internalType":"bytes32"}],"stateMutability":"view"},{"type":"function","name":"DEFAULT_ADMIN_ROLE","inputs":[],"outputs":[{"name":"","type":"bytes32","internalType":"bytes32"}],"stateMutability":"view"},{"type":"function","name":"allowance","inputs":[{"name":"owner","type":"address","internalType":"address"},{"name":"spender","type":"address","internalType":"address"}],"outputs":[{"name":"","type":"uint256","internalType":"uint256"}],"stateMutability":"view"},{"type":"function","name":"approve","inputs":[{"name":"spender","type":"address","internalType":"address"},{"name":"value","type":"uint256","internalType":"uint256"}],"outputs":[{"name":"","type":"bool","internalType":"bool"}],"stateMutability":"nonpayable"},{"type":"function","name":"asset","inputs":[],"outputs":[{"name":"","type":"address","internalType":"contract IERC20"}],"stateMutability":"view"},{"type":"function","name":"balanceOf","inputs":[{"name":"account","type":"address","internalType":"address"}],"outputs":[{"name":"","type":"uint256","internalType":"uint256"}],"stateMutability":"view"},{"type":"function","name":"claimRewards","inputs":[{"name":"user","type":"address","internalType":"address"}],"outputs":[{"name":"","type":"uint256","internalType":"uint256"}],"stateMutability":"nonpayable"},{"type":"function","name":"decimals","inputs":[],"outputs":[{"name":"","type":"uint8","internalType":"uint8"}],"stateMutability":"view"},{"type":"function","name":"deposit","inputs":[{"name":"amount","type":"uint256","internalType":"uint256"}],"outputs":[],"stateMutability":"nonpayable"},{"type":"function","name":"distributeRewards","inputs":[{"name":"amount","type":"uint256","internalType":"uint256"}],"outputs":[],"stateMutability":"nonpayable"},{"type":"function","name":"executeAgentAction","inputs":[{"name":"actionType","type":"uint256","internalType":"uint256"},{"name":"data","type":"bytes","internalType":"bytes"}],"outputs":[{"name":"success","type":"bool","internalType":"bool"},{"name":"result","type":"bytes","internalType":"bytes"}],"stateMutability":"nonpayable"},{"type":"function","name":"getAccruedRewards","inputs":[{"name":"user","type":"address","internalType":"address"}],"outputs":[{"name":"","type":"uint256","internalType":"uint256"}],"stateMutability":"view"},{"type":"function","name":"getRoleAdmin","inputs":[{"name":"role","type":"bytes32","internalType":"bytes32"}],"outputs":[{"name":"","type":"bytes32","internalType":"bytes32"}],"stateMutability":"view"},{"type":"function","name":"grantRole","inputs":[{"name":"role","type":"bytes32","internalType":"bytes32"},{"name":"account","type":"address","internalType":"address"}],"outputs":[],"stateMutability":"nonpayable"},{"type":"function","name":"hasRole","inputs":[{"name":"role","type":"bytes32","internalType":"bytes32"},{"name":"account","type":"address","internalType":"address"}],"outputs":[{"name":"","type":"bool","internalType":"bool"}],"stateMutability":"view"},{"type":"function","name":"minLiquidity","inputs":[],"outputs":[{"name":"","type":"uint256","internalType":"uint256"}],"stateMutability":"view"},{"type":"function","name":"name","inputs":[],"outputs":[{"name":"","type":"string","internalType":"string"}],"stateMutability":"view"},{"type":"function","name":"renounceRole","inputs":[{"name":"role","type":"bytes32","internalType":"bytes32"},{"name":"callerConfirmation","type":"address","internalType":"address"}],"outputs":[],"stateMutability":"nonpayable"},{"type":"function","name":"rescueTokens","inputs":[{"name":"tokenAddress","type":"address","internalType":"address"},{"name":"to","type":"address","internalType":"address"},{"name":"amount","type":"uint256","internalType":"uint256"}],"outputs":[],"stateMutability":"nonpayable"},{"type":"function","name":"reserveRatio","inputs":[],"outputs":[{"name":"","type":"uint256","internalType":"uint256"}],"stateMutability":"view"},{"type":"function","name":"revokeRole","inputs":[{"name":"role","type":"bytes32","internalType":"bytes32"},{"name":"account","type":"address","internalType":"address"}],"outputs":[],"stateMutability":"nonpayable"},{"type":"function","name":"rewardsDistributor","inputs":[],"outputs":[{"name":"","type":"address","internalType":"contract IRewardsDistributor"}],"stateMutability":"view"},{"type":"function","name":"rewardsToken","inputs":[],"outputs":[{"name":"","type":"address","internalType":"contract IERC20"}],"stateMutability":"view"},{"type":"function","name":"setMinLiquidity","inputs":[{"name":"newMinLiquidity","type":"uint256","internalType":"uint256"}],"outputs":[],"stateMutability":"nonpayable"},{"type":"function","name":"setReserveRatio","inputs":[{"name":"newRatio","type":"uint256","internalType":"uint256"}],"outputs":[],"stateMutability":"nonpayable"},{"type":"function","name":"supportsInterface","inputs":[{"name":"interfaceId","type":"bytes4","internalType":"bytes4"}],"outputs":[{"name":"","type":"bool","internalType":"bool"}],"stateMutability":"view"},{"type":"function","name":"symbol","inputs":[],"outputs":[{"name":"","type":"string","internalType":"string"}],"stateMutability":"view"},{"type":"function","name":"totalAssets","inputs":[],"outputs":[{"name":"","type":"uint256","internalType":"uint256"}],"stateMutability":"view"},{"type":"function","name":"totalSupply","inputs":[],"outputs":[{"name":"","type":"uint256","internalType":"uint256"}],"stateMutability":"view"},{"type":"function","name":"transfer","inputs":[{"name":"to","type":"address","internalType":"address"},{"name":"value","type":"uint256","internalType":"uint256"}],"outputs":[{"name":"","type":"bool","internalType":"bool"}],"stateMutability":"nonpayable"},{"type":"function","name":"transferFrom","inputs":[{"name":"from","type":"address","internalType":"address"},{"name":"to","type":"address","internalType":"address"},{"name":"value","type":"uint256","internalType":"uint256"}],"outputs":[{"name":"","type":"bool","internalType":"bool"}],"stateMutability":"nonpayable"},{"type":"function","name":"withdraw","inputs":[{"name":"amount","type":"uint256","internalType":"uint256"}],"outputs":[],"stateMutability":"nonpayable"},{"type":"event","name":"AgentActionExecuted","inputs":[{"name":"actionType","type":"uint256","indexed":false,"internalType":"uint256"},{"name":"success","type":"bool","indexed":false,"internalType":"bool"}],"anonymous":false},{"type":"event","name":"Approval","inputs":[{"name":"owner","type":"address","indexed":true,"internalType":"address"},{"name":"spender","type":"address","indexed":true,"internalType":"address"},{"name":"value","type":"uint256","indexed":false,"internalType":"uint256"}],"anonymous":false},{"type":"event","name":"Deposit","inputs":[{"name":"user","type":"address","indexed":true,"internalType":"address"},{"name":"amount","type":"uint256","indexed":false,"internalType":"uint256"}],"anonymous":false},{"type":"event","name":"MinLiquiditySet","inputs":[{"name":"oldMinLiquidity","type":"uint256","indexed":false,"internalType":"uint256"},{"name":"newMinLiquidity","type":"uint256","indexed":false,"internalType":"uint256"}],"anonymous":false},{"type":"event","name":"ReserveRatioSet","inputs":[{"name":"oldRatio","type":"uint256","indexed":false,"internalType":"uint256"},{"name":"newRatio","type":"uint256","indexed":false,"internalType":"uint256"}],"anonymous":false},{"type":"event","name":"RoleAdminChanged","inputs":[{"name":"role","type":"bytes32","indexed":true,"internalType":"bytes32"},{"name":"previousAdminRole","type":"bytes32","indexed":true,"internalType":"bytes32"},{"name":"newAdminRole","type":"bytes32","indexed":true,"internalType":"bytes32"}],"anonymous":false},{"type":"event","name":"RoleGranted","inputs":[{"name":"role","type":"bytes32","indexed":true,"internalType":"bytes32"},{"name":"account","type":"address","indexed":true,"internalType":"address"},{"name":"sender","type":"address","indexed":true,"internalType":"address"}],"anonymous":false},{"type":"event","name":"RoleRevoked","inputs":[{"name":"role","type":"bytes32","indexed":true,"internalType":"bytes32"},{"name":"account","type":"address","indexed":true,"internalType":"address"},{"name":"sender","type":"address","indexed":true,"internalType":"address"}],"anonymous":false},{"type":"event","name":"Transfer","inputs":[{"name":"from","type":"address","indexed":true,"internalType":"address"},{"name":"to","type":"address","indexed":true,"internalType":"address"},{"name":"value","type":"uint256","indexed":false,"internalType":"uint256"}],"anonymous":false},{"type":"event","name":"Withdraw","inputs":[{"name":"user","type":"address","indexed":true,"internalType":"address"},{"name":"amount","type":"uint256","indexed":false,"internalType":"uint256"}],"anonymous":false},{"type":"error","name":"AccessControlBadConfirmation","inputs":[]},{"type":"error","name":"AccessControlUnauthorizedAccount","inputs":[{"name":"account","type":"address","internalType":"address"},{"name":"neededRole","type":"bytes32","internalType":"bytes32"}]},{"type":"error","name":"ERC20InsufficientAllowance","inputs":[{"name":"spender","type":"address","internalType":"address"},{"name":"allowance","type":"uint256","internalType":"uint256"},{"name":"needed","type":"uint256","internalType":"uint256"}]},{"type":"error","name":"ERC20InsufficientBalance","inputs":[{"name":"sender","type":"address","internalType":"address"},{"name":"balance","type":"uint256","internalType":"uint256"},{"name":"needed","type":"uint256","internalType":"uint256"}]},{"type":"error","name":"ERC20InvalidApprover","inputs":[{"name":"approver","type":"address","internalType":"address"}]},{"type":"error","name":"ERC20InvalidReceiver","inputs":[{"name":"receiver","type":"address","internalType":"address"}]},{"type":"error","name":"ERC20InvalidSender","inputs":[{"name":"sender","type":"address","internalType":"address"}]},{"type":"error","name":"ERC20InvalidSpender","inputs":[{"name":"spender","type":"address","internalType":"address"}]},{"type":"error","name":"ReentrancyGuardReentrantCall","inputs":[]},{"type":"error","name":"SafeERC20FailedOperation","inputs":[{"name":"token","type":"address","internalType":"address"}]}],"bytecode":{"object":"0x60e060405234801561000f575f5ffd5b506040516125ca3803806125ca83398101604081905261002e9161036a565b8181600361003c8382610484565b5060046100498282610484565b50506001600655506001600160a01b0385166100ac5760405162461bcd60e51b815260206004820152601f60248201527f5265776172645661756c743a207a65726f20617373657420616464726573730060448201526064015b60405180910390fd5b6001600160a01b0384166101125760405162461bcd60e51b815260206004820152602760248201527f5265776172645661756c743a207a65726f207265776172647320746f6b656e206044820152666164647265737360c81b60648201526084016100a3565b6001600160a01b0383166101765760405162461bcd60e51b815260206004820152602560248201527f5265776172645661756c743a207a65726f206469737472696275746f72206164604482015264647265737360d81b60648201526084016100a3565b6001600160a01b0380861660805284811660a052831660c05260146007556103e86008556101a45f33610205565b506101cf7fa49807205ce4d355092ef5a8a18f56e8913cf4a201fbe287825b095693c2177533610205565b506101fa7fcab5a0bfe0b79d2c4b1c2e02599fa044d115b7511f9659307cb427695096770933610205565b50505050505061053e565b5f8281526005602090815260408083206001600160a01b038516845290915281205460ff166102a9575f8381526005602090815260408083206001600160a01b03861684529091529020805460ff191660011790556102613390565b6001600160a01b0316826001600160a01b0316847f2f8788117e7eff1d82e926ec794901d17c78024a50270940304540a733656f0d60405160405180910390a45060016102ac565b505f5b92915050565b80516001600160a01b03811681146102c8575f5ffd5b919050565b634e487b7160e01b5f52604160045260245ffd5b5f82601f8301126102f0575f5ffd5b81516001600160401b03811115610309576103096102cd565b604051601f8201601f19908116603f011681016001600160401b0381118282101715610337576103376102cd565b60405281815283820160200185101561034e575f5ffd5b8160208501602083015e5f918101602001919091529392505050565b5f5f5f5f5f60a0868803121561037e575f5ffd5b610387866102b2565b9450610395602087016102b2565b93506103a3604087016102b2565b60608701519093506001600160401b038111156103be575f5ffd5b6103ca888289016102e1565b608088015190935090506001600160401b038111156103e7575f5ffd5b6103f3888289016102e1565b9150509295509295909350565b600181811c9082168061041457607f821691505b60208210810361043257634e487b7160e01b5f52602260045260245ffd5b50919050565b601f82111561047f57805f5260205f20601f840160051c8101602085101561045d5750805b601f840160051c820191505b8181101561047c575f8155600101610469565b50505b505050565b81516001600160401b0381111561049d5761049d6102cd565b6104b1816104ab8454610400565b84610438565b6020601f8211600181146104e3575f83156104cc5750848201515b5f19600385901b1c1916600184901b17845561047c565b5f84815260208120601f198516915b8281101561051257878501518255602094850194600190920191016104f2565b508482101561052f57868401515f19600387901b60f8161c191681555b50505050600190811b01905550565b60805160a05160c051611fdd6105ed5f395f8181610373015281816106e70152818161098b01528181610d8801528181610ddc01528181610e3001528181610e6b015281816110b4015261150001525f818161046a01528181610b7301528181610c5901528181610d3101528181610d6601528181610dba0152610e0e01525f818161033401528181610522015281816107f601528181610a030152818161106301526111c50152611fdd5ff3fe608060405234801561000f575f5ffd5b50600436106101f2575f3560e01c80633f2a554011610114578063a217fddf116100a9578063d1af0c7d11610079578063d1af0c7d14610465578063d547741f1461048c578063dd62ed3e1461049f578063eb423733146104d7578063ef5cfb8c146104f8575f5ffd5b8063a217fddf14610425578063a9059cbb1461042c578063b6b55f251461043f578063cea9d26f14610452575f5ffd5b806375b238fc116100e457806375b238fc146103e35780638b4f3b2c146103f757806391d148541461040a57806395d89b411461041d575f5ffd5b80633f2a55401461036e57806359974e38146103955780635c4c4749146103a857806370a08231146103bb575f5ffd5b8063248a9ca31161018a5780632f2ff15d1161015a5780632f2ff15d146102fa578063313ce5671461030d57806336568abe1461031c57806338d52e0f1461032f575f5ffd5b8063248a9ca3146102a7578063252cf2d2146102c95780632552aa1f146102d25780632e1a7d4d146102e5575f5ffd5b80630c7d5cd8116101c55780630c7d5cd81461025c57806318160ddd1461026557806322459e181461026d57806323b872dd14610294575f5ffd5b806301e1d114146101f657806301ffc9a71461021157806306fdde0314610234578063095ea7b314610249575b5f5ffd5b6101fe61050b565b6040519081526020015b60405180910390f35b61022461021f366004611bde565b610598565b6040519015158152602001610208565b61023c6105ce565b6040516102089190611c3a565b610224610257366004611c62565b61065e565b6101fe60075481565b6002546101fe565b6101fe7fcab5a0bfe0b79d2c4b1c2e02599fa044d115b7511f9659307cb427695096770981565b6102246102a2366004611c8a565b610675565b6101fe6102b5366004611cc4565b5f9081526005602052604090206001015490565b6101fe60085481565b6101fe6102e0366004611cdb565b610698565b6102f86102f3366004611cc4565b610750565b005b6102f8610308366004611cf4565b610a71565b60405160128152602001610208565b6102f861032a366004611cf4565b610a9b565b6103567f000000000000000000000000000000000000000000000000000000000000000081565b6040516001600160a01b039091168152602001610208565b6103567f000000000000000000000000000000000000000000000000000000000000000081565b6102f86103a3366004611cc4565b610ad3565b6102f86103b6366004611cc4565b610ed4565b6101fe6103c9366004611cdb565b6001600160a01b03165f9081526020819052604090205490565b6101fe5f516020611f885f395f51905f5281565b6102f8610405366004611cc4565b610f32565b610224610418366004611cf4565b610fd8565b61023c611002565b6101fe5f81565b61022461043a366004611c62565b611011565b6102f861044d366004611cc4565b61101e565b6102f8610460366004611c8a565b61115f565b6103567f000000000000000000000000000000000000000000000000000000000000000081565b6102f861049a366004611cf4565b611272565b6101fe6104ad366004611d1e565b6001600160a01b039182165f90815260016020908152604080832093909416825291909152205490565b6104ea6104e5366004611d5a565b611296565b604051610208929190611e17565b6101fe610506366004611cdb565b6114b2565b6040516370a0823160e01b81523060048201525f907f00000000000000000000000000000000000000000000000000000000000000006001600160a01b0316906370a0823190602401602060405180830381865afa15801561056f573d5f5f3e3d5ffd5b505050506040513d601f19601f820116820180604052508101906105939190611e39565b905090565b5f6001600160e01b03198216637965db0b60e01b14806105c857506301ffc9a760e01b6001600160e01b03198316145b92915050565b6060600380546105dd90611e50565b80601f016020809104026020016040519081016040528092919081815260200182805461060990611e50565b80156106545780601f1061062b57610100808354040283529160200191610654565b820191905f5260205f20905b81548152906001019060200180831161063757829003601f168201915b5050505050905090565b5f3361066b81858561157b565b5060019392505050565b5f33610682858285611588565b61068d8585856115eb565b506001949350505050565b5f6001600160a01b0382166106c85760405162461bcd60e51b81526004016106bf90611e88565b60405180910390fd5b604051632552aa1f60e01b81526001600160a01b0383811660048301527f00000000000000000000000000000000000000000000000000000000000000001690632552aa1f90602401602060405180830381865afa15801561072c573d5f5f3e3d5ffd5b505050506040513d601f19601f820116820180604052508101906105c89190611e39565b610758611648565b5f81116107775760405162461bcd60e51b81526004016106bf90611ebf565b335f908152602081905260409020548111156107df5760405162461bcd60e51b815260206004820152602160248201527f5265776172645661756c743a20696e73756666696369656e742062616c616e636044820152606560f81b60648201526084016106bf565b6040516370a0823160e01b81523060048201525f907f00000000000000000000000000000000000000000000000000000000000000006001600160a01b0316906370a0823190602401602060405180830381865afa158015610843573d5f5f3e3d5ffd5b505050506040513d601f19601f820116820180604052508101906108679190611e39565b90505f60646007548361087a9190611f0a565b6108849190611f21565b9050806108918484611f40565b10156108eb5760405162461bcd60e51b815260206004820152602360248201527f5265776172645661756c743a20696e73756666696369656e74206c697175696460448201526269747960e81b60648201526084016106bf565b6008546108f88484611f40565b10156109525760405162461bcd60e51b8152602060048201526024808201527f5265776172645661756c743a2062656c6f77206d696e696d756d206c697175696044820152636469747960e01b60648201526084016106bf565b335f818152602081905260409020549061096c9085611672565b335f818152602081905260409081902054905163acda95d760e01b81527f00000000000000000000000000000000000000000000000000000000000000006001600160a01b03169263acda95d7926109c992869190600401611f53565b5f604051808303815f87803b1580156109e0575f5ffd5b505af11580156109f2573d5f5f3e3d5ffd5b50610a2c9250506001600160a01b037f000000000000000000000000000000000000000000000000000000000000000016905033866116aa565b60405184815233907f884edad9ce6fa2440d8a54cc123490eb96d2768479d49ff9c7366125a94243649060200160405180910390a2505050610a6e6001600655565b50565b5f82815260056020526040902060010154610a8b81611709565b610a958383611713565b50505050565b6001600160a01b0381163314610ac45760405163334bd91960e11b815260040160405180910390fd5b610ace82826117a4565b505050565b610adb611648565b5f8111610afa5760405162461bcd60e51b81526004016106bf90611ebf565b5f610b0460025490565b11610b5c5760405162461bcd60e51b815260206004820152602260248201527f5265776172645661756c743a206e6f20736861726573206f75747374616e64696044820152616e6760f01b60648201526084016106bf565b6040516370a0823160e01b815233600482015281907f00000000000000000000000000000000000000000000000000000000000000006001600160a01b0316906370a0823190602401602060405180830381865afa158015610bc0573d5f5f3e3d5ffd5b505050506040513d601f19601f82011682018060405250810190610be49190611e39565b1015610c3c5760405162461bcd60e51b815260206004820152602160248201527f5265776172645661756c743a20696e73756666696369656e74207265776172646044820152607360f81b60648201526084016106bf565b604051636eb1769f60e11b815233600482015230602482015281907f00000000000000000000000000000000000000000000000000000000000000006001600160a01b03169063dd62ed3e90604401602060405180830381865afa158015610ca6573d5f5f3e3d5ffd5b505050506040513d601f19601f82011682018060405250810190610cca9190611e39565b1015610d245760405162461bcd60e51b815260206004820152602360248201527f5265776172645661756c743a20696e73756666696369656e7420616c6c6f77616044820152626e636560e81b60648201526084016106bf565b610d596001600160a01b037f00000000000000000000000000000000000000000000000000000000000000001633308461180f565b610dad6001600160a01b037f0000000000000000000000000000000000000000000000000000000000000000167f00000000000000000000000000000000000000000000000000000000000000005f611848565b610e016001600160a01b037f0000000000000000000000000000000000000000000000000000000000000000167f000000000000000000000000000000000000000000000000000000000000000083611848565b610e556001600160a01b037f0000000000000000000000000000000000000000000000000000000000000000167f0000000000000000000000000000000000000000000000000000000000000000836116aa565b604051630b32e9c760e31b8152600481018290527f00000000000000000000000000000000000000000000000000000000000000006001600160a01b0316906359974e38906024015f604051808303815f87803b158015610eb4575f5ffd5b505af1158015610ec6573d5f5f3e3d5ffd5b50505050610a6e6001600655565b5f516020611f885f395f51905f52610eeb81611709565b600880549083905560408051828152602081018590527fe09ad1fca5dae514ab1d87e918fe6b529f0b7218b994004ea4470850578d6fb491015b60405180910390a1505050565b5f516020611f885f395f51905f52610f4981611709565b6064821115610f9a5760405162461bcd60e51b815260206004820152601a60248201527f5265776172645661756c743a20696e76616c696420726174696f00000000000060448201526064016106bf565b600780549083905560408051828152602081018590527fb703c9ac1160216a336ac08fb2eafb92d70a68ab437c5848b7250176078122be9101610f25565b5f9182526005602090815260408084206001600160a01b0393909316845291905290205460ff1690565b6060600480546105dd90611e50565b5f3361066b8185856115eb565b611026611648565b5f81116110455760405162461bcd60e51b81526004016106bf90611ebf565b335f90815260208190526040812054905061108b6001600160a01b037f00000000000000000000000000000000000000000000000000000000000000001633308561180f565b61109533836118d7565b335f818152602081905260409081902054905163acda95d760e01b81527f00000000000000000000000000000000000000000000000000000000000000006001600160a01b03169263acda95d7926110f292869190600401611f53565b5f604051808303815f87803b158015611109575f5ffd5b505af115801561111b573d5f5f3e3d5ffd5b50506040518481523392507fe1fffcc4923d04b559f4d29a8bfc6cda04eb5b0d3c460751c2402c5c5cc9109c915060200160405180910390a250610a6e6001600655565b5f516020611f885f395f51905f5261117681611709565b61117e611648565b6001600160a01b0383166111a45760405162461bcd60e51b81526004016106bf90611e88565b5f82116111c35760405162461bcd60e51b81526004016106bf90611ebf565b7f00000000000000000000000000000000000000000000000000000000000000006001600160a01b0316846001600160a01b0316036112545760405162461bcd60e51b815260206004820152602760248201527f5265776172645661756c743a2063616e6e6f7420726573637565207661756c746044820152662061737365747360c81b60648201526084016106bf565b6112686001600160a01b03851684846116aa565b610a956001600655565b5f8281526005602052604090206001015461128c81611709565b610a9583836117a4565b5f60607fcab5a0bfe0b79d2c4b1c2e02599fa044d115b7511f9659307cb42769509677096112c381611709565b6112cb611648565b846001036113a5575f848060200190518101906112e89190611e39565b9050606481111561133b5760405162461bcd60e51b815260206004820152601a60248201527f5265776172645661756c743a20696e76616c696420726174696f00000000000060448201526064016106bf565b600780549082905560408051828152602081018490527fb703c9ac1160216a336ac08fb2eafb92d70a68ab437c5848b7250176078122be91015b60405180910390a16040805160208101849052600196500160405160208183030381529060405293505050611466565b84600203611451575f848060200190518101906113c29190611e39565b90505f81116114135760405162461bcd60e51b815260206004820152601f60248201527f5265776172645661756c743a207a65726f206d696e206c69717569646974790060448201526064016106bf565b600880549082905560408051828152602081018490527fe09ad1fca5dae514ab1d87e918fe6b529f0b7218b994004ea4470850578d6fb49101611375565b5f925060405180602001604052805f81525091505b6040805186815284151560208201527ffd3d0df3306f7b0dd9142a4d5b045719304ad158a2ae3d9212b733098b6dc9ff910160405180910390a16114aa6001600655565b509250929050565b5f6114bb611648565b6001600160a01b0382166114e15760405162461bcd60e51b81526004016106bf90611e88565b604051633bd73ee360e21b81526001600160a01b0383811660048301527f0000000000000000000000000000000000000000000000000000000000000000169063ef5cfb8c906024016020604051808303815f875af1158015611546573d5f5f3e3d5ffd5b505050506040513d601f19601f8201168201806040525081019061156a9190611e39565b90506115766001600655565b919050565b610ace838383600161190b565b6001600160a01b038381165f908152600160209081526040808320938616835292905220545f19811015610a9557818110156115dd57828183604051637dc7a0d960e11b81526004016106bf93929190611f53565b610a9584848484035f61190b565b6001600160a01b03831661161457604051634b637e8f60e11b81525f60048201526024016106bf565b6001600160a01b03821661163d5760405163ec442f0560e01b81525f60048201526024016106bf565b610ace8383836119dd565b60026006540361166b57604051633ee5aeb560e01b815260040160405180910390fd5b6002600655565b6001600160a01b03821661169b57604051634b637e8f60e11b81525f60048201526024016106bf565b6116a6825f836119dd565b5050565b6040516001600160a01b03838116602483015260448201839052610ace91859182169063a9059cbb906064015b604051602081830303815290604052915060e01b6020820180516001600160e01b038381831617835250505050611af0565b610a6e8133611b5c565b5f61171e8383610fd8565b61179d575f8381526005602090815260408083206001600160a01b03861684529091529020805460ff191660011790556117553390565b6001600160a01b0316826001600160a01b0316847f2f8788117e7eff1d82e926ec794901d17c78024a50270940304540a733656f0d60405160405180910390a45060016105c8565b505f6105c8565b5f6117af8383610fd8565b1561179d575f8381526005602090815260408083206001600160a01b0386168085529252808320805460ff1916905551339286917ff6391f5c32d9c69d2a47ea670b442974b53935d1edc7fd64eb21e047a839171b9190a45060016105c8565b6040516001600160a01b038481166024830152838116604483015260648201839052610a959186918216906323b872dd906084016116d7565b604080516001600160a01b038416602482015260448082018490528251808303909101815260649091019091526020810180516001600160e01b031663095ea7b360e01b1790526118998482611b95565b610a95576040516001600160a01b0384811660248301525f60448301526118cd91869182169063095ea7b3906064016116d7565b610a958482611af0565b6001600160a01b0382166119005760405163ec442f0560e01b81525f60048201526024016106bf565b6116a65f83836119dd565b6001600160a01b0384166119345760405163e602df0560e01b81525f60048201526024016106bf565b6001600160a01b03831661195d57604051634a1406b160e11b81525f60048201526024016106bf565b6001600160a01b038085165f9081526001602090815260408083209387168352929052208290558015610a9557826001600160a01b0316846001600160a01b03167f8c5be1e5ebec7d5bd14f71427d1e84f3dd0314c0f7b2291e5b200ac8c7c3b925846040516119cf91815260200190565b60405180910390a350505050565b6001600160a01b038316611a07578060025f8282546119fc9190611f74565b90915550611a649050565b6001600160a01b0383165f9081526020819052604090205481811015611a465783818360405163391434e360e21b81526004016106bf93929190611f53565b6001600160a01b0384165f9081526020819052604090209082900390555b6001600160a01b038216611a8057600280548290039055611a9e565b6001600160a01b0382165f9081526020819052604090208054820190555b816001600160a01b0316836001600160a01b03167fddf252ad1be2c89b69c2b068fc378daa952ba7f163c4a11628f55a4df523b3ef83604051611ae391815260200190565b60405180910390a3505050565b5f5f60205f8451602086015f885af180611b0f576040513d5f823e3d81fd5b50505f513d91508115611b26578060011415611b33565b6001600160a01b0384163b155b15610a9557604051635274afe760e01b81526001600160a01b03851660048201526024016106bf565b611b668282610fd8565b6116a65760405163e2517d3f60e01b81526001600160a01b0382166004820152602481018390526044016106bf565b5f5f5f5f60205f8651602088015f8a5af192503d91505f519050828015611bd457508115611bc65780600114611bd4565b5f866001600160a01b03163b115b9695505050505050565b5f60208284031215611bee575f5ffd5b81356001600160e01b031981168114611c05575f5ffd5b9392505050565b5f81518084528060208401602086015e5f602082860101526020601f19601f83011685010191505092915050565b602081525f611c056020830184611c0c565b80356001600160a01b0381168114611576575f5ffd5b5f5f60408385031215611c73575f5ffd5b611c7c83611c4c565b946020939093013593505050565b5f5f5f60608486031215611c9c575f5ffd5b611ca584611c4c565b9250611cb360208501611c4c565b929592945050506040919091013590565b5f60208284031215611cd4575f5ffd5b5035919050565b5f60208284031215611ceb575f5ffd5b611c0582611c4c565b5f5f60408385031215611d05575f5ffd5b82359150611d1560208401611c4c565b90509250929050565b5f5f60408385031215611d2f575f5ffd5b611d3883611c4c565b9150611d1560208401611c4c565b634e487b7160e01b5f52604160045260245ffd5b5f5f60408385031215611d6b575f5ffd5b82359150602083013567ffffffffffffffff811115611d88575f5ffd5b8301601f81018513611d98575f5ffd5b803567ffffffffffffffff811115611db257611db2611d46565b604051601f8201601f19908116603f0116810167ffffffffffffffff81118282101715611de157611de1611d46565b604052818152828201602001871015611df8575f5ffd5b816020840160208301375f602083830101528093505050509250929050565b8215158152604060208201525f611e316040830184611c0c565b949350505050565b5f60208284031215611e49575f5ffd5b5051919050565b600181811c90821680611e6457607f821691505b602082108103611e8257634e487b7160e01b5f52602260045260245ffd5b50919050565b60208082526019908201527f5265776172645661756c743a207a65726f206164647265737300000000000000604082015260600190565b60208082526018908201527f5265776172645661756c743a207a65726f20616d6f756e740000000000000000604082015260600190565b634e487b7160e01b5f52601160045260245ffd5b80820281158282048414176105c8576105c8611ef6565b5f82611f3b57634e487b7160e01b5f52601260045260245ffd5b500490565b818103818111156105c8576105c8611ef6565b6001600160a01b039390931683526020830191909152604082015260600190565b808201808211156105c8576105c8611ef656fea49807205ce4d355092ef5a8a18f56e8913cf4a201fbe287825b095693c21775a2646970667358221220238e1e32feb7b58984adca6958054ebe9516ff66ac6240ed18f29f770134219764736f6c634300081b0033","linkReferences":{}},"methodIdentifiers":{"ADMIN_ROLE()":"75b238fc","AGENT_ROLE()":"22459e18","DEFAULT_ADMIN_ROLE()":"a217fddf","allowance(address,address)":"dd62ed3e","approve(address,uint256)":"095ea7b3","asset()":"38d52e0f","balanceOf(address)":"70a08231","claimRewards(address)":"ef5cfb8c","decimals()":"313ce567","deposit(uint256)":"b6b55f25","distributeRewards(uint256)":"59974e38","executeAgentAction(uint256,bytes)":"eb423733","getAccruedRewards(address)":"2552aa1f","getRoleAdmin(bytes32)":"248a9ca3","grantRole(bytes32,address)":"2f2ff15d","hasRole(bytes32,address)":"91d14854","minLiquidity()":"252cf2d2","name()":"06fdde03","renounceRole(bytes32,address)":"36568abe","rescueTokens(address,address,uint256)":"cea9d26f","reserveRatio()":"0c7d5cd8","revokeRole(bytes32,address)":"d547741f","rewardsDistributor()":"3f2a5540","rewardsToken()":"d1af0c7d","setMinLiquidity(uint256)":"5c4c4749","setReserveRatio(uint256)":"8b4f3b2c","supportsInterface(bytes4)":"01ffc9a7","symbol()":"95d89b41","totalAssets()":"01e1d114","totalSupply()":"18160ddd","transfer(address,uint256)":"a9059cbb","transferFrom(address,address,uint256)":"23b872dd","withdraw(uint256)":"2e1a7d4d"},"id":38}