{"abi":[{"type":"constructor","inputs":[{"name":"_asset","type":"address","internalType":"address"},{"name":"_rewardsToken","type":"address","internalType":"address"},{"name":"_rewardsDistributor","type":"address","internalType":"address"},{"name":"_name","type":"string","internalType":"string"},{"name":"_symbol","type":"string","internalType":"string"}],"stateMutability":"nonpayable"},{"type":"function","name":"ADMIN_ROLE","inputs":[],"outputs":[{"name":"","type":"bytes32","internalType":"bytes32"}],"stateMutability":"view"},{"type":"function","name":"AGENT_ROLE","inputs":[],"outputs":[{"name":"","type":"bytes32","internalType":"bytes32"}],"stateMutability":"view"},{"type":"function","name":"DEFAULT_ADMIN_ROLE","inputs":[],"outputs":[{"name":"","type":"bytes32","internalType":"bytes32"}],"stateMutability":"view"},{"type":"function","name":"allowance","inputs":[{"name":"owner","type":"address","internalType":"address"},{"name":"spender","type":"address","internalType":"address"}],"outputs":[{"name":"","type":"uint256","internalType":"uint256"}],"stateMutability":"view"},{"type":"function","name":"approve","inputs":[{"name":"spender","type":"address","internalType":"address"},{"name":"value","type":"uint256","internalType":"uint256"}],"outputs":[{"name":"","type":"bool","internalType":"bool"}],"stateMutability":"nonpayable"},{"type":"function","name":"asset","inputs":[],"outputs":[{"name":"","type":"address","internalType":"contract IERC20"}],"stateMutability":"view"},{"type":"function","name":"balanceOf","inputs":[{"name":"account","type":"address","internalType":"address"}],"outputs":[{"name":"","type":"uint256","internalType":"uint256"}],"stateMutability":"view"},{"type":"function","name":"claimRewards","inputs":[{"name":"user","type":"address","internalType":"address"}],"outputs":[{"name":"","type":"uint256","internalType":"uint256"}],"stateMutability":"nonpayable"},{"type":"function","name":"decimals","inputs":[],"outputs":[{"name":"","type":"uint8","internalType":"uint8"}],"stateMutability":"view"},{"type":"function","name":"deposit","inputs":[{"name":"amount","type":"uint256","internalType":"uint256"}],"outputs":[],"stateMutability":"nonpayable"},{"type":"function","name":"distributeRewards","inputs":[{"name":"amount","type":"uint256","internalType":"uint256"}],"outputs":[],"stateMutability":"nonpayable"},{"type":"function","name":"executeAgentAction","inputs":[{"name":"actionType","type":"uint256","internalType":"uint256"},{"name":"data","type":"bytes","internalType":"bytes"}],"outputs":[{"name":"success","type":"bool","internalType":"bool"},{"name":"result","type":"bytes","internalType":"bytes"}],"stateMutability":"nonpayable"},{"type":"function","name":"getAccruedRewards","inputs":[{"name":"user","type":"address","internalType":"address"}],"outputs":[{"name":"","type":"uint256","internalType":"uint256"}],"stateMutability":"view"},{"type":"function","name":"getRoleAdmin","inputs":[{"name":"role","type":"bytes32","internalType":"bytes32"}],"outputs":[{"name":"","type":"bytes32","internalType":"bytes32"}],"stateMutability":"view"},{"type":"function","name":"grantRole","inputs":[{"name":"role","type":"bytes32","internalType":"bytes32"},{"name":"account","type":"address","internalType":"address"}],"outputs":[],"stateMutability":"nonpayable"},{"type":"function","name":"hasRole","inputs":[{"name":"role","type":"bytes32","internalType":"bytes32"},{"name":"account","type":"address","internalType":"address"}],"outputs":[{"name":"","type":"bool","internalType":"bool"}],"stateMutability":"view"},{"type":"function","name":"minLiquidity","inputs":[],"outputs":[{"name":"","type":"uint256","internalType":"uint256"}],"stateMutability":"view"},{"type":"function","name":"name","inputs":[],"outputs":[{"name":"","type":"string","internalType":"string"}],"stateMutability":"view"},{"type":"function","name":"renounceRole","inputs":[{"name":"role","type":"bytes32","internalType":"bytes32"},{"name":"callerConfirmation","type":"address","internalType":"address"}],"outputs":[],"stateMutability":"nonpayable"},{"type":"function","name":"reserveRatio","inputs":[],"outputs":[{"name":"","type":"uint256","internalType":"uint256"}],"stateMutability":"view"},{"type":"function","name":"revokeRole","inputs":[{"name":"role","type":"bytes32","internalType":"bytes32"},{"name":"account","type":"address","internalType":"address"}],"outputs":[],"stateMutability":"nonpayable"},{"type":"function","name":"rewardsDistributor","inputs":[],"outputs":[{"name":"","type":"address","internalType":"contract IRewardsDistributor"}],"stateMutability":"view"},{"type":"function","name":"rewardsToken","inputs":[],"outputs":[{"name":"","type":"address","internalType":"contract IERC20"}],"stateMutability":"view"},{"type":"function","name":"setMinLiquidity","inputs":[{"name":"newMinLiquidity","type":"uint256","internalType":"uint256"}],"outputs":[],"stateMutability":"nonpayable"},{"type":"function","name":"setReserveRatio","inputs":[{"name":"newRatio","type":"uint256","internalType":"uint256"}],"outputs":[],"stateMutability":"nonpayable"},{"type":"function","name":"supportsInterface","inputs":[{"name":"interfaceId","type":"bytes4","internalType":"bytes4"}],"outputs":[{"name":"","type":"bool","internalType":"bool"}],"stateMutability":"view"},{"type":"function","name":"symbol","inputs":[],"outputs":[{"name":"","type":"string","internalType":"string"}],"stateMutability":"view"},{"type":"function","name":"totalAssets","inputs":[],"outputs":[{"name":"","type":"uint256","internalType":"uint256"}],"stateMutability":"view"},{"type":"function","name":"totalSupply","inputs":[],"outputs":[{"name":"","type":"uint256","internalType":"uint256"}],"stateMutability":"view"},{"type":"function","name":"transfer","inputs":[{"name":"to","type":"address","internalType":"address"},{"name":"value","type":"uint256","internalType":"uint256"}],"outputs":[{"name":"","type":"bool","internalType":"bool"}],"stateMutability":"nonpayable"},{"type":"function","name":"transferFrom","inputs":[{"name":"from","type":"address","internalType":"address"},{"name":"to","type":"address","internalType":"address"},{"name":"value","type":"uint256","internalType":"uint256"}],"outputs":[{"name":"","type":"bool","internalType":"bool"}],"stateMutability":"nonpayable"},{"type":"function","name":"withdraw","inputs":[{"name":"amount","type":"uint256","internalType":"uint256"}],"outputs":[],"stateMutability":"nonpayable"},{"type":"event","name":"Approval","inputs":[{"name":"owner","type":"address","indexed":true,"internalType":"address"},{"name":"spender","type":"address","indexed":true,"internalType":"address"},{"name":"value","type":"uint256","indexed":false,"internalType":"uint256"}],"anonymous":false},{"type":"event","name":"Deposit","inputs":[{"name":"user","type":"address","indexed":true,"internalType":"address"},{"name":"amount","type":"uint256","indexed":false,"internalType":"uint256"}],"anonymous":false},{"type":"event","name":"MinLiquiditySet","inputs":[{"name":"oldMinLiquidity","type":"uint256","indexed":false,"internalType":"uint256"},{"name":"newMinLiquidity","type":"uint256","indexed":false,"internalType":"uint256"}],"anonymous":false},{"type":"event","name":"ReserveRatioSet","inputs":[{"name":"oldRatio","type":"uint256","indexed":false,"internalType":"uint256"},{"name":"newRatio","type":"uint256","indexed":false,"internalType":"uint256"}],"anonymous":false},{"type":"event","name":"RoleAdminChanged","inputs":[{"name":"role","type":"bytes32","indexed":true,"internalType":"bytes32"},{"name":"previousAdminRole","type":"bytes32","indexed":true,"internalType":"bytes32"},{"name":"newAdminRole","type":"bytes32","indexed":true,"internalType":"bytes32"}],"anonymous":false},{"type":"event","name":"RoleGranted","inputs":[{"name":"role","type":"bytes32","indexed":true,"internalType":"bytes32"},{"name":"account","type":"address","indexed":true,"internalType":"address"},{"name":"sender","type":"address","indexed":true,"internalType":"address"}],"anonymous":false},{"type":"event","name":"RoleRevoked","inputs":[{"name":"role","type":"bytes32","indexed":true,"internalType":"bytes32"},{"name":"account","type":"address","indexed":true,"internalType":"address"},{"name":"sender","type":"address","indexed":true,"internalType":"address"}],"anonymous":false},{"type":"event","name":"Transfer","inputs":[{"name":"from","type":"address","indexed":true,"internalType":"address"},{"name":"to","type":"address","indexed":true,"internalType":"address"},{"name":"value","type":"uint256","indexed":false,"internalType":"uint256"}],"anonymous":false},{"type":"event","name":"Withdraw","inputs":[{"name":"user","type":"address","indexed":true,"internalType":"address"},{"name":"amount","type":"uint256","indexed":false,"internalType":"uint256"}],"anonymous":false},{"type":"error","name":"AccessControlBadConfirmation","inputs":[]},{"type":"error","name":"AccessControlUnauthorizedAccount","inputs":[{"name":"account","type":"address","internalType":"address"},{"name":"neededRole","type":"bytes32","internalType":"bytes32"}]},{"type":"error","name":"ERC20InsufficientAllowance","inputs":[{"name":"spender","type":"address","internalType":"address"},{"name":"allowance","type":"uint256","internalType":"uint256"},{"name":"needed","type":"uint256","internalType":"uint256"}]},{"type":"error","name":"ERC20InsufficientBalance","inputs":[{"name":"sender","type":"address","internalType":"address"},{"name":"balance","type":"uint256","internalType":"uint256"},{"name":"needed","type":"uint256","internalType":"uint256"}]},{"type":"error","name":"ERC20InvalidApprover","inputs":[{"name":"approver","type":"address","internalType":"address"}]},{"type":"error","name":"ERC20InvalidReceiver","inputs":[{"name":"receiver","type":"address","internalType":"address"}]},{"type":"error","name":"ERC20InvalidSender","inputs":[{"name":"sender","type":"address","internalType":"address"}]},{"type":"error","name":"ERC20InvalidSpender","inputs":[{"name":"spender","type":"address","internalType":"address"}]},{"type":"error","name":"SafeERC20FailedOperation","inputs":[{"name":"token","type":"address","internalType":"address"}]}],"bytecode":{"object":"0x60e060405234801561000f575f5ffd5b506040516120bb3803806120bb83398101604081905261002e91610365565b8181600361003c838261047f565b506004610049828261047f565b5050506001600160a01b0385166100a75760405162461bcd60e51b815260206004820152601f60248201527f5265776172645661756c743a207a65726f20617373657420616464726573730060448201526064015b60405180910390fd5b6001600160a01b03841661010d5760405162461bcd60e51b815260206004820152602760248201527f5265776172645661756c743a207a65726f207265776172647320746f6b656e206044820152666164647265737360c81b606482015260840161009e565b6001600160a01b0383166101715760405162461bcd60e51b815260206004820152602560248201527f5265776172645661756c743a207a65726f206469737472696275746f72206164604482015264647265737360d81b606482015260840161009e565b6001600160a01b0380861660805284811660a052831660c05260146006556103e860075561019f5f33610200565b506101ca7fa49807205ce4d355092ef5a8a18f56e8913cf4a201fbe287825b095693c2177533610200565b506101f57fcab5a0bfe0b79d2c4b1c2e02599fa044d115b7511f9659307cb427695096770933610200565b505050505050610539565b5f8281526005602090815260408083206001600160a01b038516845290915281205460ff166102a4575f8381526005602090815260408083206001600160a01b03861684529091529020805460ff1916600117905561025c3390565b6001600160a01b0316826001600160a01b0316847f2f8788117e7eff1d82e926ec794901d17c78024a50270940304540a733656f0d60405160405180910390a45060016102a7565b505f5b92915050565b80516001600160a01b03811681146102c3575f5ffd5b919050565b634e487b7160e01b5f52604160045260245ffd5b5f82601f8301126102eb575f5ffd5b81516001600160401b03811115610304576103046102c8565b604051601f8201601f19908116603f011681016001600160401b0381118282101715610332576103326102c8565b604052818152838201602001851015610349575f5ffd5b8160208501602083015e5f918101602001919091529392505050565b5f5f5f5f5f60a08688031215610379575f5ffd5b610382866102ad565b9450610390602087016102ad565b935061039e604087016102ad565b60608701519093506001600160401b038111156103b9575f5ffd5b6103c5888289016102dc565b608088015190935090506001600160401b038111156103e2575f5ffd5b6103ee888289016102dc565b9150509295509295909350565b600181811c9082168061040f57607f821691505b60208210810361042d57634e487b7160e01b5f52602260045260245ffd5b50919050565b601f82111561047a57805f5260205f20601f840160051c810160208510156104585750805b601f840160051c820191505b81811015610477575f8155600101610464565b50505b505050565b81516001600160401b03811115610498576104986102c8565b6104ac816104a684546103fb565b84610433565b6020601f8211600181146104de575f83156104c75750848201515b5f19600385901b1c1916600184901b178455610477565b5f84815260208120601f198516915b8281101561050d57878501518255602094850194600190920191016104ed565b508482101561052a57868401515f19600387901b60f8161c191681555b50505050600190811b01905550565b60805160a05160c051611af66105c55f395f8181610368015281816106ae0152818161098901528181610cdc01528181610d1701528181610f77015261119d01525f818161045f01528181610ac701528181610bad01528181610c850152610cba01525f818161032901528181610517015281816107c0015281816109430152610f260152611af65ff3fe608060405234801561000f575f5ffd5b50600436106101e7575f3560e01c80633f2a554011610109578063a217fddf1161009e578063d547741f1161006e578063d547741f14610481578063dd62ed3e14610494578063eb423733146104cc578063ef5cfb8c146104ed575f5ffd5b8063a217fddf1461042d578063a9059cbb14610434578063b6b55f2514610447578063d1af0c7d1461045a575f5ffd5b806375b238fc116100d957806375b238fc146103d85780638b4f3b2c146103ff57806391d148541461041257806395d89b4114610425575f5ffd5b80633f2a55401461036357806359974e381461038a5780635c4c47491461039d57806370a08231146103b0575f5ffd5b8063248a9ca31161017f5780632f2ff15d1161014f5780632f2ff15d146102ef578063313ce5671461030257806336568abe1461031157806338d52e0f14610324575f5ffd5b8063248a9ca31461029c578063252cf2d2146102be5780632552aa1f146102c75780632e1a7d4d146102da575f5ffd5b80630c7d5cd8116101ba5780630c7d5cd81461025157806318160ddd1461025a57806322459e181461026257806323b872dd14610289575f5ffd5b806301e1d114146101eb57806301ffc9a71461020657806306fdde0314610229578063095ea7b31461023e575b5f5ffd5b6101f3610500565b6040519081526020015b60405180910390f35b610219610214366004611749565b61058d565b60405190151581526020016101fd565b6102316105c3565b6040516101fd91906117a5565b61021961024c3660046117d2565b610653565b6101f360065481565b6002546101f3565b6101f37fcab5a0bfe0b79d2c4b1c2e02599fa044d115b7511f9659307cb427695096770981565b6102196102973660046117fa565b61066a565b6101f36102aa366004611834565b5f9081526005602052604090206001015490565b6101f360075481565b6101f36102d536600461184b565b61068d565b6102ed6102e8366004611834565b610719565b005b6102ed6102fd366004611864565b610a2f565b604051601281526020016101fd565b6102ed61031f366004611864565b610a59565b61034b7f000000000000000000000000000000000000000000000000000000000000000081565b6040516001600160a01b0390911681526020016101fd565b61034b7f000000000000000000000000000000000000000000000000000000000000000081565b6102ed610398366004611834565b610a91565b6102ed6103ab366004611834565b610d79565b6101f36103be36600461184b565b6001600160a01b03165f9081526020819052604090205490565b6101f37fa49807205ce4d355092ef5a8a18f56e8913cf4a201fbe287825b095693c2177581565b6102ed61040d366004611834565b610dea565b610219610420366004611864565b610ea3565b610231610ecd565b6101f35f81565b6102196104423660046117d2565b610edc565b6102ed610455366004611834565b610ee9565b61034b7f000000000000000000000000000000000000000000000000000000000000000081565b6102ed61048f366004611864565b61101b565b6101f36104a236600461188e565b6001600160a01b039182165f90815260016020908152604080832093909416825291909152205490565b6104df6104da3660046118ca565b61103f565b6040516101fd929190611987565b6101f36104fb36600461184b565b61117c565b6040516370a0823160e01b81523060048201525f907f00000000000000000000000000000000000000000000000000000000000000006001600160a01b0316906370a0823190602401602060405180830381865afa158015610564573d5f5f3e3d5ffd5b505050506040513d601f19601f8201168201806040525081019061058891906119a9565b905090565b5f6001600160e01b03198216637965db0b60e01b14806105bd57506301ffc9a760e01b6001600160e01b03198316145b92915050565b6060600380546105d2906119c0565b80601f01602080910402602001604051908101604052809291908181526020018280546105fe906119c0565b80156106495780601f1061062057610100808354040283529160200191610649565b820191905f5260205f20905b81548152906001019060200180831161062c57829003601f168201915b5050505050905090565b5f336106608185856111e5565b5060019392505050565b5f336106778582856111f2565b610682858585611255565b506001949350505050565b604051632552aa1f60e01b81526001600160a01b0382811660048301525f917f000000000000000000000000000000000000000000000000000000000000000090911690632552aa1f90602401602060405180830381865afa1580156106f5573d5f5f3e3d5ffd5b505050506040513d601f19601f820116820180604052508101906105bd91906119a9565b5f81116107415760405162461bcd60e51b8152600401610738906119f8565b60405180910390fd5b335f908152602081905260409020548111156107a95760405162461bcd60e51b815260206004820152602160248201527f5265776172645661756c743a20696e73756666696369656e742062616c616e636044820152606560f81b6064820152608401610738565b6040516370a0823160e01b81523060048201525f907f00000000000000000000000000000000000000000000000000000000000000006001600160a01b0316906370a0823190602401602060405180830381865afa15801561080d573d5f5f3e3d5ffd5b505050506040513d601f19601f8201168201806040525081019061083191906119a9565b90505f6064600654836108449190611a43565b61084e9190611a5a565b90508061085b8484611a79565b10156108b55760405162461bcd60e51b815260206004820152602360248201527f5265776172645661756c743a20696e73756666696369656e74206c697175696460448201526269747960e81b6064820152608401610738565b6007546108c28484611a79565b101561091c5760405162461bcd60e51b8152602060048201526024808201527f5265776172645661756c743a2062656c6f77206d696e696d756d206c697175696044820152636469747960e01b6064820152608401610738565b335f818152602081905260409020549061093690856112b2565b61096a6001600160a01b037f00000000000000000000000000000000000000000000000000000000000000001633866112ea565b335f818152602081905260409081902054905163acda95d760e01b81527f00000000000000000000000000000000000000000000000000000000000000006001600160a01b03169263acda95d7926109c792869190600401611a8c565b5f604051808303815f87803b1580156109de575f5ffd5b505af11580156109f0573d5f5f3e3d5ffd5b50506040518681523392507f884edad9ce6fa2440d8a54cc123490eb96d2768479d49ff9c7366125a9424364915060200160405180910390a250505050565b5f82815260056020526040902060010154610a4981611349565b610a538383611356565b50505050565b6001600160a01b0381163314610a825760405163334bd91960e11b815260040160405180910390fd5b610a8c82826113e7565b505050565b5f8111610ab05760405162461bcd60e51b8152600401610738906119f8565b6040516370a0823160e01b815233600482015281907f00000000000000000000000000000000000000000000000000000000000000006001600160a01b0316906370a0823190602401602060405180830381865afa158015610b14573d5f5f3e3d5ffd5b505050506040513d601f19601f82011682018060405250810190610b3891906119a9565b1015610b905760405162461bcd60e51b815260206004820152602160248201527f5265776172645661756c743a20696e73756666696369656e74207265776172646044820152607360f81b6064820152608401610738565b604051636eb1769f60e11b815233600482015230602482015281907f00000000000000000000000000000000000000000000000000000000000000006001600160a01b03169063dd62ed3e90604401602060405180830381865afa158015610bfa573d5f5f3e3d5ffd5b505050506040513d601f19601f82011682018060405250810190610c1e91906119a9565b1015610c785760405162461bcd60e51b815260206004820152602360248201527f5265776172645661756c743a20696e73756666696369656e7420616c6c6f77616044820152626e636560e81b6064820152608401610738565b610cad6001600160a01b037f000000000000000000000000000000000000000000000000000000000000000016333084611452565b610d016001600160a01b037f0000000000000000000000000000000000000000000000000000000000000000167f0000000000000000000000000000000000000000000000000000000000000000836112ea565b604051630b32e9c760e31b8152600481018290527f00000000000000000000000000000000000000000000000000000000000000006001600160a01b0316906359974e38906024015f604051808303815f87803b158015610d60575f5ffd5b505af1158015610d72573d5f5f3e3d5ffd5b5050505050565b7fa49807205ce4d355092ef5a8a18f56e8913cf4a201fbe287825b095693c21775610da381611349565b600780549083905560408051828152602081018590527fe09ad1fca5dae514ab1d87e918fe6b529f0b7218b994004ea4470850578d6fb491015b60405180910390a1505050565b7fa49807205ce4d355092ef5a8a18f56e8913cf4a201fbe287825b095693c21775610e1481611349565b6064821115610e655760405162461bcd60e51b815260206004820152601a60248201527f5265776172645661756c743a20696e76616c696420726174696f0000000000006044820152606401610738565b600680549083905560408051828152602081018590527fb703c9ac1160216a336ac08fb2eafb92d70a68ab437c5848b7250176078122be9101610ddd565b5f9182526005602090815260408084206001600160a01b0393909316845291905290205460ff1690565b6060600480546105d2906119c0565b5f33610660818585611255565b5f8111610f085760405162461bcd60e51b8152600401610738906119f8565b335f908152602081905260408120549050610f4e6001600160a01b037f000000000000000000000000000000000000000000000000000000000000000016333085611452565b610f58338361148b565b335f818152602081905260409081902054905163acda95d760e01b81527f00000000000000000000000000000000000000000000000000000000000000006001600160a01b03169263acda95d792610fb592869190600401611a8c565b5f604051808303815f87803b158015610fcc575f5ffd5b505af1158015610fde573d5f5f3e3d5ffd5b50506040518481523392507fe1fffcc4923d04b559f4d29a8bfc6cda04eb5b0d3c460751c2402c5c5cc9109c915060200160405180910390a25050565b5f8281526005602052604090206001015461103581611349565b610a5383836113e7565b5f60607fcab5a0bfe0b79d2c4b1c2e02599fa044d115b7511f9659307cb427695096770961106c81611349565b846001036110ff575f8480602001905181019061108991906119a9565b6006805490829055604080518281526020810184905292935090917fb703c9ac1160216a336ac08fb2eafb92d70a68ab437c5848b7250176078122be91015b60405180910390a16001826040516020016110e591815260200190565b604051602081830303815290604052945094505050611174565b8460020361115f575f8480602001905181019061111c91906119a9565b6007805490829055604080518281526020810184905292935090917fe09ad1fca5dae514ab1d87e918fe6b529f0b7218b994004ea4470850578d6fb491016110c8565b5f60405180602001604052805f815250925092505b509250929050565b604051633bd73ee360e21b81526001600160a01b0382811660048301525f917f00000000000000000000000000000000000000000000000000000000000000009091169063ef5cfb8c906024016020604051808303815f875af11580156106f5573d5f5f3e3d5ffd5b610a8c83838360016114bf565b6001600160a01b038381165f908152600160209081526040808320938616835292905220545f19811015610a53578181101561124757828183604051637dc7a0d960e11b815260040161073893929190611a8c565b610a5384848484035f6114bf565b6001600160a01b03831661127e57604051634b637e8f60e11b81525f6004820152602401610738565b6001600160a01b0382166112a75760405163ec442f0560e01b81525f6004820152602401610738565b610a8c838383611591565b6001600160a01b0382166112db57604051634b637e8f60e11b81525f6004820152602401610738565b6112e6825f83611591565b5050565b6040516001600160a01b03838116602483015260448201839052610a8c91859182169063a9059cbb906064015b604051602081830303815290604052915060e01b6020820180516001600160e01b0383818316178352505050506116a4565b6113538133611710565b50565b5f6113618383610ea3565b6113e0575f8381526005602090815260408083206001600160a01b03861684529091529020805460ff191660011790556113983390565b6001600160a01b0316826001600160a01b0316847f2f8788117e7eff1d82e926ec794901d17c78024a50270940304540a733656f0d60405160405180910390a45060016105bd565b505f6105bd565b5f6113f28383610ea3565b156113e0575f8381526005602090815260408083206001600160a01b0386168085529252808320805460ff1916905551339286917ff6391f5c32d9c69d2a47ea670b442974b53935d1edc7fd64eb21e047a839171b9190a45060016105bd565b6040516001600160a01b038481166024830152838116604483015260648201839052610a539186918216906323b872dd90608401611317565b6001600160a01b0382166114b45760405163ec442f0560e01b81525f6004820152602401610738565b6112e65f8383611591565b6001600160a01b0384166114e85760405163e602df0560e01b81525f6004820152602401610738565b6001600160a01b03831661151157604051634a1406b160e11b81525f6004820152602401610738565b6001600160a01b038085165f9081526001602090815260408083209387168352929052208290558015610a5357826001600160a01b0316846001600160a01b03167f8c5be1e5ebec7d5bd14f71427d1e84f3dd0314c0f7b2291e5b200ac8c7c3b9258460405161158391815260200190565b60405180910390a350505050565b6001600160a01b0383166115bb578060025f8282546115b09190611aad565b909155506116189050565b6001600160a01b0383165f90815260208190526040902054818110156115fa5783818360405163391434e360e21b815260040161073893929190611a8c565b6001600160a01b0384165f9081526020819052604090209082900390555b6001600160a01b03821661163457600280548290039055611652565b6001600160a01b0382165f9081526020819052604090208054820190555b816001600160a01b0316836001600160a01b03167fddf252ad1be2c89b69c2b068fc378daa952ba7f163c4a11628f55a4df523b3ef8360405161169791815260200190565b60405180910390a3505050565b5f5f60205f8451602086015f885af1806116c3576040513d5f823e3d81fd5b50505f513d915081156116da5780600114156116e7565b6001600160a01b0384163b155b15610a5357604051635274afe760e01b81526001600160a01b0385166004820152602401610738565b61171a8282610ea3565b6112e65760405163e2517d3f60e01b81526001600160a01b038216600482015260248101839052604401610738565b5f60208284031215611759575f5ffd5b81356001600160e01b031981168114611770575f5ffd5b9392505050565b5f81518084528060208401602086015e5f602082860101526020601f19601f83011685010191505092915050565b602081525f6117706020830184611777565b80356001600160a01b03811681146117cd575f5ffd5b919050565b5f5f604083850312156117e3575f5ffd5b6117ec836117b7565b946020939093013593505050565b5f5f5f6060848603121561180c575f5ffd5b611815846117b7565b9250611823602085016117b7565b929592945050506040919091013590565b5f60208284031215611844575f5ffd5b5035919050565b5f6020828403121561185b575f5ffd5b611770826117b7565b5f5f60408385031215611875575f5ffd5b82359150611885602084016117b7565b90509250929050565b5f5f6040838503121561189f575f5ffd5b6118a8836117b7565b9150611885602084016117b7565b634e487b7160e01b5f52604160045260245ffd5b5f5f604083850312156118db575f5ffd5b82359150602083013567ffffffffffffffff8111156118f8575f5ffd5b8301601f81018513611908575f5ffd5b803567ffffffffffffffff811115611922576119226118b6565b604051601f8201601f19908116603f0116810167ffffffffffffffff81118282101715611951576119516118b6565b604052818152828201602001871015611968575f5ffd5b816020840160208301375f602083830101528093505050509250929050565b8215158152604060208201525f6119a16040830184611777565b949350505050565b5f602082840312156119b9575f5ffd5b5051919050565b600181811c908216806119d457607f821691505b6020821081036119f257634e487b7160e01b5f52602260045260245ffd5b50919050565b60208082526018908201527f5265776172645661756c743a207a65726f20616d6f756e740000000000000000604082015260600190565b634e487b7160e01b5f52601160045260245ffd5b80820281158282048414176105bd576105bd611a2f565b5f82611a7457634e487b7160e01b5f52601260045260245ffd5b500490565b818103818111156105bd576105bd611a2f565b6001600160a01b039390931683526020830191909152604082015260600190565b808201808211156105bd576105bd611a2f56fea2646970667358221220958783fcd64e8439f40b4a0592f111498dbc6a87270d1c212f352b32915e8b9c64736f6c634300081b0033","linkReferences":{}},"methodIdentifiers":{"ADMIN_ROLE()":"75b238fc","AGENT_ROLE()":"22459e18","DEFAULT_ADMIN_ROLE()":"a217fddf","allowance(address,address)":"dd62ed3e","approve(address,uint256)":"095ea7b3","asset()":"38d52e0f","balanceOf(address)":"70a08231","claimRewards(address)":"ef5cfb8c","decimals()":"313ce567","deposit(uint256)":"b6b55f25","distributeRewards(uint256)":"59974e38","executeAgentAction(uint256,bytes)":"eb423733","getAccruedRewards(address)":"2552aa1f","getRoleAdmin(bytes32)":"248a9ca3","grantRole(bytes32,address)":"2f2ff15d","hasRole(bytes32,address)":"91d14854","minLiquidity()":"252cf2d2","name()":"06fdde03","renounceRole(bytes32,address)":"36568abe","reserveRatio()":"0c7d5cd8","revokeRole(bytes32,address)":"d547741f","rewardsDistributor()":"3f2a5540","rewardsToken()":"d1af0c7d","setMinLiquidity(uint256)":"5c4c4749","setReserveRatio(uint256)":"8b4f3b2c","supportsInterface(bytes4)":"01ffc9a7","symbol()":"95d89b41","totalAssets()":"01e1d114","totalSupply()":"18160ddd","transfer(address,uint256)":"a9059cbb","transferFrom(address,address,uint256)":"23b872dd","withdraw(uint256)":"2e1a7d4d"},"id":36}