{"abi":[{"type":"constructor","inputs":[{"name":"_balancerVault","type":"address","internalType":"address"},{"name":"_vault","type":"address","internalType":"address"}],"stateMutability":"nonpayable"},{"type":"function","name":"addLiquidity","inputs":[{"name":"poolId","type":"bytes32","internalType":"bytes32"},{"name":"assets","type":"address[]","internalType":"contract IAsset[]"},{"name":"maxAmountsIn","type":"uint256[]","internalType":"uint256[]"},{"name":"userData","type":"bytes","internalType":"bytes"}],"outputs":[{"name":"","type":"uint256[]","internalType":"uint256[]"}],"stateMutability":"nonpayable"},{"type":"function","name":"balancerVault","inputs":[],"outputs":[{"name":"","type":"address","internalType":"contract IBalancerV2Vault"}],"stateMutability":"view"},{"type":"function","name":"claimRewards","inputs":[{"name":"to","type":"address","internalType":"address"}],"outputs":[{"name":"","type":"uint256","internalType":"uint256"}],"stateMutability":"nonpayable"},{"type":"function","name":"deposit","inputs":[{"name":"asset","type":"address","internalType":"address"},{"name":"amount","type":"uint256","internalType":"uint256"}],"outputs":[{"name":"","type":"uint256","internalType":"uint256"}],"stateMutability":"nonpayable"},{"type":"function","name":"getBalance","inputs":[{"name":"asset","type":"address","internalType":"address"}],"outputs":[{"name":"","type":"uint256","internalType":"uint256"}],"stateMutability":"view"},{"type":"function","name":"removeLiquidity","inputs":[{"name":"poolId","type":"bytes32","internalType":"bytes32"},{"name":"assets","type":"address[]","internalType":"contract IAsset[]"},{"name":"minAmountsOut","type":"uint256[]","internalType":"uint256[]"},{"name":"userData","type":"bytes","internalType":"bytes"}],"outputs":[{"name":"","type":"uint256[]","internalType":"uint256[]"}],"stateMutability":"nonpayable"},{"type":"function","name":"vault","inputs":[],"outputs":[{"name":"","type":"address","internalType":"address"}],"stateMutability":"view"},{"type":"function","name":"withdraw","inputs":[{"name":"asset","type":"address","internalType":"address"},{"name":"amount","type":"uint256","internalType":"uint256"}],"outputs":[{"name":"","type":"uint256","internalType":"uint256"}],"stateMutability":"nonpayable"},{"type":"error","name":"SafeERC20FailedOperation","inputs":[{"name":"token","type":"address","internalType":"address"}]}],"bytecode":{"object":"0x60c060405234801561000f575f5ffd5b50604051610e41380380610e4183398101604081905261002e9161011d565b6001600160a01b0382166100895760405162461bcd60e51b815260206004820152601e60248201527f42616c616e63657253747261746567793a207a65726f2061646472657373000060448201526064015b60405180910390fd5b6001600160a01b0381166100eb5760405162461bcd60e51b8152602060048201526024808201527f42616c616e63657253747261746567793a207a65726f207661756c74206164646044820152637265737360e01b6064820152608401610080565b6001600160a01b0391821660a0521660805261014e565b80516001600160a01b0381168114610118575f5ffd5b919050565b5f5f6040838503121561012e575f5ffd5b61013783610102565b915061014560208401610102565b90509250929050565b60805160a051610c8d6101b45f395f818160b70152818161023601528181610260015281816102f2015261048901525f81816101500152818161017f01528181610323015281816103a5015281816103f5015281816104ba01526104f00152610c8d5ff3fe608060405234801561000f575f5ffd5b5060043610610085575f3560e01c8063ef5cfb8c11610058578063ef5cfb8c14610125578063f3fef3a3146100f1578063f8b2cb4f14610138578063fbfa77cf1461014b575f5ffd5b8063038f505d14610089578063158274a5146100b257806347e7ef24146100f1578063b2fe128014610112575b5f5ffd5b61009c610097366004610861565b610172565b6040516100a99190610959565b60405180910390f35b6100d97f000000000000000000000000000000000000000000000000000000000000000081565b6040516001600160a01b0390911681526020016100a9565b6101046100ff36600461099b565b610399565b6040519081526020016100a9565b61009c610120366004610861565b6103e8565b6101046101333660046109c5565b6104e4565b6101046101463660046109c5565b610534565b6100d97f000000000000000000000000000000000000000000000000000000000000000081565b6060336001600160a01b037f000000000000000000000000000000000000000000000000000000000000000016146101c55760405162461bcd60e51b81526004016101bc906109e7565b60405180910390fd5b82518451146101e65760405162461bcd60e51b81526004016101bc90610a30565b5f5b84518110156102bb575f85828151811061020457610204610a71565b602002602001015190505f6001600160a01b0316816001600160a01b0316146102b25761025b6001600160a01b0382167f00000000000000000000000000000000000000000000000000000000000000005f6105a2565b6102b27f000000000000000000000000000000000000000000000000000000000000000086848151811061029157610291610a71565b6020026020010151836001600160a01b03166105a29092919063ffffffff16565b506001016101e8565b5060408051608081018252858152602081018590528082018490525f6060820152905163172b958560e31b81526001600160a01b037f0000000000000000000000000000000000000000000000000000000000000000169063b95cac289061034d90899030907f0000000000000000000000000000000000000000000000000000000000000000908790600401610b88565b5f604051808303815f875af1158015610368573d5f5f3e3d5ffd5b505050506040513d5f823e601f3d908101601f1916820160405261038f9190810190610bb9565b9695505050505050565b5f336001600160a01b037f000000000000000000000000000000000000000000000000000000000000000016146103e25760405162461bcd60e51b81526004016101bc906109e7565b50919050565b6060336001600160a01b037f000000000000000000000000000000000000000000000000000000000000000016146104325760405162461bcd60e51b81526004016101bc906109e7565b82518451146104535760405162461bcd60e51b81526004016101bc90610a30565b60408051608081018252858152602081018590528082018490525f60608201529051638bdb391360e01b81526001600160a01b037f00000000000000000000000000000000000000000000000000000000000000001690638bdb39139061034d90899030907f0000000000000000000000000000000000000000000000000000000000000000908790600401610b88565b5f336001600160a01b037f0000000000000000000000000000000000000000000000000000000000000000161461052d5760405162461bcd60e51b81526004016101bc906109e7565b505f919050565b6040516370a0823160e01b81523060048201525f906001600160a01b038316906370a0823190602401602060405180830381865afa158015610578573d5f5f3e3d5ffd5b505050506040513d601f19601f8201168201806040525081019061059c9190610c40565b92915050565b604080516001600160a01b038416602482015260448082018490528251808303909101815260649091019091526020810180516001600160e01b031663095ea7b360e01b1790526105f3848261065b565b61065557604080516001600160a01b03851660248201525f6044808301919091528251808303909101815260649091019091526020810180516001600160e01b031663095ea7b360e01b17905261064b9085906106a0565b61065584826106a0565b50505050565b5f5f5f5f60205f8651602088015f8a5af192503d91505f51905082801561038f5750811561068c578060011461038f565b50505050506001600160a01b03163b151590565b5f5f60205f8451602086015f885af1806106bf576040513d5f823e3d81fd5b50505f513d915081156106d65780600114156106e3565b6001600160a01b0384163b155b1561065557604051635274afe760e01b81526001600160a01b03851660048201526024016101bc565b634e487b7160e01b5f52604160045260245ffd5b604051601f8201601f1916810167ffffffffffffffff811182821017156107495761074961070c565b604052919050565b5f67ffffffffffffffff82111561076a5761076a61070c565b5060051b60200190565b6001600160a01b0381168114610788575f5ffd5b50565b5f82601f83011261079a575f5ffd5b81356107ad6107a882610751565b610720565b8082825260208201915060208360051b8601019250858311156107ce575f5ffd5b602085015b838110156107eb5780358352602092830192016107d3565b5095945050505050565b5f82601f830112610804575f5ffd5b813567ffffffffffffffff81111561081e5761081e61070c565b610831601f8201601f1916602001610720565b818152846020838601011115610845575f5ffd5b816020850160208301375f918101602001919091529392505050565b5f5f5f5f60808587031215610874575f5ffd5b84359350602085013567ffffffffffffffff811115610891575f5ffd5b8501601f810187136108a1575f5ffd5b80356108af6107a882610751565b8082825260208201915060208360051b8501019250898311156108d0575f5ffd5b6020840193505b828410156108fb5783356108ea81610774565b8252602093840193909101906108d7565b9550505050604085013567ffffffffffffffff811115610919575f5ffd5b6109258782880161078b565b925050606085013567ffffffffffffffff811115610941575f5ffd5b61094d878288016107f5565b91505092959194509250565b602080825282518282018190525f918401906040840190835b81811015610990578351835260209384019390920191600101610972565b509095945050505050565b5f5f604083850312156109ac575f5ffd5b82356109b781610774565b946020939093013593505050565b5f602082840312156109d5575f5ffd5b81356109e081610774565b9392505050565b60208082526029908201527f42616c616e63657253747261746567793a2063616c6c6572206973206e6f74206040820152681d1a19481d985d5b1d60ba1b606082015260800190565b60208082526021908201527f42616c616e63657253747261746567793a206c656e677468206d69736d6174636040820152600d60fb1b606082015260800190565b634e487b7160e01b5f52603260045260245ffd5b5f8151808452602084019350602083015f5b82811015610ab5578151865260209586019590910190600101610a97565b5093949350505050565b5f81518084528060208401602086015e5f602082860101526020601f19601f83011685010191505092915050565b8051608080845281519084018190525f9160200190829060a08601905b80831015610b355783516001600160a01b031682526020938401936001939093019290910190610b0a565b50602085015192508581036020870152610b4f8184610a85565b9250505060408301518482036040860152610b6a8282610abf565b9150506060830151610b80606086018215159052565b509392505050565b8481526001600160a01b038481166020830152831660408201526080606082018190525f9061038f90830184610aed565b5f60208284031215610bc9575f5ffd5b815167ffffffffffffffff811115610bdf575f5ffd5b8201601f81018413610bef575f5ffd5b8051610bfd6107a882610751565b8082825260208201915060208360051b850101925086831115610c1e575f5ffd5b6020840193505b8284101561038f578351825260209384019390910190610c25565b5f60208284031215610c50575f5ffd5b505191905056fea2646970667358221220bc0172e81848a588626168284ac5af0d390e33f62ebdf5938fd1ad55cf6fa95564736f6c634300081b0033","linkReferences":{}},"methodIdentifiers":{"addLiquidity(bytes32,address[],uint256[],bytes)":"038f505d","balancerVault()":"158274a5","claimRewards(address)":"ef5cfb8c","deposit(address,uint256)":"47e7ef24","getBalance(address)":"f8b2cb4f","removeLiquidity(bytes32,address[],uint256[],bytes)":"b2fe1280","vault()":"fbfa77cf","withdraw(address,uint256)":"f3fef3a3"},"id":44}