{"abi":[{"type":"constructor","inputs":[{"name":"_vault","type":"address","internalType":"address"},{"name":"_balancerVault","type":"address","internalType":"address"},{"name":"_supportedAssets","type":"address[]","internalType":"address[]"}],"stateMutability":"nonpayable"},{"type":"function","name":"AGENT_ROLE","inputs":[],"outputs":[{"name":"","type":"bytes32","internalType":"bytes32"}],"stateMutability":"view"},{"type":"function","name":"DEFAULT_ADMIN_ROLE","inputs":[],"outputs":[{"name":"","type":"bytes32","internalType":"bytes32"}],"stateMutability":"view"},{"type":"function","name":"GUARDIAN_ROLE","inputs":[],"outputs":[{"name":"","type":"bytes32","internalType":"bytes32"}],"stateMutability":"view"},{"type":"function","name":"VAULT_ROLE","inputs":[],"outputs":[{"name":"","type":"bytes32","internalType":"bytes32"}],"stateMutability":"view"},{"type":"function","name":"actionNames","inputs":[{"name":"","type":"uint256","internalType":"uint256"}],"outputs":[{"name":"","type":"string","internalType":"string"}],"stateMutability":"view"},{"type":"function","name":"activePools","inputs":[{"name":"","type":"bytes32","internalType":"bytes32"}],"outputs":[{"name":"","type":"bool","internalType":"bool"}],"stateMutability":"view"},{"type":"function","name":"addLiquidity","inputs":[{"name":"poolId","type":"bytes32","internalType":"bytes32"},{"name":"assets","type":"address[]","internalType":"contract IAsset[]"},{"name":"maxAmountsIn","type":"uint256[]","internalType":"uint256[]"},{"name":"userData","type":"bytes","internalType":"bytes"}],"outputs":[{"name":"","type":"uint256[]","internalType":"uint256[]"}],"stateMutability":"nonpayable"},{"type":"function","name":"addPool","inputs":[{"name":"poolId","type":"bytes32","internalType":"bytes32"}],"outputs":[],"stateMutability":"nonpayable"},{"type":"function","name":"addSupportedAsset","inputs":[{"name":"asset","type":"address","internalType":"address"}],"outputs":[],"stateMutability":"nonpayable"},{"type":"function","name":"balancerVault","inputs":[],"outputs":[{"name":"","type":"address","internalType":"contract IBalancerV2Vault"}],"stateMutability":"view"},{"type":"function","name":"claimRewards","inputs":[{"name":"to","type":"address","internalType":"address"}],"outputs":[{"name":"","type":"uint256","internalType":"uint256"}],"stateMutability":"nonpayable"},{"type":"function","name":"deposit","inputs":[{"name":"asset","type":"address","internalType":"address"},{"name":"amount","type":"uint256","internalType":"uint256"}],"outputs":[{"name":"","type":"uint256","internalType":"uint256"}],"stateMutability":"nonpayable"},{"type":"function","name":"description","inputs":[],"outputs":[{"name":"","type":"string","internalType":"string"}],"stateMutability":"view"},{"type":"function","name":"emergencyRecipient","inputs":[],"outputs":[{"name":"","type":"address","internalType":"address"}],"stateMutability":"view"},{"type":"function","name":"emergencyWithdraw","inputs":[{"name":"asset","type":"address","internalType":"address"}],"outputs":[],"stateMutability":"nonpayable"},{"type":"function","name":"executeStrategy","inputs":[{"name":"actionId","type":"uint256","internalType":"uint256"},{"name":"data","type":"bytes","internalType":"bytes"}],"outputs":[{"name":"success","type":"bool","internalType":"bool"},{"name":"result","type":"bytes","internalType":"bytes"}],"stateMutability":"nonpayable"},{"type":"function","name":"getActivePools","inputs":[],"outputs":[{"name":"","type":"bytes32[]","internalType":"bytes32[]"}],"stateMutability":"view"},{"type":"function","name":"getAvailableActions","inputs":[],"outputs":[{"name":"actionIds","type":"uint256[]","internalType":"uint256[]"},{"name":"names","type":"string[]","internalType":"string[]"},{"name":"descriptions","type":"string[]","internalType":"string[]"}],"stateMutability":"view"},{"type":"function","name":"getBalance","inputs":[{"name":"asset","type":"address","internalType":"address"}],"outputs":[{"name":"","type":"uint256","internalType":"uint256"}],"stateMutability":"view"},{"type":"function","name":"getPerformanceMetrics","inputs":[],"outputs":[{"name":"apy","type":"uint256","internalType":"uint256"},{"name":"tvl","type":"uint256","internalType":"uint256"},{"name":"risk","type":"uint8","internalType":"uint8"}],"stateMutability":"view"},{"type":"function","name":"getRoleAdmin","inputs":[{"name":"role","type":"bytes32","internalType":"bytes32"}],"outputs":[{"name":"","type":"bytes32","internalType":"bytes32"}],"stateMutability":"view"},{"type":"function","name":"getStrategyInfo","inputs":[],"outputs":[{"name":"","type":"string","internalType":"string"},{"name":"","type":"string","internalType":"string"},{"name":"","type":"string","internalType":"string"},{"name":"","type":"address[]","internalType":"address[]"}],"stateMutability":"view"},{"type":"function","name":"grantAgentRole","inputs":[{"name":"agent","type":"address","internalType":"address"}],"outputs":[],"stateMutability":"nonpayable"},{"type":"function","name":"grantGuardianRole","inputs":[{"name":"guardian","type":"address","internalType":"address"}],"outputs":[],"stateMutability":"nonpayable"},{"type":"function","name":"grantRole","inputs":[{"name":"role","type":"bytes32","internalType":"bytes32"},{"name":"account","type":"address","internalType":"address"}],"outputs":[],"stateMutability":"nonpayable"},{"type":"function","name":"hasRole","inputs":[{"name":"role","type":"bytes32","internalType":"bytes32"},{"name":"account","type":"address","internalType":"address"}],"outputs":[{"name":"","type":"bool","internalType":"bool"}],"stateMutability":"view"},{"type":"function","name":"historicalReturns","inputs":[],"outputs":[{"name":"","type":"uint256","internalType":"uint256"}],"stateMutability":"view"},{"type":"function","name":"lastRebalanceTimestamp","inputs":[],"outputs":[{"name":"","type":"uint256","internalType":"uint256"}],"stateMutability":"view"},{"type":"function","name":"name","inputs":[],"outputs":[{"name":"","type":"string","internalType":"string"}],"stateMutability":"view"},{"type":"function","name":"pause","inputs":[],"outputs":[],"stateMutability":"nonpayable"},{"type":"function","name":"paused","inputs":[],"outputs":[{"name":"","type":"bool","internalType":"bool"}],"stateMutability":"view"},{"type":"function","name":"poolEntryTimestamps","inputs":[{"name":"","type":"bytes32","internalType":"bytes32"}],"outputs":[{"name":"","type":"uint256","internalType":"uint256"}],"stateMutability":"view"},{"type":"function","name":"poolEntryValues","inputs":[{"name":"","type":"bytes32","internalType":"bytes32"}],"outputs":[{"name":"","type":"uint256","internalType":"uint256"}],"stateMutability":"view"},{"type":"function","name":"poolIds","inputs":[{"name":"","type":"uint256","internalType":"uint256"}],"outputs":[{"name":"","type":"bytes32","internalType":"bytes32"}],"stateMutability":"view"},{"type":"function","name":"removeLiquidity","inputs":[{"name":"poolId","type":"bytes32","internalType":"bytes32"},{"name":"assets","type":"address[]","internalType":"contract IAsset[]"},{"name":"minAmountsOut","type":"uint256[]","internalType":"uint256[]"},{"name":"userData","type":"bytes","internalType":"bytes"}],"outputs":[{"name":"","type":"uint256[]","internalType":"uint256[]"}],"stateMutability":"nonpayable"},{"type":"function","name":"removePool","inputs":[{"name":"poolId","type":"bytes32","internalType":"bytes32"}],"outputs":[],"stateMutability":"nonpayable"},{"type":"function","name":"removeSupportedAsset","inputs":[{"name":"asset","type":"address","internalType":"address"}],"outputs":[],"stateMutability":"nonpayable"},{"type":"function","name":"renounceRole","inputs":[{"name":"role","type":"bytes32","internalType":"bytes32"},{"name":"callerConfirmation","type":"address","internalType":"address"}],"outputs":[],"stateMutability":"nonpayable"},{"type":"function","name":"revokeAgentRole","inputs":[{"name":"agent","type":"address","internalType":"address"}],"outputs":[],"stateMutability":"nonpayable"},{"type":"function","name":"revokeGuardianRole","inputs":[{"name":"guardian","type":"address","internalType":"address"}],"outputs":[],"stateMutability":"nonpayable"},{"type":"function","name":"revokeRole","inputs":[{"name":"role","type":"bytes32","internalType":"bytes32"},{"name":"account","type":"address","internalType":"address"}],"outputs":[],"stateMutability":"nonpayable"},{"type":"function","name":"riskLevel","inputs":[],"outputs":[{"name":"","type":"uint8","internalType":"uint8"}],"stateMutability":"view"},{"type":"function","name":"setEmergencyRecipient","inputs":[{"name":"_emergencyRecipient","type":"address","internalType":"address"}],"outputs":[],"stateMutability":"nonpayable"},{"type":"function","name":"supportedAssets","inputs":[{"name":"","type":"uint256","internalType":"uint256"}],"outputs":[{"name":"","type":"address","internalType":"address"}],"stateMutability":"view"},{"type":"function","name":"supportsInterface","inputs":[{"name":"interfaceId","type":"bytes4","internalType":"bytes4"}],"outputs":[{"name":"","type":"bool","internalType":"bool"}],"stateMutability":"view"},{"type":"function","name":"totalDeposited","inputs":[],"outputs":[{"name":"","type":"uint256","internalType":"uint256"}],"stateMutability":"view"},{"type":"function","name":"totalWithdrawn","inputs":[],"outputs":[{"name":"","type":"uint256","internalType":"uint256"}],"stateMutability":"view"},{"type":"function","name":"unpause","inputs":[],"outputs":[],"stateMutability":"nonpayable"},{"type":"function","name":"validateAction","inputs":[{"name":"actionId","type":"uint256","internalType":"uint256"},{"name":"data","type":"bytes","internalType":"bytes"}],"outputs":[{"name":"isValid","type":"bool","internalType":"bool"},{"name":"reason","type":"string","internalType":"string"}],"stateMutability":"view"},{"type":"function","name":"vault","inputs":[],"outputs":[{"name":"","type":"address","internalType":"address"}],"stateMutability":"view"},{"type":"function","name":"version","inputs":[],"outputs":[{"name":"","type":"string","internalType":"string"}],"stateMutability":"view"},{"type":"function","name":"withdraw","inputs":[{"name":"asset","type":"address","internalType":"address"},{"name":"amount","type":"uint256","internalType":"uint256"}],"outputs":[{"name":"","type":"uint256","internalType":"uint256"}],"stateMutability":"nonpayable"},{"type":"event","name":"AssetAdded","inputs":[{"name":"asset","type":"address","indexed":true,"internalType":"address"}],"anonymous":false},{"type":"event","name":"AssetRemoved","inputs":[{"name":"asset","type":"address","indexed":true,"internalType":"address"}],"anonymous":false},{"type":"event","name":"BalRewardsClaimed","inputs":[{"name":"amount","type":"uint256","indexed":false,"internalType":"uint256"},{"name":"recipient","type":"address","indexed":false,"internalType":"address"}],"anonymous":false},{"type":"event","name":"EmergencyWithdrawal","inputs":[{"name":"asset","type":"address","indexed":true,"internalType":"address"},{"name":"amount","type":"uint256","indexed":false,"internalType":"uint256"},{"name":"recipient","type":"address","indexed":false,"internalType":"address"}],"anonymous":false},{"type":"event","name":"LiquidityAdded","inputs":[{"name":"poolId","type":"bytes32","indexed":true,"internalType":"bytes32"},{"name":"amountsIn","type":"uint256[]","indexed":false,"internalType":"uint256[]"}],"anonymous":false},{"type":"event","name":"LiquidityRemoved","inputs":[{"name":"poolId","type":"bytes32","indexed":true,"internalType":"bytes32"},{"name":"amountsOut","type":"uint256[]","indexed":false,"internalType":"uint256[]"}],"anonymous":false},{"type":"event","name":"Paused","inputs":[{"name":"account","type":"address","indexed":false,"internalType":"address"}],"anonymous":false},{"type":"event","name":"PoolAdded","inputs":[{"name":"poolId","type":"bytes32","indexed":true,"internalType":"bytes32"}],"anonymous":false},{"type":"event","name":"PoolRebalanced","inputs":[{"name":"poolId","type":"bytes32","indexed":true,"internalType":"bytes32"},{"name":"timestamp","type":"uint256","indexed":false,"internalType":"uint256"}],"anonymous":false},{"type":"event","name":"PoolRemoved","inputs":[{"name":"poolId","type":"bytes32","indexed":true,"internalType":"bytes32"}],"anonymous":false},{"type":"event","name":"RebalancePerformed","inputs":[{"name":"timestamp","type":"uint256","indexed":false,"internalType":"uint256"}],"anonymous":false},{"type":"event","name":"RoleAdminChanged","inputs":[{"name":"role","type":"bytes32","indexed":true,"internalType":"bytes32"},{"name":"previousAdminRole","type":"bytes32","indexed":true,"internalType":"bytes32"},{"name":"newAdminRole","type":"bytes32","indexed":true,"internalType":"bytes32"}],"anonymous":false},{"type":"event","name":"RoleGranted","inputs":[{"name":"role","type":"bytes32","indexed":true,"internalType":"bytes32"},{"name":"account","type":"address","indexed":true,"internalType":"address"},{"name":"sender","type":"address","indexed":true,"internalType":"address"}],"anonymous":false},{"type":"event","name":"RoleRevoked","inputs":[{"name":"role","type":"bytes32","indexed":true,"internalType":"bytes32"},{"name":"account","type":"address","indexed":true,"internalType":"address"},{"name":"sender","type":"address","indexed":true,"internalType":"address"}],"anonymous":false},{"type":"event","name":"StrategyExecuted","inputs":[{"name":"actionId","type":"uint256","indexed":true,"internalType":"uint256"},{"name":"success","type":"bool","indexed":false,"internalType":"bool"}],"anonymous":false},{"type":"event","name":"Unpaused","inputs":[{"name":"account","type":"address","indexed":false,"internalType":"address"}],"anonymous":false},{"type":"error","name":"AccessControlBadConfirmation","inputs":[]},{"type":"error","name":"AccessControlUnauthorizedAccount","inputs":[{"name":"account","type":"address","internalType":"address"},{"name":"neededRole","type":"bytes32","internalType":"bytes32"}]},{"type":"error","name":"EnforcedPause","inputs":[]},{"type":"error","name":"ExpectedPause","inputs":[]},{"type":"error","name":"ReentrancyGuardReentrantCall","inputs":[]},{"type":"error","name":"SafeERC20FailedOperation","inputs":[{"name":"token","type":"address","internalType":"address"}]}],"bytecode":{"object":"0x60c060405234801561000f575f5ffd5b5060405161486338038061486383398101604081905261002e916107f2565b826040518060400160405280601481526020017f42616c616e636572204c5020537472617465677900000000000000000000000081525060405180606001604052806035815260200161482e603591396040805180820190915260058152640312e302e360dc1b6020820152600180556002805460ff191690558460036001600160a01b0386166101165760405162461bcd60e51b815260206004820152602760248201527f4261736553747261746567793a207661756c7420697320746865207a65726f206044820152666164647265737360c81b60648201526084015b60405180910390fd5b60018160ff161015801561012e575060058160ff1611155b6101885760405162461bcd60e51b815260206004820152602560248201527f4261736553747261746567793a207269736b206c6576656c206f7574206f662060448201526472616e676560d81b606482015260840161010d565b6001600160a01b03861660805260036101a18682610963565b5060046101ae8582610963565b5060056101bb8482610963565b5081516101cf906006906020850190610713565b50600b805460ff191660ff83161790556101e95f8761066a565b506102147f31e0210044b4f6757ce6aa31f9c6e8d4896d24a755014887391a926c5224d9598761066a565b5050600e80546001600160a01b0319166001600160a01b03968716179055505042600755505082166102965760405162461bcd60e51b815260206004820152602560248201527f42616c616e63657253747261746567793a207a65726f2062616c616e636572206044820152641d985d5b1d60da1b606482015260840161010d565b6001600160a01b03821660a09081526040805191820181526001825260026020830152600390820152600460608201526005608082018190526102db91600d91610776565b5060408051808201909152600d81526c416464204c697175696469747960981b60208083019190915260015f52600c90527fd421a5181c571bba3f01190c922c3b2a896fc1d84e86c9f17ac10e67ebef8b5c906103389082610963565b5060408051808201909152601081526f52656d6f7665204c697175696469747960801b60208083019190915260025f52600c90527f5d6016397a73f5e079297ac5a36fef17b4d9c3831618e63ab105738020ddd720906103989082610963565b50604080518082019091526011815270436c61696d2042414c205265776172647360781b60208083019190915260035f52600c90527fc0da782485e77ae272268ae0a3ff44c1552ecb60b3743924de17a815e0a3cfd7906103f99082610963565b5060408051808201909152600f81526e526562616c616e636520506f6f6c7360881b60208083019190915260045f52600c90527f5b84bb9e0f5aa9cc45a8bb66468db5d4816d1e75ff86b5e1f1dd8d144dab8097906104589082610963565b5060408051808201909152601081526f53657420506f6f6c205765696768747360801b60208083019190915260055f52600c90527f2cd9ebf6ff19cdd7ffcc447d7c7d47b5991f5c7392a04512134e765802361fa6906104b89082610963565b5060405180606001604052806023815260200161480b6023913960015f5260116020527f17bc176d2408558f6e4111feebc3cab4e16b63e967be91cde721f4c8a488b552906105079082610963565b506040518060600160405280602881526020016147e36028913960025f5260116020527f08037d7b151cc412d25674a4e66b334d9ae9d2e5517a7feaae5cdb828bf1c628906105569082610963565b506040518060600160405280602281526020016147976022913960035f5260116020527f9bfbaa59f8e10e7868f8b402de9d605a390c45ddaebd8c9de3c6f31e733c87ff906105a59082610963565b506040518060600160405280602a81526020016147b9602a913960045f5260116020527f251164fe1d8864fe5e86082eae9c288bc2b58695a4d28538dfe86e9e4f175585906105f49082610963565b5060408051808201909152601e81527f41646a75737420706f6f6c20616c6c6f636174696f6e2077656967687473000060208083019190915260055f52601190527fc550213cee30afd5e67ccba7be3d381bbc169034ae08eb3ec9168caca9fe55e7906106619082610963565b50505050610a1d565b5f828152602081815260408083206001600160a01b038516845290915281205460ff1661070a575f838152602081815260408083206001600160a01b03861684529091529020805460ff191660011790556106c23390565b6001600160a01b0316826001600160a01b0316847f2f8788117e7eff1d82e926ec794901d17c78024a50270940304540a733656f0d60405160405180910390a450600161070d565b505f5b92915050565b828054828255905f5260205f20908101928215610766579160200282015b8281111561076657825182546001600160a01b0319166001600160a01b03909116178255602090920191600190910190610731565b506107729291506107af565b5090565b828054828255905f5260205f20908101928215610766579160200282015b82811115610766578251825591602001919060010190610794565b5b80821115610772575f81556001016107b0565b80516001600160a01b03811681146107d9575f5ffd5b919050565b634e487b7160e01b5f52604160045260245ffd5b5f5f5f60608486031215610804575f5ffd5b61080d846107c3565b925061081b602085016107c3565b60408501519092506001600160401b03811115610836575f5ffd5b8401601f81018613610846575f5ffd5b80516001600160401b0381111561085f5761085f6107de565b604051600582901b90603f8201601f191681016001600160401b038111828210171561088d5761088d6107de565b6040529182526020818401810192908101898411156108aa575f5ffd5b6020850194505b838510156108d0576108c2856107c3565b8152602094850194016108b1565b50809450505050509250925092565b600181811c908216806108f357607f821691505b60208210810361091157634e487b7160e01b5f52602260045260245ffd5b50919050565b601f82111561095e57805f5260205f20601f840160051c8101602085101561093c5750805b601f840160051c820191505b8181101561095b575f8155600101610948565b50505b505050565b81516001600160401b0381111561097c5761097c6107de565b6109908161098a84546108df565b84610917565b6020601f8211600181146109c2575f83156109ab5750848201515b5f19600385901b1c1916600184901b17845561095b565b5f84815260208120601f198516915b828110156109f157878501518255602094850194600190920191016109d1565b5084821015610a0e57868401515f19600387901b60f8161c191681555b50505050600190811b01905550565b60805160a051613d28610a6f5f395f818161037a0152818161087f015281816108a9015281816109400152611b2a01525f818161070b0152818161097101528181611b63015261299f0152613d285ff3fe608060405234801561000f575f5ffd5b50600436106102ff575f3560e01c806386b39c9a11610195578063c6e5554a116100e4578063f58f41001161009e578063fac09e8711610079578063fac09e87146106f3578063fbfa77cf14610706578063ff083a971461072d578063ff50abdc14610753575f5ffd5b8063f58f4100146106ba578063f8b2cb4f146106cd578063f9757313146106e0575f5ffd5b8063c6e5554a14610644578063d547741f1461065b578063e43043131461066e578063e4d8f8a614610681578063ef5cfb8c14610694578063f3fef3a3146106a7575f5ffd5b806398c4f1ac1161014f578063b2fe12801161012a578063b2fe128014610602578063b83d815714610615578063be9ee11f1461061e578063c68dbb3714610631575f5ffd5b806398c4f1ac146105c8578063a217fddf146105dc578063a62b33be146105e3575f5ffd5b806386b39c9a146105435780638a0033fc146105625780638b744602146105755780638ec083541461058857806391d148541461059d5780639613092d146105b0575f5ffd5b80633f4ba83a116102515780635c975abb1161020b5780636d9a4fb2116101e65780636d9a4fb2146104fe5780636ff1c9bc146105205780637284e416146105335780638456cb591461053b575f5ffd5b80635c975abb146104c157806369883b4e146104cc5780636cc3ce3e146104df575f5ffd5b80633f4ba83a1461047957806347e7ef24146104815780634b319713146104945780634b4b53891461049d57806354fd4d50146104b05780635c40c7e6146104b8575f5ffd5b80631b035932116102bc578063248a9ca311610297578063248a9ca31461041d57806324ea54f41461043f5780632f2ff15d1461045357806336568abe14610466575f5ffd5b80631b035932146103d55780631c46bc6f146103e857806322459e18146103fb575f5ffd5b806301ffc9a714610303578063038f505d1461032b57806306fdde031461034b57806310e7b48914610360578063158274a5146103755780631a8a2b68146103b4575b5f5ffd5b61031661031136600461310f565b61075c565b60405190151581526020015b60405180910390f35b61033e61033936600461328c565b610792565b60405161032291906133bb565b610353610a69565b60405161032291906133fb565b61037361036e36600461340d565b610af5565b005b61039c7f000000000000000000000000000000000000000000000000000000000000000081565b6040516001600160a01b039091168152602001610322565b6103c76103c2366004613428565b610b43565b60405161032292919061349d565b6103736103e336600461340d565b610f13565b6103736103f636600461340d565b610fbe565b61040f5f516020613be35f395f51905f5281565b604051908152602001610322565b61040f61042b3660046134b7565b5f9081526020819052604090206001015490565b61040f5f516020613cd35f395f51905f5281565b6103736104613660046134ce565b611197565b6103736104743660046134ce565b6111c1565b6103736111f9565b61040f61048f3660046134fc565b611236565b61040f600a5481565b6103736104ab36600461340d565b6112ff565b610353611349565b61040f60085481565b60025460ff16610316565b61040f6104da3660046134b7565b611356565b61040f6104ed3660046134b7565b60136020525f908152604090205481565b61031661050c3660046134b7565b600f6020525f908152604090205460ff1681565b61037361052e36600461340d565b611375565b6103536114ee565b6103736114fb565b61040f6105513660046134b7565b60126020525f908152604090205481565b6103736105703660046134b7565b611536565b6103536105833660046134b7565b6116a2565b6105906116ba565b6040516103229190613526565b6103166105ab3660046134ce565b611831565b6105b8611859565b6040516103229493929190613568565b61040f5f516020613c4c5f395f51905f5281565b61040f5f81565b600b546105f09060ff1681565b60405160ff9091168152602001610322565b61033e61061036600461328c565b611a6d565b61040f60075481565b600e5461039c906001600160a01b031681565b61039c61063f3660046134b7565b611c57565b61064c611c7f565b60405161032293929190613649565b6103736106693660046134ce565b611f32565b61037361067c36600461340d565b611f56565b61037361068f3660046134b7565b611fa0565b61040f6106a236600461340d565b6120e8565b61040f6106b53660046134fc565b61219f565b6103c76106c8366004613428565b61226f565b61040f6106db36600461340d565b612375565b6103736106ee36600461340d565b612388565b61037361070136600461340d565b6123d2565b61039c7f000000000000000000000000000000000000000000000000000000000000000081565b610735612554565b60408051938452602084019290925260ff1690820152606001610322565b61040f60095481565b5f6001600160e01b03198216637965db0b60e01b148061078c57506301ffc9a760e01b6001600160e01b03198316145b92915050565b60606107ab5f516020613c4c5f395f51905f5233611831565b6107d05760405162461bcd60e51b81526004016107c790613681565b60405180910390fd5b6107d861257a565b6107e061259e565b5f858152600f602052604090205460ff1661080d5760405162461bcd60e51b81526004016107c7906136c6565b825184511461082e5760405162461bcd60e51b81526004016107c790613707565b5f5f5b8551811015610904575f86828151811061084d5761084d613748565b602002602001015190505f6001600160a01b0316816001600160a01b0316146108fb576108a46001600160a01b0382167f00000000000000000000000000000000000000000000000000000000000000005f6125c8565b6108fb7f00000000000000000000000000000000000000000000000000000000000000008784815181106108da576108da613748565b6020026020010151836001600160a01b03166125c89092919063ffffffff16565b50600101610831565b5060408051608081018252868152602081018690528082018590525f60608201819052915163172b958560e31b81529091906001600160a01b037f0000000000000000000000000000000000000000000000000000000000000000169063b95cac289061099b908b9030907f000000000000000000000000000000000000000000000000000000000000000090889060040161381b565b5f604051808303815f875af11580156109b6573d5f5f3e3d5ffd5b505050506040513d5f823e601f3d908101601f191682016040526109dd919081019061384c565b5f89815260136020526040812054919250908103610a0a575f898152601360205260409020819055610a1b565b5f8981526013602052604090208190555b887ff4a6accc63596df47bbf115b3132129556a283c926de4b8a9ba3c3019f8c60a483604051610a4b91906133bb565b60405180910390a25092505050610a6160018055565b949350505050565b60038054610a76906138d2565b80601f0160208091040260200160405190810160405280929190818152602001828054610aa2906138d2565b8015610aed5780601f10610ac457610100808354040283529160200191610aed565b820191905f5260205f20905b815481529060010190602001808311610ad057829003601f168201915b505050505081565b610b0c5f516020613c4c5f395f51905f5233611831565b610b285760405162461bcd60e51b81526004016107c790613681565b610b3f5f516020613cd35f395f51905f5282612685565b5050565b5f606081805b600d54811015610b865786600d8281548110610b6757610b67613748565b905f5260205f20015403610b7e5760019150610b86565b600101610b49565b5080610bb0575f604051806060016040528060238152602001613c8f602391399250925050610f0b565b60018603610c53575f80610bc68688018861328c565b505f838152600f602052604090205492945092505060ff16610c08575f604051806060016040528060218152602001613b486021913994509450505050610f0b565b80515f03610c36575f604051806060016040528060258152602001613bbe6025913994509450505050610f0b565b600160405180602001604052805f81525094509450505050610f0b565b60028603610cc4575f610c688587018761328c565b5050505f818152600f602052604090205490915060ff16610ca8575f604051806060016040528060218152602001613b4860219139935093505050610f0b565b600160405180602001604052805f815250935093505050610f0b565b60038603610d0e575f610cd98587018761340d565b90506001600160a01b038116610ca8575f604051806060016040528060288152602001613c0360289139935093505050610f0b565b60048603610d5c576010545f03610d43575f604051806060016040528060218152602001613c2b602191399250925050610f0b565b505060408051602081019091525f815260019150610f0b565b60058603610ece575f80610d7286880188613904565b915091508051825114610da5575f604051806060016040528060218152602001613cb26021913994509450505050610f0b565b81515f03610dd3575f604051806060016040528060238152602001613c6c6023913994509450505050610f0b565b5f5b8251811015610e4357600f5f848381518110610df357610df3613748565b60209081029190910181015182528101919091526040015f205460ff16610e3b575f6040518060600160405280602a8152602001613b69602a91399550955050505050610f0b565b600101610dd5565b505f805b8251811015610e7f57828181518110610e6257610e62613748565b602002602001015182610e7591906139d2565b9150600101610e47565b508061271014610eb0575f6040518060600160405280602b8152602001613b93602b91399550955050505050610f0b565b600160405180602001604052805f8152509550955050505050610f0b565b5f6040518060400160405280602081526020017f42616c616e63657253747261746567793a20756e6b6e6f776e20616374696f6e81525092509250505b935093915050565b610f2a5f516020613c4c5f395f51905f5233611831565b610f465760405162461bcd60e51b81526004016107c790613681565b6001600160a01b038116610f9c5760405162461bcd60e51b815260206004820152601a60248201527f4261736553747261746567793a207a65726f206164647265737300000000000060448201526064016107c7565b600e80546001600160a01b0319166001600160a01b0392909216919091179055565b610fd55f516020613c4c5f395f51905f5233611831565b610ff15760405162461bcd60e51b81526004016107c790613681565b6001600160a01b0381166110175760405162461bcd60e51b81526004016107c7906139e5565b5f805b60065481101561111257826001600160a01b03166006828154811061104157611041613748565b5f918252602090912001546001600160a01b03160361110a576006805461106a90600190613a2c565b8154811061107a5761107a613748565b5f91825260209091200154600680546001600160a01b0390921691839081106110a5576110a5613748565b905f5260205f20015f6101000a8154816001600160a01b0302191690836001600160a01b0316021790555060068054806110e1576110e1613a3f565b5f8281526020902081015f1990810180546001600160a01b031916905501905560019150611112565b60010161101a565b50806111605760405162461bcd60e51b815260206004820152601d60248201527f4261736553747261746567793a206173736574206e6f7420666f756e6400000060448201526064016107c7565b6040516001600160a01b038316907f37803e2125c48ee96c38ddf04e826daf335b0e1603579040fd275aba6d06b6fc905f90a25050565b5f828152602081905260409020600101546111b181612714565b6111bb8383612685565b50505050565b6001600160a01b03811633146111ea5760405163334bd91960e11b815260040160405180910390fd5b6111f4828261271e565b505050565b6112105f516020613c4c5f395f51905f5233611831565b61122c5760405162461bcd60e51b81526004016107c790613681565b611234612787565b565b5f61124e5f516020613c4c5f395f51905f5233611831565b61126a5760405162461bcd60e51b81526004016107c790613681565b61127261259e565b61127a61257a565b611283836127d9565b5f82116112de5760405162461bcd60e51b8152602060048201526024808201527f4261736553747261746567793a206465706f73697420616d6f756e74206973206044820152637a65726f60e01b60648201526084016107c7565b8160095f8282546112ef91906139d2565b909155505060018055508061078c565b6113165f516020613c4c5f395f51905f5233611831565b6113325760405162461bcd60e51b81526004016107c790613681565b610b3f5f516020613cd35f395f51905f528261271e565b60058054610a76906138d2565b60108181548110611365575f80fd5b5f91825260209091200154905081565b61138c5f516020613cd35f395f51905f5233611831565b6113a85760405162461bcd60e51b81526004016107c790613a53565b6113b061259e565b6113b9816127d9565b6040516370a0823160e01b81523060048201525f906001600160a01b038316906370a0823190602401602060405180830381865afa1580156113fd573d5f5f3e3d5ffd5b505050506040513d601f19601f820116820180604052508101906114219190613a99565b90505f811161147e5760405162461bcd60e51b8152602060048201526024808201527f4261736553747261746567793a206e6f2062616c616e636520746f20776974686044820152636472617760e01b60648201526084016107c7565b600e54611498906001600160a01b0384811691168361287b565b600e54604080518381526001600160a01b039283166020820152918416917f3ab9db27a4cdd8c603a752b62d5fbd93b4b3509fe2596708e9688e42bbac3576910160405180910390a2506114eb60018055565b50565b60048054610a76906138d2565b6115125f516020613cd35f395f51905f5233611831565b61152e5760405162461bcd60e51b81526004016107c790613a53565b6112346128ac565b61154d5f516020613c4c5f395f51905f5233611831565b6115695760405162461bcd60e51b81526004016107c790613681565b806115b65760405162461bcd60e51b815260206004820152601e60248201527f42616c616e63657253747261746567793a207a65726f20706f6f6c204944000060448201526064016107c7565b5f818152600f602052604090205460ff16156116225760405162461bcd60e51b815260206004820152602560248201527f42616c616e63657253747261746567793a20706f6f6c20616c72656164792061604482015264637469766560d81b60648201526084016107c7565b5f818152600f60209081526040808320805460ff191660019081179091556010805491820190557f1b6847dc741a1b0cd08d278845f9d819d87b734759afb55fe2de5cb82a9ae6720184905560129091528082204290555182917f57655df89888a03999952d2aa23ec3d436fd7ab3d041a0714a94bb3bc7636fe291a250565b600c6020525f908152604090208054610a76906138d2565b6010546060905f906001600160401b038111156116d9576116d961313d565b604051908082528060200260200182016040528015611702578160200160208202803683370190505b5090505f805b60105481101561179a57600f5f6010838154811061172857611728613748565b5f918252602080832090910154835282019290925260400190205460ff1615611792576010818154811061175e5761175e613748565b905f5260205f20015483838151811061177957611779613748565b60209081029190910101528161178e81613ab0565b9250505b600101611708565b505f816001600160401b038111156117b4576117b461313d565b6040519080825280602002602001820160405280156117dd578160200160208202803683370190505b5090505f5b82811015611829578381815181106117fc576117fc613748565b602002602001015182828151811061181657611816613748565b60209081029190910101526001016117e2565b509392505050565b5f918252602082815260408084206001600160a01b0393909316845291905290205460ff1690565b6060806060806003600460056006838054611873906138d2565b80601f016020809104026020016040519081016040528092919081815260200182805461189f906138d2565b80156118ea5780601f106118c1576101008083540402835291602001916118ea565b820191905f5260205f20905b8154815290600101906020018083116118cd57829003601f168201915b505050505093508280546118fd906138d2565b80601f0160208091040260200160405190810160405280929190818152602001828054611929906138d2565b80156119745780601f1061194b57610100808354040283529160200191611974565b820191905f5260205f20905b81548152906001019060200180831161195757829003601f168201915b50505050509250818054611987906138d2565b80601f01602080910402602001604051908101604052809291908181526020018280546119b3906138d2565b80156119fe5780601f106119d5576101008083540402835291602001916119fe565b820191905f5260205f20905b8154815290600101906020018083116119e157829003601f168201915b5050505050915080805480602002602001604051908101604052809291908181526020018280548015611a5857602002820191905f5260205f20905b81546001600160a01b03168152600190910190602001808311611a3a575b50505050509050935093509350935090919293565b6060611a865f516020613c4c5f395f51905f5233611831565b611aa25760405162461bcd60e51b81526004016107c790613681565b611aaa61259e565b5f858152600f602052604090205460ff16611ad75760405162461bcd60e51b81526004016107c7906136c6565b8251845114611af85760405162461bcd60e51b81526004016107c790613707565b60408051608081018252858152602081018590528082018490525f606082018190529151638bdb391360e01b815282907f00000000000000000000000000000000000000000000000000000000000000006001600160a01b031690638bdb391390611b8d908b9030907f000000000000000000000000000000000000000000000000000000000000000090889060040161381b565b5f604051808303815f875af1158015611ba8573d5f5f3e3d5ffd5b505050506040513d5f823e601f3d908101601f19168201604052611bcf919081019061384c565b5f8981526013602052604090205490915015611c12575f8881526013602052604081205415611c10575f611c038583613a2c565b9050611c0e816128e9565b505b505b877f764825fdb669a7055c0ee4d2c4b02e06b27a6e96c15c3a689939496d2ad8bba182604051611c4291906133bb565b60405180910390a292505050610a6160018055565b60068181548110611c66575f80fd5b5f918252602090912001546001600160a01b0316905081565b6060806060600d805480602002602001604051908101604052809291908181526020018280548015611cce57602002820191905f5260205f20905b815481526020019060010190808311611cba575b5050600d5493965050506001600160401b038211159050611cf157611cf161313d565b604051908082528060200260200182016040528015611d2457816020015b6060815260200190600190039081611d0f5790505b50600d549092506001600160401b03811115611d4257611d4261313d565b604051908082528060200260200182016040528015611d7557816020015b6060815260200190600190039081611d605790505b5090505f5b600d54811015611f2c57600c5f600d8381548110611d9a57611d9a613748565b905f5260205f20015481526020019081526020015f208054611dbb906138d2565b80601f0160208091040260200160405190810160405280929190818152602001828054611de7906138d2565b8015611e325780601f10611e0957610100808354040283529160200191611e32565b820191905f5260205f20905b815481529060010190602001808311611e1557829003601f168201915b5050505050838281518110611e4957611e49613748565b602002602001018190525060115f600d8381548110611e6a57611e6a613748565b905f5260205f20015481526020019081526020015f208054611e8b906138d2565b80601f0160208091040260200160405190810160405280929190818152602001828054611eb7906138d2565b8015611f025780601f10611ed957610100808354040283529160200191611f02565b820191905f5260205f20905b815481529060010190602001808311611ee557829003601f168201915b5050505050828281518110611f1957611f19613748565b6020908102919091010152600101611d7a565b50909192565b5f82815260208190526040902060010154611f4c81612714565b6111bb838361271e565b611f6d5f516020613c4c5f395f51905f5233611831565b611f895760405162461bcd60e51b81526004016107c790613681565b610b3f5f516020613be35f395f51905f528261271e565b611fb75f516020613c4c5f395f51905f5233611831565b611fd35760405162461bcd60e51b81526004016107c790613681565b5f818152600f602052604090205460ff166120005760405162461bcd60e51b81526004016107c7906136c6565b5f818152600f60205260408120805460ff191690555b6010548110156120ba57816010828154811061203457612034613748565b905f5260205f200154036120b2576010805461205290600190613a2c565b8154811061206257612062613748565b905f5260205f2001546010828154811061207e5761207e613748565b5f91825260209091200155601080548061209a5761209a613a3f565b600190038181905f5260205f20015f905590556120ba565b600101612016565b5060405181907fcd93dc3f69ffce37f6698ff591a9d276b05fd5c17df2a1c8750daae91222df6f905f90a250565b5f6121005f516020613c4c5f395f51905f5233611831565b61211c5760405162461bcd60e51b81526004016107c790613681565b61212461259e565b6001600160a01b0382166121865760405162461bcd60e51b8152602060048201526024808201527f4261736553747261746567793a20746f20697320746865207a65726f206164646044820152637265737360e01b60648201526084016107c7565b61218f82612902565b905061219a60018055565b919050565b5f6121b75f516020613c4c5f395f51905f5233611831565b6121d35760405162461bcd60e51b81526004016107c790613681565b6121db61259e565b6121e4836127d9565b5f82116122415760405162461bcd60e51b815260206004820152602560248201527f4261736553747261746567793a20776974686472617720616d6f756e74206973604482015264207a65726f60d81b60648201526084016107c7565b5f61224c848461290c565b905080600a5f82825461225f91906139d2565b909155505060018055905061078c565b5f60606122895f516020613be35f395f51905f5233611831565b6122e15760405162461bcd60e51b8152602060048201526024808201527f4261736553747261746567793a2063616c6c6572206973206e6f7420616e206160448201526319d95b9d60e21b60648201526084016107c7565b6122e961259e565b6122f161257a565b5f5f6122fe878787610b43565b915091508181906123225760405162461bcd60e51b81526004016107c791906133fb565b5061232e8787876129c4565b6040518215158152919550935087907f68e6e743ea58d627efa5de7faa5e162a4551e1ded07ebc7f6b471d987a5f71839060200160405180910390a25050610f0b60018055565b5f61237f826127d9565b61078c82612be5565b61239f5f516020613c4c5f395f51905f5233611831565b6123bb5760405162461bcd60e51b81526004016107c790613681565b610b3f5f516020613be35f395f51905f5282612685565b6123e95f516020613c4c5f395f51905f5233611831565b6124055760405162461bcd60e51b81526004016107c790613681565b6001600160a01b03811661242b5760405162461bcd60e51b81526004016107c7906139e5565b5f805b60065481101561247f57826001600160a01b03166006828154811061245557612455613748565b5f918252602090912001546001600160a01b031603612477576001915061247f565b60010161242e565b5080156124dc5760405162461bcd60e51b815260206004820152602560248201527f4261736553747261746567793a20617373657420616c726561647920737570706044820152641bdc9d195960da1b60648201526084016107c7565b600680546001810182555f9182527ff652222313e28459528d920b65115c16c04f3efc82aaedc97be59f3f377c0d3f0180546001600160a01b0319166001600160a01b03851690811790915560405190917f0e3c58ebfb2e7465fbb1c32e6b4f40c3c4f5ca77e8218a386aff8617831260d791a25050565b5f5f5f61255f612c4d565b612567612dab565b600b54919590945060ff90911692509050565b60025460ff16156112345760405163d93c066560e01b815260040160405180910390fd5b6002600154036125c157604051633ee5aeb560e01b815260040160405180910390fd5b6002600155565b604080516001600160a01b038416602482015260448082018490528251808303909101815260649091019091526020810180516001600160e01b031663095ea7b360e01b1790526126198482612ed1565b6111bb576040516001600160a01b0384811660248301525f604483015261267b91869182169063095ea7b3906064015b604051602081830303815290604052915060e01b6020820180516001600160e01b038381831617835250505050612f1a565b6111bb8482612f1a565b5f6126908383611831565b61270d575f838152602081815260408083206001600160a01b03861684529091529020805460ff191660011790556126c53390565b6001600160a01b0316826001600160a01b0316847f2f8788117e7eff1d82e926ec794901d17c78024a50270940304540a733656f0d60405160405180910390a450600161078c565b505f61078c565b6114eb8133612f86565b5f6127298383611831565b1561270d575f838152602081815260408083206001600160a01b0386168085529252808320805460ff1916905551339286917ff6391f5c32d9c69d2a47ea670b442974b53935d1edc7fd64eb21e047a839171b9190a450600161078c565b61278f612fbf565b6002805460ff191690557f5db9ee0a495bf2e6ff9c91a7834c1ba4fdd244a5e8aa4e537bd38aeae4b073aa335b6040516001600160a01b03909116815260200160405180910390a1565b5f805b60065481101561282d57826001600160a01b03166006828154811061280357612803613748565b5f918252602090912001546001600160a01b031603612825576001915061282d565b6001016127dc565b5080610b3f5760405162461bcd60e51b815260206004820152601f60248201527f4261736553747261746567793a20756e737570706f727465642061737365740060448201526064016107c7565b6040516001600160a01b038381166024830152604482018390526111f491859182169063a9059cbb90606401612649565b6128b461257a565b6002805460ff191660011790557f62e78cea01bee320cd4e420270b5ea74000d11b0c9f74754ebdbfc544b05a2586127bc3390565b8060085f8282546128fa91906139d2565b909155505050565b5f61078c82612fe2565b6040516370a0823160e01b81523060048201525f9081906001600160a01b038516906370a0823190602401602060405180830381865afa158015612952573d5f5f3e3d5ffd5b505050506040513d601f19601f820116820180604052508101906129769190613a99565b90505f8184106129865781612988565b835b90508015610a6157610a616001600160a01b0386167f00000000000000000000000000000000000000000000000000000000000000008361287b565b5f606060018503612a88575f8080806129df8789018961328c565b60405163038f505d60e01b8152939750919550935091505f90309063038f505d90612a14908890889088908890600401613ac8565b5f604051808303815f875af1158015612a2f573d5f5f3e3d5ffd5b505050506040513d5f823e601f3d908101601f19168201604052612a56919081019061384c565b9050600181604051602001612a6b91906133bb565b604051602081830303815290604052965096505050505050610f0b565b60028503612ad5575f808080612aa08789018961328c565b604051630165fc2560e71b8152939750919550935091505f90309063b2fe128090612a14908890889088908890600401613ac8565b60038503612b27575f612aea8486018661340d565b90505f612af682612fe2565b9050600181604051602001612b0d91815260200190565b604051602081830303815290604052935093505050610f0b565b60048503612b69575f612b3861302d565b90508081604051602001612b50911515815260200190565b6040516020818303038152906040529250925050610f0b565b60058503612b97575f80612b7f85870187613904565b91509150604080516001602082018190529101612b0d565b5f604051602001612bca906020808252600e908201526d2ab735b737bbb71030b1ba34b7b760911b604082015260600190565b60405160208183030381529060405291509150935093915050565b6040516370a0823160e01b81523060048201525f906001600160a01b038316906370a0823190602401602060405180830381865afa158015612c29573d5f5f3e3d5ffd5b505050506040513d601f19601f8201168201806040525081019061078c9190613a99565b6010545f908103612c5d57505f90565b5f80805b601054811015612da4575f60108281548110612c7f57612c7f613748565b5f918252602080832090910154808352600f90915260409091205490915060ff1615612d9b575f612cb081866139d2565b5f8381526012602052604090205490955015801590612cdb57505f8281526013602052604090205415155b8015612cf357505f8281526013602052604090205481115b15612d99575f82815260126020526040812054612d109042613a2c565b90508015612d97575f83815260136020526040812054612d309084613a2c565b5f8581526013602052604081205491925090612d4d908490613b11565b612d5b836301e13380613b11565b612d6790612710613b11565b612d719190613b28565b905087612d7e8583613b11565b612d889190613b28565b612d9290886139d2565b965050505b505b505b50600101612c61565b5092915050565b5f80805b601054811015612e2557600f5f60108381548110612dcf57612dcf613748565b5f918252602080832090910154835282019290925260400190205460ff1615612e1d57612e1060108281548110612e0857612e08613748565b505f90815290565b612e1a90836139d2565b91505b600101612daf565b505f5b600654811015612ecb5760068181548110612e4557612e45613748565b5f918252602090912001546040516370a0823160e01b81523060048201526001600160a01b03909116906370a0823190602401602060405180830381865afa158015612e93573d5f5f3e3d5ffd5b505050506040513d601f19601f82011682018060405250810190612eb79190613a99565b612ec190836139d2565b9150600101612e28565b50919050565b5f5f5f5f60205f8651602088015f8a5af192503d91505f519050828015612f1057508115612f025780600114612f10565b5f866001600160a01b03163b115b9695505050505050565b5f5f60205f8451602086015f885af180612f39576040513d5f823e3d81fd5b50505f513d91508115612f50578060011415612f5d565b6001600160a01b0384163b155b156111bb57604051635274afe760e01b81526001600160a01b03851660048201526024016107c7565b612f908282611831565b610b3f5760405163e2517d3f60e01b81526001600160a01b0382166004820152602481018390526044016107c7565b60025460ff1661123457604051638dfc202b60e01b815260040160405180910390fd5b604080515f8082526001600160a01b03841660208301529182917f7ea18115a44c8e31af916c70cd7b5e0f0ffb9c7e92267608435e7a11521eb2b4910160405180910390a192915050565b426007555f805b6010548110156130d557600f5f6010838154811061305457613054613748565b5f918252602080832090910154835282019290925260400190205460ff16156130cd576010818154811061308a5761308a613748565b905f5260205f2001547f5078e456f8ff14cb42a0d65f421499221d09486d035ceea818f66cdf8df610a2426040516130c491815260200190565b60405180910390a25b600101613034565b506040514281527f706d7ff2ac4308be721f62cfb10b6346d9e3389fba665e19278cd45b69749dea9060200160405180910390a150600190565b5f6020828403121561311f575f5ffd5b81356001600160e01b031981168114613136575f5ffd5b9392505050565b634e487b7160e01b5f52604160045260245ffd5b604051601f8201601f191681016001600160401b03811182821017156131795761317961313d565b604052919050565b5f6001600160401b038211156131995761319961313d565b5060051b60200190565b6001600160a01b03811681146114eb575f5ffd5b5f82601f8301126131c6575f5ffd5b81356131d96131d482613181565b613151565b8082825260208201915060208360051b8601019250858311156131fa575f5ffd5b602085015b838110156132175780358352602092830192016131ff565b5095945050505050565b5f82601f830112613230575f5ffd5b81356001600160401b038111156132495761324961313d565b61325c601f8201601f1916602001613151565b818152846020838601011115613270575f5ffd5b816020850160208301375f918101602001919091529392505050565b5f5f5f5f6080858703121561329f575f5ffd5b8435935060208501356001600160401b038111156132bb575f5ffd5b8501601f810187136132cb575f5ffd5b80356132d96131d482613181565b8082825260208201915060208360051b8501019250898311156132fa575f5ffd5b6020840193505b82841015613325578335613314816131a3565b825260209384019390910190613301565b955050505060408501356001600160401b03811115613342575f5ffd5b61334e878288016131b7565b92505060608501356001600160401b03811115613369575f5ffd5b61337587828801613221565b91505092959194509250565b5f8151808452602084019350602083015f5b828110156133b1578151865260209586019590910190600101613393565b5093949350505050565b602081525f6131366020830184613381565b5f81518084528060208401602086015e5f602082860101526020601f19601f83011685010191505092915050565b602081525f61313660208301846133cd565b5f6020828403121561341d575f5ffd5b8135613136816131a3565b5f5f5f6040848603121561343a575f5ffd5b8335925060208401356001600160401b03811115613456575f5ffd5b8401601f81018613613466575f5ffd5b80356001600160401b0381111561347b575f5ffd5b86602082840101111561348c575f5ffd5b939660209190910195509293505050565b8215158152604060208201525f610a6160408301846133cd565b5f602082840312156134c7575f5ffd5b5035919050565b5f5f604083850312156134df575f5ffd5b8235915060208301356134f1816131a3565b809150509250929050565b5f5f6040838503121561350d575f5ffd5b8235613518816131a3565b946020939093013593505050565b602080825282518282018190525f918401906040840190835b8181101561355d57835183526020938401939092019160010161353f565b509095945050505050565b608081525f61357a60808301876133cd565b828103602084015261358c81876133cd565b905082810360408401526135a081866133cd565b8381036060850152845180825260208087019350909101905f5b818110156135e15783516001600160a01b03168352602093840193909201916001016135ba565b509098975050505050505050565b5f82825180855260208501945060208160051b830101602085015f5b8381101561363d57601f198584030188526136278383516133cd565b602098890198909350919091019060010161360b565b50909695505050505050565b606081525f61365b6060830186613381565b828103602084015261366d81866135ef565b90508281036040840152612f1081856135ef565b60208082526025908201527f4261736553747261746567793a2063616c6c6572206973206e6f7420746865206040820152641d985d5b1d60da1b606082015260800190565b60208082526021908201527f42616c616e63657253747261746567793a20706f6f6c206e6f742061637469766040820152606560f81b606082015260800190565b60208082526021908201527f42616c616e63657253747261746567793a206c656e677468206d69736d6174636040820152600d60fb1b606082015260800190565b634e487b7160e01b5f52603260045260245ffd5b5f8151808452602084019350602083015f5b828110156133b15781516001600160a01b031686526020958601959091019060010161376e565b5f8151608084526137a9608085018261375c565b60208481015186830387830152805180845290820193505f92909101905b808310156137ea57835182526020820191506020840193506001830192506137c7565b5060408501519250858103604087015261380481846133cd565b925050506060830151611829606086018215159052565b8481526001600160a01b038481166020830152831660408201526080606082018190525f90612f1090830184613795565b5f6020828403121561385c575f5ffd5b81516001600160401b03811115613871575f5ffd5b8201601f81018413613881575f5ffd5b805161388f6131d482613181565b8082825260208201915060208360051b8501019250868311156138b0575f5ffd5b6020840193505b82841015612f105783518252602093840193909101906138b7565b600181811c908216806138e657607f821691505b602082108103612ecb57634e487b7160e01b5f52602260045260245ffd5b5f5f60408385031215613915575f5ffd5b82356001600160401b0381111561392a575f5ffd5b8301601f8101851361393a575f5ffd5b80356139486131d482613181565b8082825260208201915060208360051b850101925087831115613969575f5ffd5b6020840193505b8284101561398b578335825260209384019390910190613970565b945050505060208301356001600160401b038111156139a8575f5ffd5b6139b4858286016131b7565b9150509250929050565b634e487b7160e01b5f52601160045260245ffd5b8082018082111561078c5761078c6139be565b60208082526027908201527f4261736553747261746567793a20617373657420697320746865207a65726f206040820152666164647265737360c81b606082015260800190565b8181038181111561078c5761078c6139be565b634e487b7160e01b5f52603160045260245ffd5b60208082526026908201527f4261736553747261746567793a2063616c6c6572206973206e6f74206120677560408201526530b93234b0b760d11b606082015260800190565b5f60208284031215613aa9575f5ffd5b5051919050565b5f60018201613ac157613ac16139be565b5060010190565b848152608060208201525f613ae0608083018661375c565b8281036040840152613af28186613381565b90508281036060840152613b0681856133cd565b979650505050505050565b808202811582820484141761078c5761078c6139be565b5f82613b4257634e487b7160e01b5f52601260045260245ffd5b50049056fe42616c616e63657253747261746567793a20706f6f6c206e6f742061637469766542616c616e63657253747261746567793a20696e61637469766520706f6f6c20696e207765696768747342616c616e63657253747261746567793a2077656967687473206d7573742073756d20746f20313030303042616c616e63657253747261746567793a20656d70747920616d6f756e7473206172726179cab5a0bfe0b79d2c4b1c2e02599fa044d115b7511f9659307cb427695096770942616c616e63657253747261746567793a207a65726f20726563697069656e74206164647265737342616c616e63657253747261746567793a206e6f2061637469766520706f6f6c7331e0210044b4f6757ce6aa31f9c6e8d4896d24a755014887391a926c5224d95942616c616e63657253747261746567793a20656d70747920706f6f6c7320617272617942616c616e63657253747261746567793a20696e76616c696420616374696f6e20494442616c616e63657253747261746567793a206c656e677468206d69736d6174636855435dd261a4b9b3364963f7738a7a662ad9c84396d64be3365284bb7f0a5041a2646970667358221220cc610451c2ae7f16c996a660b7dabd4e1437cb8dfe8968b926c947ae8ea7b8dc64736f6c634300081b0033436c61696d2042414c20676f7665726e616e636520746f6b656e2072657761726473526562616c616e636520706f6f6c20706f736974696f6e7320666f72206f7074696d616c207969656c6452656d6f7665206c69717569646974792066726f6d20612042616c616e63657220563220706f6f6c416464206c697175696469747920746f20612042616c616e63657220563220706f6f6c537472617465677920666f722070726f766964696e67206c697175696469747920746f2042616c616e63657220563220706f6f6c73","linkReferences":{}},"methodIdentifiers":{"AGENT_ROLE()":"22459e18","DEFAULT_ADMIN_ROLE()":"a217fddf","GUARDIAN_ROLE()":"24ea54f4","VAULT_ROLE()":"98c4f1ac","actionNames(uint256)":"8b744602","activePools(bytes32)":"6d9a4fb2","addLiquidity(bytes32,address[],uint256[],bytes)":"038f505d","addPool(bytes32)":"8a0033fc","addSupportedAsset(address)":"fac09e87","balancerVault()":"158274a5","claimRewards(address)":"ef5cfb8c","deposit(address,uint256)":"47e7ef24","description()":"7284e416","emergencyRecipient()":"be9ee11f","emergencyWithdraw(address)":"6ff1c9bc","executeStrategy(uint256,bytes)":"f58f4100","getActivePools()":"8ec08354","getAvailableActions()":"c6e5554a","getBalance(address)":"f8b2cb4f","getPerformanceMetrics()":"ff083a97","getRoleAdmin(bytes32)":"248a9ca3","getStrategyInfo()":"9613092d","grantAgentRole(address)":"f9757313","grantGuardianRole(address)":"10e7b489","grantRole(bytes32,address)":"2f2ff15d","hasRole(bytes32,address)":"91d14854","historicalReturns()":"5c40c7e6","lastRebalanceTimestamp()":"b83d8157","name()":"06fdde03","pause()":"8456cb59","paused()":"5c975abb","poolEntryTimestamps(bytes32)":"86b39c9a","poolEntryValues(bytes32)":"6cc3ce3e","poolIds(uint256)":"69883b4e","removeLiquidity(bytes32,address[],uint256[],bytes)":"b2fe1280","removePool(bytes32)":"e4d8f8a6","removeSupportedAsset(address)":"1c46bc6f","renounceRole(bytes32,address)":"36568abe","revokeAgentRole(address)":"e4304313","revokeGuardianRole(address)":"4b4b5389","revokeRole(bytes32,address)":"d547741f","riskLevel()":"a62b33be","setEmergencyRecipient(address)":"1b035932","supportedAssets(uint256)":"c68dbb37","supportsInterface(bytes4)":"01ffc9a7","totalDeposited()":"ff50abdc","totalWithdrawn()":"4b319713","unpause()":"3f4ba83a","validateAction(uint256,bytes)":"1a8a2b68","vault()":"fbfa77cf","version()":"54fd4d50","withdraw(address,uint256)":"f3fef3a3"},"id":44}