{"abi":[{"type":"constructor","inputs":[{"name":"_rewardsToken","type":"address","internalType":"address"},{"name":"_admin","type":"address","internalType":"address"}],"stateMutability":"nonpayable"},{"type":"function","name":"ADMIN_ROLE","inputs":[],"outputs":[{"name":"","type":"bytes32","internalType":"bytes32"}],"stateMutability":"view"},{"type":"function","name":"DEFAULT_ADMIN_ROLE","inputs":[],"outputs":[{"name":"","type":"bytes32","internalType":"bytes32"}],"stateMutability":"view"},{"type":"function","name":"VAULT_ROLE","inputs":[],"outputs":[{"name":"","type":"bytes32","internalType":"bytes32"}],"stateMutability":"view"},{"type":"function","name":"addRewards","inputs":[{"name":"amount","type":"uint256","internalType":"uint256"}],"outputs":[],"stateMutability":"nonpayable"},{"type":"function","name":"balances","inputs":[{"name":"","type":"address","internalType":"address"}],"outputs":[{"name":"","type":"uint256","internalType":"uint256"}],"stateMutability":"view"},{"type":"function","name":"distributeRewards","inputs":[{"name":"user","type":"address","internalType":"address"}],"outputs":[{"name":"","type":"uint256","internalType":"uint256"}],"stateMutability":"nonpayable"},{"type":"function","name":"earned","inputs":[{"name":"user","type":"address","internalType":"address"}],"outputs":[{"name":"","type":"uint256","internalType":"uint256"}],"stateMutability":"view"},{"type":"function","name":"getAccruedRewards","inputs":[{"name":"user","type":"address","internalType":"address"}],"outputs":[{"name":"","type":"uint256","internalType":"uint256"}],"stateMutability":"view"},{"type":"function","name":"getRoleAdmin","inputs":[{"name":"role","type":"bytes32","internalType":"bytes32"}],"outputs":[{"name":"","type":"bytes32","internalType":"bytes32"}],"stateMutability":"view"},{"type":"function","name":"grantRole","inputs":[{"name":"role","type":"bytes32","internalType":"bytes32"},{"name":"account","type":"address","internalType":"address"}],"outputs":[],"stateMutability":"nonpayable"},{"type":"function","name":"hasRole","inputs":[{"name":"role","type":"bytes32","internalType":"bytes32"},{"name":"account","type":"address","internalType":"address"}],"outputs":[{"name":"","type":"bool","internalType":"bool"}],"stateMutability":"view"},{"type":"function","name":"lastTimeRewardApplicable","inputs":[],"outputs":[{"name":"","type":"uint256","internalType":"uint256"}],"stateMutability":"view"},{"type":"function","name":"lastUpdateTime","inputs":[],"outputs":[{"name":"","type":"uint256","internalType":"uint256"}],"stateMutability":"view"},{"type":"function","name":"periodFinish","inputs":[],"outputs":[{"name":"","type":"uint256","internalType":"uint256"}],"stateMutability":"view"},{"type":"function","name":"recoverERC20","inputs":[{"name":"tokenAddress","type":"address","internalType":"address"},{"name":"tokenAmount","type":"uint256","internalType":"uint256"}],"outputs":[],"stateMutability":"nonpayable"},{"type":"function","name":"renounceRole","inputs":[{"name":"role","type":"bytes32","internalType":"bytes32"},{"name":"callerConfirmation","type":"address","internalType":"address"}],"outputs":[],"stateMutability":"nonpayable"},{"type":"function","name":"revokeRole","inputs":[{"name":"role","type":"bytes32","internalType":"bytes32"},{"name":"account","type":"address","internalType":"address"}],"outputs":[],"stateMutability":"nonpayable"},{"type":"function","name":"rewardPerToken","inputs":[],"outputs":[{"name":"","type":"uint256","internalType":"uint256"}],"stateMutability":"view"},{"type":"function","name":"rewardPerTokenStored","inputs":[],"outputs":[{"name":"","type":"uint256","internalType":"uint256"}],"stateMutability":"view"},{"type":"function","name":"rewardRate","inputs":[],"outputs":[{"name":"","type":"uint256","internalType":"uint256"}],"stateMutability":"view"},{"type":"function","name":"rewards","inputs":[{"name":"","type":"address","internalType":"address"}],"outputs":[{"name":"","type":"uint256","internalType":"uint256"}],"stateMutability":"view"},{"type":"function","name":"rewardsDuration","inputs":[],"outputs":[{"name":"","type":"uint256","internalType":"uint256"}],"stateMutability":"view"},{"type":"function","name":"rewardsToken","inputs":[],"outputs":[{"name":"","type":"address","internalType":"contract IERC20"}],"stateMutability":"view"},{"type":"function","name":"setRewardsDuration","inputs":[{"name":"_rewardsDuration","type":"uint256","internalType":"uint256"}],"outputs":[],"stateMutability":"nonpayable"},{"type":"function","name":"setRewardsRate","inputs":[{"name":"newRate","type":"uint256","internalType":"uint256"}],"outputs":[],"stateMutability":"nonpayable"},{"type":"function","name":"setVault","inputs":[{"name":"_vault","type":"address","internalType":"address"}],"outputs":[],"stateMutability":"nonpayable"},{"type":"function","name":"supportsInterface","inputs":[{"name":"interfaceId","type":"bytes4","internalType":"bytes4"}],"outputs":[{"name":"","type":"bool","internalType":"bool"}],"stateMutability":"view"},{"type":"function","name":"totalSupply","inputs":[],"outputs":[{"name":"","type":"uint256","internalType":"uint256"}],"stateMutability":"view"},{"type":"function","name":"updateUserRewards","inputs":[{"name":"user","type":"address","internalType":"address"},{"name":"oldBalance","type":"uint256","internalType":"uint256"},{"name":"newBalance","type":"uint256","internalType":"uint256"}],"outputs":[],"stateMutability":"nonpayable"},{"type":"function","name":"userRewardPerTokenPaid","inputs":[{"name":"","type":"address","internalType":"address"}],"outputs":[{"name":"","type":"uint256","internalType":"uint256"}],"stateMutability":"view"},{"type":"function","name":"vault","inputs":[],"outputs":[{"name":"","type":"address","internalType":"address"}],"stateMutability":"view"},{"type":"event","name":"Recovered","inputs":[{"name":"token","type":"address","indexed":false,"internalType":"address"},{"name":"amount","type":"uint256","indexed":false,"internalType":"uint256"}],"anonymous":false},{"type":"event","name":"RewardAdded","inputs":[{"name":"reward","type":"uint256","indexed":false,"internalType":"uint256"}],"anonymous":false},{"type":"event","name":"RewardPaid","inputs":[{"name":"user","type":"address","indexed":true,"internalType":"address"},{"name":"reward","type":"uint256","indexed":false,"internalType":"uint256"}],"anonymous":false},{"type":"event","name":"RewardsDurationUpdated","inputs":[{"name":"newDuration","type":"uint256","indexed":false,"internalType":"uint256"}],"anonymous":false},{"type":"event","name":"RoleAdminChanged","inputs":[{"name":"role","type":"bytes32","indexed":true,"internalType":"bytes32"},{"name":"previousAdminRole","type":"bytes32","indexed":true,"internalType":"bytes32"},{"name":"newAdminRole","type":"bytes32","indexed":true,"internalType":"bytes32"}],"anonymous":false},{"type":"event","name":"RoleGranted","inputs":[{"name":"role","type":"bytes32","indexed":true,"internalType":"bytes32"},{"name":"account","type":"address","indexed":true,"internalType":"address"},{"name":"sender","type":"address","indexed":true,"internalType":"address"}],"anonymous":false},{"type":"event","name":"RoleRevoked","inputs":[{"name":"role","type":"bytes32","indexed":true,"internalType":"bytes32"},{"name":"account","type":"address","indexed":true,"internalType":"address"},{"name":"sender","type":"address","indexed":true,"internalType":"address"}],"anonymous":false},{"type":"event","name":"UserBalanceUpdated","inputs":[{"name":"user","type":"address","indexed":true,"internalType":"address"},{"name":"newBalance","type":"uint256","indexed":false,"internalType":"uint256"}],"anonymous":false},{"type":"error","name":"AccessControlBadConfirmation","inputs":[]},{"type":"error","name":"AccessControlUnauthorizedAccount","inputs":[{"name":"account","type":"address","internalType":"address"},{"name":"neededRole","type":"bytes32","internalType":"bytes32"}]},{"type":"error","name":"SafeERC20FailedOperation","inputs":[{"name":"token","type":"address","internalType":"address"}]}],"bytecode":{"object":"0x60a060405262093a80600655348015610016575f5ffd5b5060405161161e38038061161e83398101604081905261003591610233565b6001600160a01b0382166100b65760405162461bcd60e51b815260206004820152603860248201527f526577617264734469737472696275746f723a207265776172647320746f6b6560448201527f6e2063616e6e6f74206265207a65726f2061646472657373000000000000000060648201526084015b60405180910390fd5b6001600160a01b0381166101255760405162461bcd60e51b815260206004820152603060248201527f526577617264734469737472696275746f723a2061646d696e2063616e6e6f7460448201526f206265207a65726f206164647265737360801b60648201526084016100ad565b6001600160a01b03821660805261013c5f8261016f565b506101677fa49807205ce4d355092ef5a8a18f56e8913cf4a201fbe287825b095693c217758261016f565b505050610264565b5f828152602081815260408083206001600160a01b038516845290915281205460ff1661020f575f838152602081815260408083206001600160a01b03861684529091529020805460ff191660011790556101c73390565b6001600160a01b0316826001600160a01b0316847f2f8788117e7eff1d82e926ec794901d17c78024a50270940304540a733656f0d60405160405180910390a4506001610212565b505f5b92915050565b80516001600160a01b038116811461022e575f5ffd5b919050565b5f5f60408385031215610244575f5ffd5b61024d83610218565b915061025b60208401610218565b90509250929050565b6080516113866102985f395f81816103f5015281816105ae015281816107ff01528181610b790152610c1601526113865ff3fe608060405234801561000f575f5ffd5b50600436106101db575f3560e01c806380faa57d11610109578063c8f33c911161009e578063d547741f1161006e578063d547741f1461042f578063df136d6514610442578063ebe2b12b1461044b578063fbfa77cf14610454575f5ffd5b8063c8f33c91146103cc578063cc1a378f146103d5578063cd3daf9d146103e8578063d1af0c7d146103f0575f5ffd5b806398c4f1ac116100d957806398c4f1ac14610378578063a217fddf1461039f578063acda95d7146103a6578063beceed39146103b9575f5ffd5b806380faa57d1461032b5780638980f11f146103335780638b8763471461034657806391d1485414610365575f5ffd5b806327e235e31161017f5780636817031b1161014f5780636817031b146102e857806374791fb6146102fb57806375b238fc1461030e5780637b0a47ee14610322575f5ffd5b806327e235e3146102985780632f2ff15d146102b757806336568abe146102cc578063386a9525146102df575f5ffd5b806318160ddd116101ba57806318160ddd146102475780631de9d9b614610250578063248a9ca3146102635780632552aa1f14610285575f5ffd5b80628cc262146101df57806301ffc9a7146102055780630700037d14610228575b5f5ffd5b6101f26101ed366004611186565b610467565b6040519081526020015b60405180910390f35b61021861021336600461119f565b6104e2565b60405190151581526020016101fc565b6101f2610236366004611186565b60096020525f908152604090205481565b6101f260075481565b6101f261025e366004611186565b610516565b6101f26102713660046111c6565b5f9081526020819052604090206001015490565b6101f2610293366004611186565b610620565b6101f26102a6366004611186565b600a6020525f908152604090205481565b6102ca6102c53660046111dd565b61062a565b005b6102ca6102da3660046111dd565b610654565b6101f260065481565b6102ca6102f6366004611186565b61068c565b6102ca6103093660046111c6565b610780565b6101f25f5160206113315f395f51905f5281565b6101f260025481565b6101f26107b8565b6102ca610341366004611207565b6107ca565b6101f2610354366004611186565b60086020525f908152604090205481565b6102186103733660046111dd565b6108f1565b6101f27f31e0210044b4f6757ce6aa31f9c6e8d4896d24a755014887391a926c5224d95981565b6101f25f81565b6102ca6103b436600461122f565b610919565b6102ca6103c73660046111c6565b610a73565b6101f260035481565b6102ca6103e33660046111c6565b610d46565b6101f2610e97565b6104177f000000000000000000000000000000000000000000000000000000000000000081565b6040516001600160a01b0390911681526020016101fc565b6102ca61043d3660046111dd565b610ef6565b6101f260045481565b6101f260055481565b600154610417906001600160a01b031681565b6001600160a01b0381165f908152600960209081526040808320546008909252822054670de0b6b3a76400009061049c610e97565b6104a69190611273565b6001600160a01b0385165f908152600a60205260409020546104c89190611286565b6104d2919061129d565b6104dc91906112bc565b92915050565b5f6001600160e01b03198216637965db0b60e01b14806104dc57506301ffc9a760e01b6001600160e01b03198316146104dc565b5f81610520610e97565b60045561052b6107b8565b6003556001600160a01b038116156105715761054681610467565b6001600160a01b0382165f908152600960209081526040808320939093556004546008909152919020555b6001600160a01b0383165f908152600960205260409020548015610619576001600160a01b038085165f908152600960205260408120556105d5907f0000000000000000000000000000000000000000000000000000000000000000168583610f1a565b836001600160a01b03167fe2403640ba68fed3a2f88b7557551d1993f84b99bb10ff833f0cf8db0c5e04868260405161061091815260200190565b60405180910390a25b9392505050565b5f6104dc82610467565b5f8281526020819052604090206001015461064481610f79565b61064e8383610f86565b50505050565b6001600160a01b038116331461067d5760405163334bd91960e11b815260040160405180910390fd5b6106878282611015565b505050565b6106a35f5160206113315f395f51905f52336108f1565b6106c85760405162461bcd60e51b81526004016106bf906112cf565b60405180910390fd5b6001600160a01b0381166107375760405162461bcd60e51b815260206004820152603060248201527f526577617264734469737472696275746f723a207661756c742063616e6e6f7460448201526f206265207a65726f206164647265737360801b60648201526084016106bf565b600180546001600160a01b0319166001600160a01b03831617905561077c7f31e0210044b4f6757ce6aa31f9c6e8d4896d24a755014887391a926c5224d95982610f86565b5050565b6107975f5160206113315f395f51905f52336108f1565b6107b35760405162461bcd60e51b81526004016106bf906112cf565b600255565b5f6107c54260055461107e565b905090565b6107e15f5160206113315f395f51905f52336108f1565b6107fd5760405162461bcd60e51b81526004016106bf906112cf565b7f00000000000000000000000000000000000000000000000000000000000000006001600160a01b0316826001600160a01b0316036108975760405162461bcd60e51b815260206004820152603060248201527f526577617264734469737472696275746f723a2063616e6e6f7420776974686460448201526f3930bb903932bbb0b932103a37b5b2b760811b60648201526084016106bf565b6108ab6001600160a01b0383163383610f1a565b604080516001600160a01b0384168152602081018390527f8c1256b8896378cd5044f80c202f9772b9d77dc85c8a6eb51967210b09bfaa28910160405180910390a15050565b5f918252602082815260408084206001600160a01b0393909316845291905290205460ff1690565b6109437f31e0210044b4f6757ce6aa31f9c6e8d4896d24a755014887391a926c5224d959336108f1565b6109a35760405162461bcd60e51b815260206004820152602b60248201527f526577617264734469737472696275746f723a2063616c6c6572206973206e6f60448201526a1d081d1a19481d985d5b1d60aa1b60648201526084016106bf565b826109ac610e97565b6004556109b76107b8565b6003556001600160a01b038116156109fd576109d281610467565b6001600160a01b0382165f908152600960209081526040808320939093556004546008909152919020555b8183600754610a0c9190611273565b610a1691906112bc565b6007556001600160a01b0384165f818152600a602052604090819020849055517faf5edae402c0c0b6e836a00378d20125216486bc516635cba9311f52682ec1f390610a659085815260200190565b60405180910390a250505050565b610a8a5f5160206113315f395f51905f52336108f1565b610aa65760405162461bcd60e51b81526004016106bf906112cf565b5f610aaf610e97565b600455610aba6107b8565b6003556001600160a01b03811615610b0057610ad581610467565b6001600160a01b0382165f908152600960209081526040808320939093556004546008909152919020555b5f8211610b6c5760405162461bcd60e51b815260206004820152603460248201527f526577617264734469737472696275746f723a20616d6f756e74206d7573742060448201527362652067726561746572207468616e207a65726f60601b60648201526084016106bf565b610ba16001600160a01b037f00000000000000000000000000000000000000000000000000000000000000001633308561108d565b6005544210610bbf57600654610bb7908361129d565b600255610bff565b5f42600554610bce9190611273565b90505f60025482610bdf9190611286565b600654909150610bef82866112bc565b610bf9919061129d565b60025550505b6040516370a0823160e01b81523060048201525f907f00000000000000000000000000000000000000000000000000000000000000006001600160a01b0316906370a0823190602401602060405180830381865afa158015610c63573d5f5f3e3d5ffd5b505050506040513d601f19601f82011682018060405250810190610c879190611319565b905060065481610c97919061129d565b6002541115610cf95760405162461bcd60e51b815260206004820152602860248201527f526577617264734469737472696275746f723a207265776172642072617465206044820152670e8dede40d0d2ced60c31b60648201526084016106bf565b426003819055600654610d0b916112bc565b6005556040518381527fde88a922e0d3b88b24e9623efeb464919c6bf9f66857a65e2bfcf2ce87a9433d9060200160405180910390a1505050565b610d5d5f5160206113315f395f51905f52336108f1565b610d795760405162461bcd60e51b81526004016106bf906112cf565b6005544211610df05760405162461bcd60e51b815260206004820152603c60248201527f526577617264734469737472696275746f723a2070726576696f75732072657760448201527f6172647320706572696f64206d75737420626520636f6d706c6574650000000060648201526084016106bf565b5f8111610e5c5760405162461bcd60e51b815260206004820152603460248201527f526577617264734469737472696275746f723a20726577617264206475726174604482015273696f6e206d757374206265206e6f6e2d7a65726f60601b60648201526084016106bf565b60068190556040518181527ffb46ca5a5e06d4540d6387b930a7c978bce0db5f449ec6b3f5d07c6e1d44f2d39060200160405180910390a150565b5f6007545f03610ea8575060045490565b600754600254600354610eb96107b8565b610ec39190611273565b610ecd9190611286565b610edf90670de0b6b3a7640000611286565b610ee9919061129d565b6004546107c591906112bc565b5f82815260208190526040902060010154610f1081610f79565b61064e8383611015565b6040516001600160a01b0383811660248301526044820183905261068791859182169063a9059cbb906064015b604051602081830303815290604052915060e01b6020820180516001600160e01b0383818316178352505050506110c6565b610f838133611132565b50565b5f610f9183836108f1565b61100e575f838152602081815260408083206001600160a01b03861684529091529020805460ff19166001179055610fc63390565b6001600160a01b0316826001600160a01b0316847f2f8788117e7eff1d82e926ec794901d17c78024a50270940304540a733656f0d60405160405180910390a45060016104dc565b505f6104dc565b5f61102083836108f1565b1561100e575f838152602081815260408083206001600160a01b0386168085529252808320805460ff1916905551339286917ff6391f5c32d9c69d2a47ea670b442974b53935d1edc7fd64eb21e047a839171b9190a45060016104dc565b5f828218828410028218610619565b6040516001600160a01b03848116602483015283811660448301526064820183905261064e9186918216906323b872dd90608401610f47565b5f5f60205f8451602086015f885af1806110e5576040513d5f823e3d81fd5b50505f513d915081156110fc578060011415611109565b6001600160a01b0384163b155b1561064e57604051635274afe760e01b81526001600160a01b03851660048201526024016106bf565b61113c82826108f1565b61077c5760405163e2517d3f60e01b81526001600160a01b0382166004820152602481018390526044016106bf565b80356001600160a01b0381168114611181575f5ffd5b919050565b5f60208284031215611196575f5ffd5b6106198261116b565b5f602082840312156111af575f5ffd5b81356001600160e01b031981168114610619575f5ffd5b5f602082840312156111d6575f5ffd5b5035919050565b5f5f604083850312156111ee575f5ffd5b823591506111fe6020840161116b565b90509250929050565b5f5f60408385031215611218575f5ffd5b6112218361116b565b946020939093013593505050565b5f5f5f60608486031215611241575f5ffd5b61124a8461116b565b95602085013595506040909401359392505050565b634e487b7160e01b5f52601160045260245ffd5b818103818111156104dc576104dc61125f565b80820281158282048414176104dc576104dc61125f565b5f826112b757634e487b7160e01b5f52601260045260245ffd5b500490565b808201808211156104dc576104dc61125f565b6020808252602a908201527f526577617264734469737472696275746f723a2063616c6c6572206973206e6f6040820152693a1030b71030b236b4b760b11b606082015260800190565b5f60208284031215611329575f5ffd5b505191905056fea49807205ce4d355092ef5a8a18f56e8913cf4a201fbe287825b095693c21775a264697066735822122035c1fca950a76538007c6f82c8ec5b4518d28da139391f7d5ff17b311da87dcb64736f6c634300081b0033","linkReferences":{}},"methodIdentifiers":{"ADMIN_ROLE()":"75b238fc","DEFAULT_ADMIN_ROLE()":"a217fddf","VAULT_ROLE()":"98c4f1ac","addRewards(uint256)":"beceed39","balances(address)":"27e235e3","distributeRewards(address)":"1de9d9b6","earned(address)":"008cc262","getAccruedRewards(address)":"2552aa1f","getRoleAdmin(bytes32)":"248a9ca3","grantRole(bytes32,address)":"2f2ff15d","hasRole(bytes32,address)":"91d14854","lastTimeRewardApplicable()":"80faa57d","lastUpdateTime()":"c8f33c91","periodFinish()":"ebe2b12b","recoverERC20(address,uint256)":"8980f11f","renounceRole(bytes32,address)":"36568abe","revokeRole(bytes32,address)":"d547741f","rewardPerToken()":"cd3daf9d","rewardPerTokenStored()":"df136d65","rewardRate()":"7b0a47ee","rewards(address)":"0700037d","rewardsDuration()":"386a9525","rewardsToken()":"d1af0c7d","setRewardsDuration(uint256)":"cc1a378f","setRewardsRate(uint256)":"74791fb6","setVault(address)":"6817031b","supportsInterface(bytes4)":"01ffc9a7","totalSupply()":"18160ddd","updateUserRewards(address,uint256,uint256)":"acda95d7","userRewardPerTokenPaid(address)":"8b876347","vault()":"fbfa77cf"},"id":38}