{"abi":[{"type":"constructor","inputs":[{"name":"_rewardsToken","type":"address","internalType":"address"},{"name":"_admin","type":"address","internalType":"address"}],"stateMutability":"nonpayable"},{"type":"function","name":"DEFAULT_ADMIN_ROLE","inputs":[],"outputs":[{"name":"","type":"bytes32","internalType":"bytes32"}],"stateMutability":"view"},{"type":"function","name":"claimRewards","inputs":[{"name":"user","type":"address","internalType":"address"}],"outputs":[{"name":"","type":"uint256","internalType":"uint256"}],"stateMutability":"nonpayable"},{"type":"function","name":"distributeRewards","inputs":[{"name":"amount","type":"uint256","internalType":"uint256"}],"outputs":[],"stateMutability":"nonpayable"},{"type":"function","name":"getAccruedRewards","inputs":[{"name":"user","type":"address","internalType":"address"}],"outputs":[{"name":"","type":"uint256","internalType":"uint256"}],"stateMutability":"view"},{"type":"function","name":"getRoleAdmin","inputs":[{"name":"role","type":"bytes32","internalType":"bytes32"}],"outputs":[{"name":"","type":"bytes32","internalType":"bytes32"}],"stateMutability":"view"},{"type":"function","name":"grantRole","inputs":[{"name":"role","type":"bytes32","internalType":"bytes32"},{"name":"account","type":"address","internalType":"address"}],"outputs":[],"stateMutability":"nonpayable"},{"type":"function","name":"hasRole","inputs":[{"name":"role","type":"bytes32","internalType":"bytes32"},{"name":"account","type":"address","internalType":"address"}],"outputs":[{"name":"","type":"bool","internalType":"bool"}],"stateMutability":"view"},{"type":"function","name":"renounceRole","inputs":[{"name":"role","type":"bytes32","internalType":"bytes32"},{"name":"callerConfirmation","type":"address","internalType":"address"}],"outputs":[],"stateMutability":"nonpayable"},{"type":"function","name":"revokeRole","inputs":[{"name":"role","type":"bytes32","internalType":"bytes32"},{"name":"account","type":"address","internalType":"address"}],"outputs":[],"stateMutability":"nonpayable"},{"type":"function","name":"rewards","inputs":[{"name":"","type":"address","internalType":"address"}],"outputs":[{"name":"","type":"uint256","internalType":"uint256"}],"stateMutability":"view"},{"type":"function","name":"rewardsPerShareStored","inputs":[],"outputs":[{"name":"","type":"uint256","internalType":"uint256"}],"stateMutability":"view"},{"type":"function","name":"rewardsToken","inputs":[],"outputs":[{"name":"","type":"address","internalType":"contract IERC20"}],"stateMutability":"view"},{"type":"function","name":"setVault","inputs":[{"name":"_vault","type":"address","internalType":"address"}],"outputs":[],"stateMutability":"nonpayable"},{"type":"function","name":"supportsInterface","inputs":[{"name":"interfaceId","type":"bytes4","internalType":"bytes4"}],"outputs":[{"name":"","type":"bool","internalType":"bool"}],"stateMutability":"view"},{"type":"function","name":"updateUserRewards","inputs":[{"name":"user","type":"address","internalType":"address"},{"name":"oldBalance","type":"uint256","internalType":"uint256"},{"name":"","type":"uint256","internalType":"uint256"}],"outputs":[],"stateMutability":"nonpayable"},{"type":"function","name":"userRewardsPerSharePaid","inputs":[{"name":"","type":"address","internalType":"address"}],"outputs":[{"name":"","type":"uint256","internalType":"uint256"}],"stateMutability":"view"},{"type":"function","name":"vault","inputs":[],"outputs":[{"name":"","type":"address","internalType":"address"}],"stateMutability":"view"},{"type":"event","name":"RewardsClaimed","inputs":[{"name":"user","type":"address","indexed":true,"internalType":"address"},{"name":"amount","type":"uint256","indexed":false,"internalType":"uint256"}],"anonymous":false},{"type":"event","name":"RewardsDistributed","inputs":[{"name":"amount","type":"uint256","indexed":false,"internalType":"uint256"}],"anonymous":false},{"type":"event","name":"RoleAdminChanged","inputs":[{"name":"role","type":"bytes32","indexed":true,"internalType":"bytes32"},{"name":"previousAdminRole","type":"bytes32","indexed":true,"internalType":"bytes32"},{"name":"newAdminRole","type":"bytes32","indexed":true,"internalType":"bytes32"}],"anonymous":false},{"type":"event","name":"RoleGranted","inputs":[{"name":"role","type":"bytes32","indexed":true,"internalType":"bytes32"},{"name":"account","type":"address","indexed":true,"internalType":"address"},{"name":"sender","type":"address","indexed":true,"internalType":"address"}],"anonymous":false},{"type":"event","name":"RoleRevoked","inputs":[{"name":"role","type":"bytes32","indexed":true,"internalType":"bytes32"},{"name":"account","type":"address","indexed":true,"internalType":"address"},{"name":"sender","type":"address","indexed":true,"internalType":"address"}],"anonymous":false},{"type":"event","name":"VaultSet","inputs":[{"name":"vault","type":"address","indexed":false,"internalType":"address"}],"anonymous":false},{"type":"error","name":"AccessControlBadConfirmation","inputs":[]},{"type":"error","name":"AccessControlUnauthorizedAccount","inputs":[{"name":"account","type":"address","internalType":"address"},{"name":"neededRole","type":"bytes32","internalType":"bytes32"}]},{"type":"error","name":"SafeERC20FailedOperation","inputs":[{"name":"token","type":"address","internalType":"address"}]}],"bytecode":{"object":"0x60a060405234801561000f575f5ffd5b50604051610fe8380380610fe883398101604081905261002e916101d1565b6001600160a01b0382166100985760405162461bcd60e51b815260206004820152602660248201527f526577617264734469737472696275746f723a207a65726f2072657761726473604482015265103a37b5b2b760d11b60648201526084015b60405180910390fd5b6001600160a01b0381166100ee5760405162461bcd60e51b815260206004820152601e60248201527f526577617264734469737472696275746f723a207a65726f2061646d696e0000604482015260640161008f565b6001600160a01b0382166080526101055f8261010d565b505050610202565b5f828152602081815260408083206001600160a01b038516845290915281205460ff166101ad575f838152602081815260408083206001600160a01b03861684529091529020805460ff191660011790556101653390565b6001600160a01b0316826001600160a01b0316847f2f8788117e7eff1d82e926ec794901d17c78024a50270940304540a733656f0d60405160405180910390a45060016101b0565b505f5b92915050565b80516001600160a01b03811681146101cc575f5ffd5b919050565b5f5f604083850312156101e2575f5ffd5b6101eb836101b6565b91506101f9602084016101b6565b90509250929050565b608051610dc76102215f395f818161021d015261097e0152610dc75ff3fe608060405234801561000f575f5ffd5b5060043610610106575f3560e01c806391d148541161009e578063d1af0c7d1161006e578063d1af0c7d14610218578063d547741f14610257578063ea817ab41461026a578063ef5cfb8c14610289578063fbfa77cf1461029c575f5ffd5b806391d14854146101e2578063a217fddf146101f5578063ac35e1fa146101fc578063acda95d714610205575f5ffd5b80632f2ff15d116100d95780632f2ff15d1461019457806336568abe146101a957806359974e38146101bc5780636817031b146101cf575f5ffd5b806301ffc9a71461010a5780630700037d14610132578063248a9ca31461015f5780632552aa1f14610181575b5f5ffd5b61011d610118366004610bf0565b6102af565b60405190151581526020015b60405180910390f35b610151610140366004610c39565b60046020525f908152604090205481565b604051908152602001610129565b61015161016d366004610c52565b5f9081526020819052604090206001015490565b61015161018f366004610c39565b6102e5565b6101a76101a2366004610c69565b6103c9565b005b6101a76101b7366004610c69565b6103f3565b6101a76101ca366004610c52565b61042b565b6101a76101dd366004610c39565b6105d3565b61011d6101f0366004610c69565b610681565b6101515f81565b61015160025481565b6101a7610213366004610c93565b6106a9565b61023f7f000000000000000000000000000000000000000000000000000000000000000081565b6040516001600160a01b039091168152602001610129565b6101a7610265366004610c69565b6107c0565b610151610278366004610c39565b60036020525f908152604090205481565b610151610297366004610c39565b6107e4565b60015461023f906001600160a01b031681565b5f6001600160e01b03198216637965db0b60e01b14806102df57506301ffc9a760e01b6001600160e01b03198316145b92915050565b6001546040516370a0823160e01b81526001600160a01b0383811660048301525f9283929116906370a0823190602401602060405180830381865afa158015610330573d5f5f3e3d5ffd5b505050506040513d601f19601f820116820180604052508101906103549190610cc3565b6001600160a01b0384165f908152600360205260408120546002549293509091670de0b6b3a76400009161038791610cee565b6103919084610d01565b61039b9190610d18565b6001600160a01b0385165f908152600460205260409020549091506103c1908290610d37565b949350505050565b5f828152602081905260409020600101546103e3816109f0565b6103ed83836109fd565b50505050565b6001600160a01b038116331461041c5760405163334bd91960e11b815260040160405180910390fd5b6104268282610a8c565b505050565b6001546001600160a01b0316331461045e5760405162461bcd60e51b815260040161045590610d4a565b60405180910390fd5b5f81116104ad5760405162461bcd60e51b815260206004820152601f60248201527f526577617264734469737472696275746f723a207a65726f20616d6f756e74006044820152606401610455565b600154604080516318160ddd60e01b815290515f926001600160a01b0316916318160ddd9160048083019260209291908290030181865afa1580156104f4573d5f5f3e3d5ffd5b505050506040513d601f19601f820116820180604052508101906105189190610cc3565b90505f81116105695760405162461bcd60e51b815260206004820152601d60248201527f526577617264734469737472696275746f723a206e6f207368617265730000006044820152606401610455565b8061057c670de0b6b3a764000084610d01565b6105869190610d18565b60025f8282546105969190610d37565b90915550506040518281527f6d1c76d614228b523baa4dcd9539e2c713b54ff4ab3ff2d1627e7f6cd32be442906020015b60405180910390a15050565b5f6105dd816109f0565b6001600160a01b0382166106335760405162461bcd60e51b815260206004820152601e60248201527f526577617264734469737472696275746f723a207a65726f207661756c7400006044820152606401610455565b600180546001600160a01b0319166001600160a01b0384169081179091556040519081527fe7ae49f883c825b05681b3e00e8be6fdea9ed2a8a45e4c6ecb9390fc44cce615906020016105c7565b5f918252602082815260408084206001600160a01b0393909316845291905290205460ff1690565b6001546001600160a01b031633146106d35760405162461bcd60e51b815260040161045590610d4a565b6001600160a01b0383166107295760405162461bcd60e51b815260206004820152601d60248201527f526577617264734469737472696275746f723a207a65726f20757365720000006044820152606401610455565b6001600160a01b0383165f90815260036020526040812054600254670de0b6b3a76400009161075791610cee565b6107619085610d01565b61076b9190610d18565b6001600160a01b0385165f90815260046020526040812080549293508392909190610797908490610d37565b90915550506002546001600160a01b039094165f90815260036020526040902093909355505050565b5f828152602081905260409020600101546107da816109f0565b6103ed8383610a8c565b6001545f906001600160a01b031633146108105760405162461bcd60e51b815260040161045590610d4a565b6001600160a01b0382166108665760405162461bcd60e51b815260206004820152601d60248201527f526577617264734469737472696275746f723a207a65726f20757365720000006044820152606401610455565b6001546040516370a0823160e01b81526001600160a01b0384811660048301525f9216906370a0823190602401602060405180830381865afa1580156108ae573d5f5f3e3d5ffd5b505050506040513d601f19601f820116820180604052508101906108d29190610cc3565b6001600160a01b0384165f908152600360205260408120546002549293509091670de0b6b3a76400009161090591610cee565b61090f9084610d01565b6109199190610d18565b6001600160a01b0385165f9081526004602052604081205491925090610940908390610d37565b6001600160a01b0386165f908152600460209081526040808320839055600254600390925290912055905080156103c1576109a56001600160a01b037f0000000000000000000000000000000000000000000000000000000000000000168683610af5565b846001600160a01b03167ffc30cddea38e2bf4d6ea7d3f9ed3b6ad7f176419f4963bd81318067a4aee73fe826040516109e091815260200190565b60405180910390a2949350505050565b6109fa8133610b47565b50565b5f610a088383610681565b610a85575f838152602081815260408083206001600160a01b03861684529091529020805460ff19166001179055610a3d3390565b6001600160a01b0316826001600160a01b0316847f2f8788117e7eff1d82e926ec794901d17c78024a50270940304540a733656f0d60405160405180910390a45060016102df565b505f6102df565b5f610a978383610681565b15610a85575f838152602081815260408083206001600160a01b0386168085529252808320805460ff1916905551339286917ff6391f5c32d9c69d2a47ea670b442974b53935d1edc7fd64eb21e047a839171b9190a45060016102df565b604080516001600160a01b038416602482015260448082018490528251808303909101815260649091019091526020810180516001600160e01b031663a9059cbb60e01b179052610426908490610b84565b610b518282610681565b610b805760405163e2517d3f60e01b81526001600160a01b038216600482015260248101839052604401610455565b5050565b5f5f60205f8451602086015f885af180610ba3576040513d5f823e3d81fd5b50505f513d91508115610bba578060011415610bc7565b6001600160a01b0384163b155b156103ed57604051635274afe760e01b81526001600160a01b0385166004820152602401610455565b5f60208284031215610c00575f5ffd5b81356001600160e01b031981168114610c17575f5ffd5b9392505050565b80356001600160a01b0381168114610c34575f5ffd5b919050565b5f60208284031215610c49575f5ffd5b610c1782610c1e565b5f60208284031215610c62575f5ffd5b5035919050565b5f5f60408385031215610c7a575f5ffd5b82359150610c8a60208401610c1e565b90509250929050565b5f5f5f60608486031215610ca5575f5ffd5b610cae84610c1e565b95602085013595506040909401359392505050565b5f60208284031215610cd3575f5ffd5b5051919050565b634e487b7160e01b5f52601160045260245ffd5b818103818111156102df576102df610cda565b80820281158282048414176102df576102df610cda565b5f82610d3257634e487b7160e01b5f52601260045260245ffd5b500490565b808201808211156102df576102df610cda565b60208082526027908201527f526577617264734469737472696275746f723a2063616c6c6572206973206e6f6040820152661d081d985d5b1d60ca1b60608201526080019056fea26469706673582212207b2c82934d010ae0b5af36643a9fa08f83da1f584498085b383fb634df2c26e064736f6c634300081b0033","linkReferences":{}},"methodIdentifiers":{"DEFAULT_ADMIN_ROLE()":"a217fddf","claimRewards(address)":"ef5cfb8c","distributeRewards(uint256)":"59974e38","getAccruedRewards(address)":"2552aa1f","getRoleAdmin(bytes32)":"248a9ca3","grantRole(bytes32,address)":"2f2ff15d","hasRole(bytes32,address)":"91d14854","renounceRole(bytes32,address)":"36568abe","revokeRole(bytes32,address)":"d547741f","rewards(address)":"0700037d","rewardsPerShareStored()":"ac35e1fa","rewardsToken()":"d1af0c7d","setVault(address)":"6817031b","supportsInterface(bytes4)":"01ffc9a7","updateUserRewards(address,uint256,uint256)":"acda95d7","userRewardsPerSharePaid(address)":"ea817ab4","vault()":"fbfa77cf"},"id":37}