{"abi":[{"type":"constructor","inputs":[{"name":"_rewardsToken","type":"address","internalType":"address"},{"name":"_admin","type":"address","internalType":"address"}],"stateMutability":"nonpayable"},{"type":"function","name":"DEFAULT_ADMIN_ROLE","inputs":[],"outputs":[{"name":"","type":"bytes32","internalType":"bytes32"}],"stateMutability":"view"},{"type":"function","name":"claimRewards","inputs":[{"name":"user","type":"address","internalType":"address"}],"outputs":[{"name":"","type":"uint256","internalType":"uint256"}],"stateMutability":"nonpayable"},{"type":"function","name":"distributeRewards","inputs":[{"name":"amount","type":"uint256","internalType":"uint256"}],"outputs":[],"stateMutability":"nonpayable"},{"type":"function","name":"getAccruedRewards","inputs":[{"name":"user","type":"address","internalType":"address"}],"outputs":[{"name":"","type":"uint256","internalType":"uint256"}],"stateMutability":"view"},{"type":"function","name":"getRoleAdmin","inputs":[{"name":"role","type":"bytes32","internalType":"bytes32"}],"outputs":[{"name":"","type":"bytes32","internalType":"bytes32"}],"stateMutability":"view"},{"type":"function","name":"grantRole","inputs":[{"name":"role","type":"bytes32","internalType":"bytes32"},{"name":"account","type":"address","internalType":"address"}],"outputs":[],"stateMutability":"nonpayable"},{"type":"function","name":"hasRole","inputs":[{"name":"role","type":"bytes32","internalType":"bytes32"},{"name":"account","type":"address","internalType":"address"}],"outputs":[{"name":"","type":"bool","internalType":"bool"}],"stateMutability":"view"},{"type":"function","name":"recoverTokens","inputs":[{"name":"tokenAddress","type":"address","internalType":"address"},{"name":"to","type":"address","internalType":"address"},{"name":"amount","type":"uint256","internalType":"uint256"}],"outputs":[],"stateMutability":"nonpayable"},{"type":"function","name":"renounceRole","inputs":[{"name":"role","type":"bytes32","internalType":"bytes32"},{"name":"callerConfirmation","type":"address","internalType":"address"}],"outputs":[],"stateMutability":"nonpayable"},{"type":"function","name":"revokeRole","inputs":[{"name":"role","type":"bytes32","internalType":"bytes32"},{"name":"account","type":"address","internalType":"address"}],"outputs":[],"stateMutability":"nonpayable"},{"type":"function","name":"rewards","inputs":[{"name":"","type":"address","internalType":"address"}],"outputs":[{"name":"","type":"uint256","internalType":"uint256"}],"stateMutability":"view"},{"type":"function","name":"rewardsPerShareStored","inputs":[],"outputs":[{"name":"","type":"uint256","internalType":"uint256"}],"stateMutability":"view"},{"type":"function","name":"rewardsToken","inputs":[],"outputs":[{"name":"","type":"address","internalType":"contract IERC20"}],"stateMutability":"view"},{"type":"function","name":"setVault","inputs":[{"name":"_vault","type":"address","internalType":"address"}],"outputs":[],"stateMutability":"nonpayable"},{"type":"function","name":"supportsInterface","inputs":[{"name":"interfaceId","type":"bytes4","internalType":"bytes4"}],"outputs":[{"name":"","type":"bool","internalType":"bool"}],"stateMutability":"view"},{"type":"function","name":"updateUserRewards","inputs":[{"name":"user","type":"address","internalType":"address"},{"name":"oldBalance","type":"uint256","internalType":"uint256"},{"name":"newBalance","type":"uint256","internalType":"uint256"}],"outputs":[],"stateMutability":"nonpayable"},{"type":"function","name":"userRewardsPerSharePaid","inputs":[{"name":"","type":"address","internalType":"address"}],"outputs":[{"name":"","type":"uint256","internalType":"uint256"}],"stateMutability":"view"},{"type":"function","name":"vault","inputs":[],"outputs":[{"name":"","type":"address","internalType":"address"}],"stateMutability":"view"},{"type":"event","name":"RewardsClaimed","inputs":[{"name":"user","type":"address","indexed":true,"internalType":"address"},{"name":"amount","type":"uint256","indexed":false,"internalType":"uint256"}],"anonymous":false},{"type":"event","name":"RewardsDistributed","inputs":[{"name":"amount","type":"uint256","indexed":false,"internalType":"uint256"}],"anonymous":false},{"type":"event","name":"RoleAdminChanged","inputs":[{"name":"role","type":"bytes32","indexed":true,"internalType":"bytes32"},{"name":"previousAdminRole","type":"bytes32","indexed":true,"internalType":"bytes32"},{"name":"newAdminRole","type":"bytes32","indexed":true,"internalType":"bytes32"}],"anonymous":false},{"type":"event","name":"RoleGranted","inputs":[{"name":"role","type":"bytes32","indexed":true,"internalType":"bytes32"},{"name":"account","type":"address","indexed":true,"internalType":"address"},{"name":"sender","type":"address","indexed":true,"internalType":"address"}],"anonymous":false},{"type":"event","name":"RoleRevoked","inputs":[{"name":"role","type":"bytes32","indexed":true,"internalType":"bytes32"},{"name":"account","type":"address","indexed":true,"internalType":"address"},{"name":"sender","type":"address","indexed":true,"internalType":"address"}],"anonymous":false},{"type":"event","name":"VaultSet","inputs":[{"name":"vault","type":"address","indexed":false,"internalType":"address"}],"anonymous":false},{"type":"error","name":"AccessControlBadConfirmation","inputs":[]},{"type":"error","name":"AccessControlUnauthorizedAccount","inputs":[{"name":"account","type":"address","internalType":"address"},{"name":"neededRole","type":"bytes32","internalType":"bytes32"}]},{"type":"error","name":"ReentrancyGuardReentrantCall","inputs":[]},{"type":"error","name":"SafeERC20FailedOperation","inputs":[{"name":"token","type":"address","internalType":"address"}]}],"bytecode":{"object":"0x60a060405234801561000f575f5ffd5b5060405161149c38038061149c83398101604081905261002e916101d5565b600180556001600160a01b03821661009c5760405162461bcd60e51b815260206004820152602660248201527f526577617264734469737472696275746f723a207a65726f2072657761726473604482015265103a37b5b2b760d11b60648201526084015b60405180910390fd5b6001600160a01b0381166100f25760405162461bcd60e51b815260206004820152601e60248201527f526577617264734469737472696275746f723a207a65726f2061646d696e00006044820152606401610093565b6001600160a01b0382166080526101095f82610111565b505050610206565b5f828152602081815260408083206001600160a01b038516845290915281205460ff166101b1575f838152602081815260408083206001600160a01b03861684529091529020805460ff191660011790556101693390565b6001600160a01b0316826001600160a01b0316847f2f8788117e7eff1d82e926ec794901d17c78024a50270940304540a733656f0d60405160405180910390a45060016101b4565b505f5b92915050565b80516001600160a01b03811681146101d0575f5ffd5b919050565b5f5f604083850312156101e6575f5ffd5b6101ef836101ba565b91506101fd602084016101ba565b90509250929050565b60805161125b6102415f395f818161023b015281816105b9015281816107bf0152818161080b01528181610cc60152610dab015261125b5ff3fe608060405234801561000f575f5ffd5b5060043610610111575f3560e01c806391d148541161009e578063d1af0c7d1161006e578063d1af0c7d14610236578063d547741f14610275578063ea817ab414610288578063ef5cfb8c146102a7578063fbfa77cf146102ba575f5ffd5b806391d1485414610200578063a217fddf14610213578063ac35e1fa1461021a578063acda95d714610223575f5ffd5b80632f2ff15d116100e45780632f2ff15d1461019f57806336568abe146101b457806359974e38146101c75780635f3e849f146101da5780636817031b146101ed575f5ffd5b806301ffc9a7146101155780630700037d1461013d578063248a9ca31461016a5780632552aa1f1461018c575b5f5ffd5b61012861012336600461104f565b6102cd565b60405190151581526020015b60405180910390f35b61015c61014b366004611093565b60056020525f908152604090205481565b604051908152602001610134565b61015c6101783660046110ac565b5f9081526020819052604090206001015490565b61015c61019a366004611093565b610303565b6101b26101ad3660046110c3565b6103fa565b005b6101b26101c23660046110c3565b610424565b6101b26101d53660046110ac565b61045c565b6101b26101e83660046110ed565b6106fb565b6101b26101fb366004611093565b6108f9565b61012861020e3660046110c3565b6109ae565b61015c5f81565b61015c60035481565b6101b2610231366004611127565b6109d6565b61025d7f000000000000000000000000000000000000000000000000000000000000000081565b6040516001600160a01b039091168152602001610134565b6101b26102833660046110c3565b610af6565b61015c610296366004611093565b60046020525f908152604090205481565b61015c6102b5366004611093565b610b1a565b60025461025d906001600160a01b031681565b5f6001600160e01b03198216637965db0b60e01b14806102fd57506301ffc9a760e01b6001600160e01b03198316145b92915050565b5f6001600160a01b03821661031957505f919050565b6002546040516370a0823160e01b81526001600160a01b0384811660048301525f9216906370a0823190602401602060405180830381865afa158015610361573d5f5f3e3d5ffd5b505050506040513d601f19601f820116820180604052508101906103859190611157565b6001600160a01b0384165f908152600460205260408120546003549293509091670de0b6b3a7640000916103b891611182565b6103c29084611195565b6103cc91906111ac565b6001600160a01b0385165f908152600560205260409020549091506103f29082906111cb565b949350505050565b5f8281526020819052604090206001015461041481610e28565b61041e8383610e32565b50505050565b6001600160a01b038116331461044d5760405163334bd91960e11b815260040160405180910390fd5b6104578282610ec1565b505050565b6002546001600160a01b0316331461048f5760405162461bcd60e51b8152600401610486906111de565b60405180910390fd5b610497610f2a565b5f81116104e65760405162461bcd60e51b815260206004820152601f60248201527f526577617264734469737472696275746f723a207a65726f20616d6f756e74006044820152606401610486565b600254604080516318160ddd60e01b815290515f926001600160a01b0316916318160ddd9160048083019260209291908290030181865afa15801561052d573d5f5f3e3d5ffd5b505050506040513d601f19601f820116820180604052508101906105519190611157565b90505f81116105a25760405162461bcd60e51b815260206004820152601d60248201527f526577617264734469737472696275746f723a206e6f207368617265730000006044820152606401610486565b6040516370a0823160e01b815230600482015282907f00000000000000000000000000000000000000000000000000000000000000006001600160a01b0316906370a0823190602401602060405180830381865afa158015610606573d5f5f3e3d5ffd5b505050506040513d601f19601f8201168201806040525081019061062a9190611157565b10156106895760405162461bcd60e51b815260206004820152602860248201527f526577617264734469737472696275746f723a20696e73756666696369656e74604482015267207265776172647360c01b6064820152608401610486565b8061069c670de0b6b3a764000084611195565b6106a691906111ac565b60035f8282546106b691906111cb565b90915550506040518281527f6d1c76d614228b523baa4dcd9539e2c713b54ff4ab3ff2d1627e7f6cd32be4429060200160405180910390a1506106f860018055565b50565b5f61070581610e28565b61070d610f2a565b6001600160a01b03831661076e5760405162461bcd60e51b815260206004820152602260248201527f526577617264734469737472696275746f723a207a65726f20726563697069656044820152611b9d60f21b6064820152608401610486565b5f82116107bd5760405162461bcd60e51b815260206004820152601f60248201527f526577617264734469737472696275746f723a207a65726f20616d6f756e74006044820152606401610486565b7f00000000000000000000000000000000000000000000000000000000000000006001600160a01b0316846001600160a01b0316036108dc576040516370a0823160e01b81523060048201527f00000000000000000000000000000000000000000000000000000000000000006001600160a01b0316906370a0823190602401602060405180830381865afa158015610858573d5f5f3e3d5ffd5b505050506040513d601f19601f8201168201806040525081019061087c9190611157565b8211156108dc5760405162461bcd60e51b815260206004820152602860248201527f526577617264734469737472696275746f723a20696e73756666696369656e746044820152672062616c616e636560c01b6064820152608401610486565b6108f06001600160a01b0385168484610f54565b61041e60018055565b5f61090381610e28565b6001600160a01b0382166109595760405162461bcd60e51b815260206004820152601e60248201527f526577617264734469737472696275746f723a207a65726f207661756c7400006044820152606401610486565b600280546001600160a01b0319166001600160a01b0384169081179091556040519081527fe7ae49f883c825b05681b3e00e8be6fdea9ed2a8a45e4c6ecb9390fc44cce6159060200160405180910390a15050565b5f918252602082815260408084206001600160a01b0393909316845291905290205460ff1690565b6002546001600160a01b03163314610a005760405162461bcd60e51b8152600401610486906111de565b610a08610f2a565b6001600160a01b038316610a5e5760405162461bcd60e51b815260206004820152601d60248201527f526577617264734469737472696275746f723a207a65726f20757365720000006044820152606401610486565b6001600160a01b0383165f90815260046020526040812054600354670de0b6b3a764000091610a8c91611182565b610a969085611195565b610aa091906111ac565b6001600160a01b0385165f90815260056020526040812080549293508392909190610acc9084906111cb565b90915550506003546001600160a01b0385165f908152600460205260409020555061045760018055565b5f82815260208190526040902060010154610b1081610e28565b61041e8383610ec1565b6002545f906001600160a01b03163314610b465760405162461bcd60e51b8152600401610486906111de565b610b4e610f2a565b6001600160a01b038216610ba45760405162461bcd60e51b815260206004820152601d60248201527f526577617264734469737472696275746f723a207a65726f20757365720000006044820152606401610486565b6002546040516370a0823160e01b81526001600160a01b0384811660048301525f9216906370a0823190602401602060405180830381865afa158015610bec573d5f5f3e3d5ffd5b505050506040513d601f19601f82011682018060405250810190610c109190611157565b6001600160a01b0384165f908152600460205260408120546003549293509091670de0b6b3a764000091610c4391611182565b610c4d9084611195565b610c5791906111ac565b6001600160a01b0385165f9081526005602052604081205491925090610c7e9083906111cb565b6001600160a01b0386165f90815260056020908152604080832083905560035460049092529091205590508015610e16576040516370a0823160e01b815230600482015281907f00000000000000000000000000000000000000000000000000000000000000006001600160a01b0316906370a0823190602401602060405180830381865afa158015610d13573d5f5f3e3d5ffd5b505050506040513d601f19601f82011682018060405250810190610d379190611157565b1015610d9e5760405162461bcd60e51b815260206004820152603060248201527f526577617264734469737472696275746f723a20696e73756666696369656e7460448201526f20726577617264732062616c616e636560801b6064820152608401610486565b610dd26001600160a01b037f0000000000000000000000000000000000000000000000000000000000000000168683610f54565b846001600160a01b03167ffc30cddea38e2bf4d6ea7d3f9ed3b6ad7f176419f4963bd81318067a4aee73fe82604051610e0d91815260200190565b60405180910390a25b92505050610e2360018055565b919050565b6106f88133610fa6565b5f610e3d83836109ae565b610eba575f838152602081815260408083206001600160a01b03861684529091529020805460ff19166001179055610e723390565b6001600160a01b0316826001600160a01b0316847f2f8788117e7eff1d82e926ec794901d17c78024a50270940304540a733656f0d60405160405180910390a45060016102fd565b505f6102fd565b5f610ecc83836109ae565b15610eba575f838152602081815260408083206001600160a01b0386168085529252808320805460ff1916905551339286917ff6391f5c32d9c69d2a47ea670b442974b53935d1edc7fd64eb21e047a839171b9190a45060016102fd565b600260015403610f4d57604051633ee5aeb560e01b815260040160405180910390fd5b6002600155565b604080516001600160a01b038416602482015260448082018490528251808303909101815260649091019091526020810180516001600160e01b031663a9059cbb60e01b179052610457908490610fe3565b610fb082826109ae565b610fdf5760405163e2517d3f60e01b81526001600160a01b038216600482015260248101839052604401610486565b5050565b5f5f60205f8451602086015f885af180611002576040513d5f823e3d81fd5b50505f513d91508115611019578060011415611026565b6001600160a01b0384163b155b1561041e57604051635274afe760e01b81526001600160a01b0385166004820152602401610486565b5f6020828403121561105f575f5ffd5b81356001600160e01b031981168114611076575f5ffd5b9392505050565b80356001600160a01b0381168114610e23575f5ffd5b5f602082840312156110a3575f5ffd5b6110768261107d565b5f602082840312156110bc575f5ffd5b5035919050565b5f5f604083850312156110d4575f5ffd5b823591506110e46020840161107d565b90509250929050565b5f5f5f606084860312156110ff575f5ffd5b6111088461107d565b92506111166020850161107d565b929592945050506040919091013590565b5f5f5f60608486031215611139575f5ffd5b6111428461107d565b95602085013595506040909401359392505050565b5f60208284031215611167575f5ffd5b5051919050565b634e487b7160e01b5f52601160045260245ffd5b818103818111156102fd576102fd61116e565b80820281158282048414176102fd576102fd61116e565b5f826111c657634e487b7160e01b5f52601260045260245ffd5b500490565b808201808211156102fd576102fd61116e565b60208082526027908201527f526577617264734469737472696275746f723a2063616c6c6572206973206e6f6040820152661d081d985d5b1d60ca1b60608201526080019056fea264697066735822122079168dd60a59e98685fde681917864f662d960286264b6406da9ee309f142e3064736f6c634300081b0033","linkReferences":{}},"methodIdentifiers":{"DEFAULT_ADMIN_ROLE()":"a217fddf","claimRewards(address)":"ef5cfb8c","distributeRewards(uint256)":"59974e38","getAccruedRewards(address)":"2552aa1f","getRoleAdmin(bytes32)":"248a9ca3","grantRole(bytes32,address)":"2f2ff15d","hasRole(bytes32,address)":"91d14854","recoverTokens(address,address,uint256)":"5f3e849f","renounceRole(bytes32,address)":"36568abe","revokeRole(bytes32,address)":"d547741f","rewards(address)":"0700037d","rewardsPerShareStored()":"ac35e1fa","rewardsToken()":"d1af0c7d","setVault(address)":"6817031b","supportsInterface(bytes4)":"01ffc9a7","updateUserRewards(address,uint256,uint256)":"acda95d7","userRewardsPerSharePaid(address)":"ea817ab4","vault()":"fbfa77cf"},"id":39}