{"abi":[{"type":"constructor","inputs":[{"name":"_vault","type":"address","internalType":"address"},{"name":"_supportedAssets","type":"address[]","internalType":"address[]"}],"stateMutability":"nonpayable"},{"type":"function","name":"AGENT_ROLE","inputs":[],"outputs":[{"name":"","type":"bytes32","internalType":"bytes32"}],"stateMutability":"view"},{"type":"function","name":"DEFAULT_ADMIN_ROLE","inputs":[],"outputs":[{"name":"","type":"bytes32","internalType":"bytes32"}],"stateMutability":"view"},{"type":"function","name":"GUARDIAN_ROLE","inputs":[],"outputs":[{"name":"","type":"bytes32","internalType":"bytes32"}],"stateMutability":"view"},{"type":"function","name":"MAX_RESERVE_RATIO","inputs":[],"outputs":[{"name":"","type":"uint256","internalType":"uint256"}],"stateMutability":"view"},{"type":"function","name":"VAULT_ROLE","inputs":[],"outputs":[{"name":"","type":"bytes32","internalType":"bytes32"}],"stateMutability":"view"},{"type":"function","name":"actionNames","inputs":[{"name":"","type":"uint256","internalType":"uint256"}],"outputs":[{"name":"","type":"string","internalType":"string"}],"stateMutability":"view"},{"type":"function","name":"addSupportedAsset","inputs":[{"name":"asset","type":"address","internalType":"address"}],"outputs":[],"stateMutability":"nonpayable"},{"type":"function","name":"claimRewards","inputs":[{"name":"to","type":"address","internalType":"address"}],"outputs":[{"name":"","type":"uint256","internalType":"uint256"}],"stateMutability":"nonpayable"},{"type":"function","name":"deposit","inputs":[{"name":"asset","type":"address","internalType":"address"},{"name":"amount","type":"uint256","internalType":"uint256"}],"outputs":[{"name":"","type":"uint256","internalType":"uint256"}],"stateMutability":"nonpayable"},{"type":"function","name":"description","inputs":[],"outputs":[{"name":"","type":"string","internalType":"string"}],"stateMutability":"view"},{"type":"function","name":"emergencyRecipient","inputs":[],"outputs":[{"name":"","type":"address","internalType":"address"}],"stateMutability":"view"},{"type":"function","name":"emergencyWithdraw","inputs":[{"name":"asset","type":"address","internalType":"address"}],"outputs":[],"stateMutability":"nonpayable"},{"type":"function","name":"executeStrategy","inputs":[{"name":"actionId","type":"uint256","internalType":"uint256"},{"name":"data","type":"bytes","internalType":"bytes"}],"outputs":[{"name":"success","type":"bool","internalType":"bool"},{"name":"result","type":"bytes","internalType":"bytes"}],"stateMutability":"nonpayable"},{"type":"function","name":"getAvailableActions","inputs":[],"outputs":[{"name":"actionIds","type":"uint256[]","internalType":"uint256[]"},{"name":"names","type":"string[]","internalType":"string[]"},{"name":"descriptions","type":"string[]","internalType":"string[]"}],"stateMutability":"view"},{"type":"function","name":"getBalance","inputs":[{"name":"asset","type":"address","internalType":"address"}],"outputs":[{"name":"","type":"uint256","internalType":"uint256"}],"stateMutability":"view"},{"type":"function","name":"getPerformanceMetrics","inputs":[],"outputs":[{"name":"apy","type":"uint256","internalType":"uint256"},{"name":"tvl","type":"uint256","internalType":"uint256"},{"name":"risk","type":"uint8","internalType":"uint8"}],"stateMutability":"view"},{"type":"function","name":"getRoleAdmin","inputs":[{"name":"role","type":"bytes32","internalType":"bytes32"}],"outputs":[{"name":"","type":"bytes32","internalType":"bytes32"}],"stateMutability":"view"},{"type":"function","name":"getStrategyInfo","inputs":[],"outputs":[{"name":"","type":"string","internalType":"string"},{"name":"","type":"string","internalType":"string"},{"name":"","type":"string","internalType":"string"},{"name":"","type":"address[]","internalType":"address[]"}],"stateMutability":"view"},{"type":"function","name":"getWithdrawableAmount","inputs":[{"name":"asset","type":"address","internalType":"address"}],"outputs":[{"name":"","type":"uint256","internalType":"uint256"}],"stateMutability":"view"},{"type":"function","name":"grantAgentRole","inputs":[{"name":"agent","type":"address","internalType":"address"}],"outputs":[],"stateMutability":"nonpayable"},{"type":"function","name":"grantGuardianRole","inputs":[{"name":"guardian","type":"address","internalType":"address"}],"outputs":[],"stateMutability":"nonpayable"},{"type":"function","name":"grantRole","inputs":[{"name":"role","type":"bytes32","internalType":"bytes32"},{"name":"account","type":"address","internalType":"address"}],"outputs":[],"stateMutability":"nonpayable"},{"type":"function","name":"hasRole","inputs":[{"name":"role","type":"bytes32","internalType":"bytes32"},{"name":"account","type":"address","internalType":"address"}],"outputs":[{"name":"","type":"bool","internalType":"bool"}],"stateMutability":"view"},{"type":"function","name":"historicalReturns","inputs":[],"outputs":[{"name":"","type":"uint256","internalType":"uint256"}],"stateMutability":"view"},{"type":"function","name":"lastRebalanceTimestamp","inputs":[],"outputs":[{"name":"","type":"uint256","internalType":"uint256"}],"stateMutability":"view"},{"type":"function","name":"minLiquidity","inputs":[],"outputs":[{"name":"","type":"uint256","internalType":"uint256"}],"stateMutability":"view"},{"type":"function","name":"name","inputs":[],"outputs":[{"name":"","type":"string","internalType":"string"}],"stateMutability":"view"},{"type":"function","name":"pause","inputs":[],"outputs":[],"stateMutability":"nonpayable"},{"type":"function","name":"paused","inputs":[],"outputs":[{"name":"","type":"bool","internalType":"bool"}],"stateMutability":"view"},{"type":"function","name":"provideEmergencyLiquidity","inputs":[{"name":"asset","type":"address","internalType":"address"},{"name":"amount","type":"uint256","internalType":"uint256"}],"outputs":[{"name":"","type":"uint256","internalType":"uint256"}],"stateMutability":"nonpayable"},{"type":"function","name":"removeSupportedAsset","inputs":[{"name":"asset","type":"address","internalType":"address"}],"outputs":[],"stateMutability":"nonpayable"},{"type":"function","name":"renounceRole","inputs":[{"name":"role","type":"bytes32","internalType":"bytes32"},{"name":"callerConfirmation","type":"address","internalType":"address"}],"outputs":[],"stateMutability":"nonpayable"},{"type":"function","name":"reserveRatio","inputs":[],"outputs":[{"name":"","type":"uint256","internalType":"uint256"}],"stateMutability":"view"},{"type":"function","name":"revokeAgentRole","inputs":[{"name":"agent","type":"address","internalType":"address"}],"outputs":[],"stateMutability":"nonpayable"},{"type":"function","name":"revokeGuardianRole","inputs":[{"name":"guardian","type":"address","internalType":"address"}],"outputs":[],"stateMutability":"nonpayable"},{"type":"function","name":"revokeRole","inputs":[{"name":"role","type":"bytes32","internalType":"bytes32"},{"name":"account","type":"address","internalType":"address"}],"outputs":[],"stateMutability":"nonpayable"},{"type":"function","name":"riskLevel","inputs":[],"outputs":[{"name":"","type":"uint8","internalType":"uint8"}],"stateMutability":"view"},{"type":"function","name":"setEmergencyRecipient","inputs":[{"name":"_emergencyRecipient","type":"address","internalType":"address"}],"outputs":[],"stateMutability":"nonpayable"},{"type":"function","name":"supportedAssets","inputs":[{"name":"","type":"uint256","internalType":"uint256"}],"outputs":[{"name":"","type":"address","internalType":"address"}],"stateMutability":"view"},{"type":"function","name":"supportsInterface","inputs":[{"name":"interfaceId","type":"bytes4","internalType":"bytes4"}],"outputs":[{"name":"","type":"bool","internalType":"bool"}],"stateMutability":"view"},{"type":"function","name":"totalDeposited","inputs":[],"outputs":[{"name":"","type":"uint256","internalType":"uint256"}],"stateMutability":"view"},{"type":"function","name":"totalWithdrawn","inputs":[],"outputs":[{"name":"","type":"uint256","internalType":"uint256"}],"stateMutability":"view"},{"type":"function","name":"unpause","inputs":[],"outputs":[],"stateMutability":"nonpayable"},{"type":"function","name":"validateAction","inputs":[{"name":"actionId","type":"uint256","internalType":"uint256"},{"name":"data","type":"bytes","internalType":"bytes"}],"outputs":[{"name":"isValid","type":"bool","internalType":"bool"},{"name":"reason","type":"string","internalType":"string"}],"stateMutability":"view"},{"type":"function","name":"vault","inputs":[],"outputs":[{"name":"","type":"address","internalType":"address"}],"stateMutability":"view"},{"type":"function","name":"version","inputs":[],"outputs":[{"name":"","type":"string","internalType":"string"}],"stateMutability":"view"},{"type":"function","name":"withdraw","inputs":[{"name":"asset","type":"address","internalType":"address"},{"name":"amount","type":"uint256","internalType":"uint256"}],"outputs":[{"name":"","type":"uint256","internalType":"uint256"}],"stateMutability":"nonpayable"},{"type":"event","name":"AssetAdded","inputs":[{"name":"asset","type":"address","indexed":true,"internalType":"address"}],"anonymous":false},{"type":"event","name":"AssetDeposited","inputs":[{"name":"asset","type":"address","indexed":true,"internalType":"address"},{"name":"amount","type":"uint256","indexed":false,"internalType":"uint256"}],"anonymous":false},{"type":"event","name":"AssetRemoved","inputs":[{"name":"asset","type":"address","indexed":true,"internalType":"address"}],"anonymous":false},{"type":"event","name":"AssetWithdrawn","inputs":[{"name":"asset","type":"address","indexed":true,"internalType":"address"},{"name":"amount","type":"uint256","indexed":false,"internalType":"uint256"}],"anonymous":false},{"type":"event","name":"CustomFunctionExecuted","inputs":[{"name":"data","type":"bytes","indexed":false,"internalType":"bytes"},{"name":"success","type":"bool","indexed":false,"internalType":"bool"}],"anonymous":false},{"type":"event","name":"EmergencyLiquidityProvided","inputs":[{"name":"asset","type":"address","indexed":true,"internalType":"address"},{"name":"amount","type":"uint256","indexed":false,"internalType":"uint256"}],"anonymous":false},{"type":"event","name":"EmergencyWithdrawal","inputs":[{"name":"asset","type":"address","indexed":true,"internalType":"address"},{"name":"amount","type":"uint256","indexed":false,"internalType":"uint256"},{"name":"recipient","type":"address","indexed":false,"internalType":"address"}],"anonymous":false},{"type":"event","name":"MinLiquidityUpdated","inputs":[{"name":"oldValue","type":"uint256","indexed":false,"internalType":"uint256"},{"name":"newValue","type":"uint256","indexed":false,"internalType":"uint256"}],"anonymous":false},{"type":"event","name":"Paused","inputs":[{"name":"account","type":"address","indexed":false,"internalType":"address"}],"anonymous":false},{"type":"event","name":"RebalancePerformed","inputs":[{"name":"timestamp","type":"uint256","indexed":false,"internalType":"uint256"}],"anonymous":false},{"type":"event","name":"ReserveRatioUpdated","inputs":[{"name":"oldRatio","type":"uint256","indexed":false,"internalType":"uint256"},{"name":"newRatio","type":"uint256","indexed":false,"internalType":"uint256"}],"anonymous":false},{"type":"event","name":"RoleAdminChanged","inputs":[{"name":"role","type":"bytes32","indexed":true,"internalType":"bytes32"},{"name":"previousAdminRole","type":"bytes32","indexed":true,"internalType":"bytes32"},{"name":"newAdminRole","type":"bytes32","indexed":true,"internalType":"bytes32"}],"anonymous":false},{"type":"event","name":"RoleGranted","inputs":[{"name":"role","type":"bytes32","indexed":true,"internalType":"bytes32"},{"name":"account","type":"address","indexed":true,"internalType":"address"},{"name":"sender","type":"address","indexed":true,"internalType":"address"}],"anonymous":false},{"type":"event","name":"RoleRevoked","inputs":[{"name":"role","type":"bytes32","indexed":true,"internalType":"bytes32"},{"name":"account","type":"address","indexed":true,"internalType":"address"},{"name":"sender","type":"address","indexed":true,"internalType":"address"}],"anonymous":false},{"type":"event","name":"StrategyExecuted","inputs":[{"name":"actionId","type":"uint256","indexed":true,"internalType":"uint256"},{"name":"success","type":"bool","indexed":false,"internalType":"bool"}],"anonymous":false},{"type":"event","name":"Unpaused","inputs":[{"name":"account","type":"address","indexed":false,"internalType":"address"}],"anonymous":false},{"type":"error","name":"AccessControlBadConfirmation","inputs":[]},{"type":"error","name":"AccessControlUnauthorizedAccount","inputs":[{"name":"account","type":"address","internalType":"address"},{"name":"neededRole","type":"bytes32","internalType":"bytes32"}]},{"type":"error","name":"EnforcedPause","inputs":[]},{"type":"error","name":"ExpectedPause","inputs":[]},{"type":"error","name":"ReentrancyGuardReentrantCall","inputs":[]},{"type":"error","name":"SafeERC20FailedOperation","inputs":[{"name":"token","type":"address","internalType":"address"}]}],"bytecode":{"object":"0x60a06040526014600f5568056bc75e2d63100000601055348015610021575f5ffd5b506040516134ff3803806134ff833981016040819052610040916107c7565b816040518060400160405280601081526020016f44656661756c7420537472617465677960801b8152506040518060600160405280603f81526020016134c0603f91396040805180820190915260058152640312e302e360dc1b602082015260018080556002805460ff1916905585906001600160a01b03861661011b5760405162461bcd60e51b815260206004820152602760248201527f4261736553747261746567793a207661756c7420697320746865207a65726f206044820152666164647265737360c81b60648201526084015b60405180910390fd5b60018160ff1610158015610133575060058160ff1611155b61018d5760405162461bcd60e51b815260206004820152602560248201527f4261736553747261746567793a207269736b206c6576656c206f7574206f662060448201526472616e676560d81b6064820152608401610112565b6001600160a01b03861660805260036101a68682610929565b5060046101b38582610929565b5060056101c08482610929565b5081516101d49060069060208501906106e8565b50600b805460ff191660ff83161790556101ee5f8761063f565b506102197f31e0210044b4f6757ce6aa31f9c6e8d4896d24a755014887391a926c5224d9598761063f565b5050600e80546001600160a01b0319166001600160a01b03969096169590951790945550504260075550506040805160a08101825260018152600260208201526003918101919091526004606082015260056080820181905261027e91600d9161074b565b5060408051808201909152600781526611195c1bdcda5d60ca1b60208083019190915260015f52600c90527fd421a5181c571bba3f01190c922c3b2a896fc1d84e86c9f17ac10e67ebef8b5c906102d59082610929565b50604080518082019091526008815267576974686472617760c01b60208083019190915260025f52600c90527f5d6016397a73f5e079297ac5a36fef17b4d9c3831618e63ab105738020ddd7209061032d9082610929565b50604080518082019091526011815270536574205265736572766520526174696f60781b60208083019190915260035f52600c90527fc0da782485e77ae272268ae0a3ff44c1552ecb60b3743924de17a815e0a3cfd79061038e9082610929565b5060408051808201909152600f81526e21bab9ba37b690233ab731ba34b7b760891b60208083019190915260045f52600c90527f5b84bb9e0f5aa9cc45a8bb66468db5d4816d1e75ff86b5e1f1dd8d144dab8097906103ed9082610929565b5060408051808201909152601581527f536574204d696e696d756d204c6971756964697479000000000000000000000060208083019190915260055f52600c90527f2cd9ebf6ff19cdd7ffcc447d7c7d47b5991f5c7392a04512134e765802361fa69061045a9082610929565b506040805180820190915260208082527f4465706f7369742061737365747320696e746f207468652073747261746567798183015260015f52601190527f17bc176d2408558f6e4111feebc3cab4e16b63e967be91cde721f4c8a488b552906104c39082610929565b5060405180606001604052806021815260200161347a6021913960025f5260116020527f08037d7b151cc412d25674a4e66b334d9ae9d2e5517a7feaae5cdb828bf1c628906105129082610929565b5060405180606001604052806025815260200161349b6025913960035f5260116020527f9bfbaa59f8e10e7868f8b402de9d605a390c45ddaebd8c9de3c6f31e733c87ff906105619082610929565b5060408051808201909152601e81527f45786563757465206120637573746f6d2066756e6374696f6e2063616c6c000060208083019190915260045f52601190527f251164fe1d8864fe5e86082eae9c288bc2b58695a4d28538dfe86e9e4f175585906105ce9082610929565b506040805180820190915260208082527f53657420746865206d696e696d756d206c6971756964697479206275666665728183015260055f52601190527fc550213cee30afd5e67ccba7be3d381bbc169034ae08eb3ec9168caca9fe55e7906106379082610929565b5050506109e3565b5f828152602081815260408083206001600160a01b038516845290915281205460ff166106df575f838152602081815260408083206001600160a01b03861684529091529020805460ff191660011790556106973390565b6001600160a01b0316826001600160a01b0316847f2f8788117e7eff1d82e926ec794901d17c78024a50270940304540a733656f0d60405160405180910390a45060016106e2565b505f5b92915050565b828054828255905f5260205f2090810192821561073b579160200282015b8281111561073b57825182546001600160a01b0319166001600160a01b03909116178255602090920191600190910190610706565b50610747929150610784565b5090565b828054828255905f5260205f2090810192821561073b579160200282015b8281111561073b578251825591602001919060010190610769565b5b80821115610747575f8155600101610785565b80516001600160a01b03811681146107ae575f5ffd5b919050565b634e487b7160e01b5f52604160045260245ffd5b5f5f604083850312156107d8575f5ffd5b6107e183610798565b60208401519092506001600160401b038111156107fc575f5ffd5b8301601f8101851361080c575f5ffd5b80516001600160401b03811115610825576108256107b3565b604051600582901b90603f8201601f191681016001600160401b0381118282101715610853576108536107b3565b604052918252602081840181019290810188841115610870575f5ffd5b6020850194505b838510156108965761088885610798565b815260209485019401610877565b50809450505050509250929050565b600181811c908216806108b957607f821691505b6020821081036108d757634e487b7160e01b5f52602260045260245ffd5b50919050565b601f82111561092457805f5260205f20601f840160051c810160208510156109025750805b601f840160051c820191505b81811015610921575f815560010161090e565b50505b505050565b81516001600160401b03811115610942576109426107b3565b6109568161095084546108a5565b846108dd565b6020601f821160018114610988575f83156109715750848201515b5f19600385901b1c1916600184901b178455610921565b5f84815260208120601f198516915b828110156109b75787850151825560209485019460019092019101610997565b50848210156109d457868401515f19600387901b60f8161c191681555b50505050600190811b01905550565b608051612a71610a095f395f81816105d001528181610c3501526120590152612a715ff3fe608060405234801561000f575f5ffd5b506004361061028c575f3560e01c80637284e41611610161578063d547741f116100ca578063f8b2cb4f11610084578063f8b2cb4f14610592578063f9757313146105a5578063fac09e87146105b8578063fbfa77cf146105cb578063ff083a97146105f2578063ff50abdc14610618575f5ffd5b8063d547741f14610520578063e430431314610533578063ef5cfb8c14610546578063f3fef3a314610559578063f58f41001461056c578063f67771751461057f575f5ffd5b8063a217fddf1161011b578063a217fddf1461049c578063a62b33be146104a3578063b83d8157146104c2578063be9ee11f146104cb578063c68dbb37146104f6578063c6e5554a14610509575f5ffd5b80637284e4161461043a5780638456cb59146104425780638b7446021461044a57806391d148541461045d5780639613092d1461047057806398c4f1ac14610488575f5ffd5b8063252cf2d2116102035780634b319713116101bd5780634b319713146103ef5780634b4b5389146103f857806354fd4d501461040b5780635c40c7e6146104135780635c975abb1461041c5780636ff1c9bc14610427575f5ffd5b8063252cf2d2146103925780632ce198ea1461039b5780632f2ff15d146103ae57806336568abe146103c15780633f4ba83a146103d457806347e7ef24146103dc575f5ffd5b80631a8a2b68116102545780631a8a2b68146103015780631b035932146103225780631c46bc6f1461033557806322459e1814610348578063248a9ca31461035c57806324ea54f41461037e575f5ffd5b806301ffc9a71461029057806306fdde03146102b85780630c7d5cd8146102cd57806310e7b489146102e45780631190016c146102f9575b5f5ffd5b6102a361029e3660046124a6565b610621565b60405190151581526020015b60405180910390f35b6102c0610657565b6040516102af91906124fb565b6102d6600f5481565b6040519081526020016102af565b6102f76102f2366004612521565b6106e3565b005b6102d6603281565b61031461030f36600461253c565b61073a565b6040516102af9291906125b3565b6102f7610330366004612521565b610908565b6102f7610343366004612521565b6109b3565b6102d65f5160206129ba5f395f51905f5281565b6102d661036a3660046125cd565b5f9081526020819052604090206001015490565b6102d65f516020612a1c5f395f51905f5281565b6102d660105481565b6102d66103a93660046125e4565b610b8c565b6102f76103bc36600461260e565b610ca6565b6102f76103cf36600461260e565b610cd0565b6102f7610d08565b6102d66103ea3660046125e4565b610d45565b6102d6600a5481565b6102f7610406366004612521565b610e19565b6102c0610e63565b6102d660085481565b60025460ff166102a3565b6102f7610435366004612521565b610e70565b6102c0610fe9565b6102f7610ff6565b6102c06104583660046125cd565b611031565b6102a361046b36600461260e565b611049565b610478611071565b6040516102af949392919061263c565b6102d65f5160206129da5f395f51905f5281565b6102d65f81565b600b546104b09060ff1681565b60405160ff90911681526020016102af565b6102d660075481565b600e546104de906001600160a01b031681565b6040516001600160a01b0390911681526020016102af565b6104de6105043660046125cd565b611285565b6105116112ad565b6040516102af9392919061271d565b6102f761052e36600461260e565b611558565b6102f7610541366004612521565b61157c565b6102d6610554366004612521565b6115c6565b6102d66105673660046125e4565b61166e565b61031461057a36600461253c565b61173e565b6102d661058d366004612521565b611844565b6102d66105a0366004612521565b611945565b6102f76105b3366004612521565b61196c565b6102f76105c6366004612521565b6119b6565b6104de7f000000000000000000000000000000000000000000000000000000000000000081565b6105fa611b38565b60408051938452602084019290925260ff16908201526060016102af565b6102d660095481565b5f6001600160e01b03198216637965db0b60e01b148061065157506301ffc9a760e01b6001600160e01b03198316145b92915050565b6003805461066490612789565b80601f016020809104026020016040519081016040528092919081815260200182805461069090612789565b80156106db5780601f106106b2576101008083540402835291602001916106db565b820191905f5260205f20905b8154815290600101906020018083116106be57829003601f168201915b505050505081565b6106fa5f5160206129da5f395f51905f5233611049565b61071f5760405162461bcd60e51b8152600401610716906127bb565b60405180910390fd5b6107365f516020612a1c5f395f51905f5282611b57565b5050565b5f606081805b600d5481101561077d5786600d828154811061075e5761075e612800565b905f5260205f20015403610775576001915061077d565b600101610740565b50806107a7575f6040518060600160405280602281526020016129fa602291399250925050610900565b60018614806107b65750600286145b1561082a575f806107c9868801886125e4565b90925090506001600160a01b03821615806107e2575080155b1561080d575f6040518060600160405280602381526020016129976023913994509450505050610900565b600160405180602001604052805f81525094509450505050610900565b600386036108a8575f61083f858701876125cd565b9050603281111561088c575f6040518060400160405280601f81526020017f44656661756c7453747261746567793a20726174696f20746f6f206869676800815250935093505050610900565b600160405180602001604052805f815250935093505050610900565b600586036108eb575f6108bd858701876125cd565b9050805f0361088c575f60405180606001604052806023815260200161299760239139935093505050610900565b505060408051602081019091525f8152600191505b935093915050565b61091f5f5160206129da5f395f51905f5233611049565b61093b5760405162461bcd60e51b8152600401610716906127bb565b6001600160a01b0381166109915760405162461bcd60e51b815260206004820152601a60248201527f4261736553747261746567793a207a65726f20616464726573730000000000006044820152606401610716565b600e80546001600160a01b0319166001600160a01b0392909216919091179055565b6109ca5f5160206129da5f395f51905f5233611049565b6109e65760405162461bcd60e51b8152600401610716906127bb565b6001600160a01b038116610a0c5760405162461bcd60e51b815260040161071690612814565b5f805b600654811015610b0757826001600160a01b031660068281548110610a3657610a36612800565b5f918252602090912001546001600160a01b031603610aff5760068054610a5f9060019061286f565b81548110610a6f57610a6f612800565b5f91825260209091200154600680546001600160a01b039092169183908110610a9a57610a9a612800565b905f5260205f20015f6101000a8154816001600160a01b0302191690836001600160a01b031602179055506006805480610ad657610ad6612882565b5f8281526020902081015f1990810180546001600160a01b031916905501905560019150610b07565b600101610a0f565b5080610b555760405162461bcd60e51b815260206004820152601d60248201527f4261736553747261746567793a206173736574206e6f7420666f756e640000006044820152606401610716565b6040516001600160a01b038316907f37803e2125c48ee96c38ddf04e826daf335b0e1603579040fd275aba6d06b6fc905f90a25050565b5f610ba45f5160206129da5f395f51905f5233611049565b610bc05760405162461bcd60e51b8152600401610716906127bb565b610bc983611be6565b6001600160a01b0383165f9081526012602052604081205490818410610bef5781610bf1565b835b90508015610c9e576001600160a01b0385165f9081526012602052604081208054839290610c2090849061286f565b90915550610c5a90506001600160a01b0386167f000000000000000000000000000000000000000000000000000000000000000083611c88565b846001600160a01b03167f3511a8dedbf75579513356de501b06eae02f88ed43e7b1f9f54dc277da9bcc3a82604051610c9591815260200190565b60405180910390a25b949350505050565b5f82815260208190526040902060010154610cc081611cda565b610cca8383611b57565b50505050565b6001600160a01b0381163314610cf95760405163334bd91960e11b815260040160405180910390fd5b610d038282611ce4565b505050565b610d1f5f5160206129da5f395f51905f5233611049565b610d3b5760405162461bcd60e51b8152600401610716906127bb565b610d43611d4d565b565b5f610d5d5f5160206129da5f395f51905f5233611049565b610d795760405162461bcd60e51b8152600401610716906127bb565b610d81611d9f565b610d89611dc9565b610d9283611be6565b5f8211610ded5760405162461bcd60e51b8152602060048201526024808201527f4261736553747261746567793a206465706f73697420616d6f756e74206973206044820152637a65726f60e01b6064820152608401610716565b8160095f828254610dfe9190612896565b90915550610e0e90508383611ded565b905061065160018055565b610e305f5160206129da5f395f51905f5233611049565b610e4c5760405162461bcd60e51b8152600401610716906127bb565b6107365f516020612a1c5f395f51905f5282611ce4565b6005805461066490612789565b610e875f516020612a1c5f395f51905f5233611049565b610ea35760405162461bcd60e51b8152600401610716906128a9565b610eab611d9f565b610eb481611be6565b6040516370a0823160e01b81523060048201525f906001600160a01b038316906370a0823190602401602060405180830381865afa158015610ef8573d5f5f3e3d5ffd5b505050506040513d601f19601f82011682018060405250810190610f1c91906128ef565b90505f8111610f795760405162461bcd60e51b8152602060048201526024808201527f4261736553747261746567793a206e6f2062616c616e636520746f20776974686044820152636472617760e01b6064820152608401610716565b600e54610f93906001600160a01b03848116911683611c88565b600e54604080518381526001600160a01b039283166020820152918416917f3ab9db27a4cdd8c603a752b62d5fbd93b4b3509fe2596708e9688e42bbac3576910160405180910390a250610fe660018055565b50565b6004805461066490612789565b61100d5f516020612a1c5f395f51905f5233611049565b6110295760405162461bcd60e51b8152600401610716906128a9565b610d43611e67565b600c6020525f90815260409020805461066490612789565b5f918252602082815260408084206001600160a01b0393909316845291905290205460ff1690565b606080606080600360046005600683805461108b90612789565b80601f01602080910402602001604051908101604052809291908181526020018280546110b790612789565b80156111025780601f106110d957610100808354040283529160200191611102565b820191905f5260205f20905b8154815290600101906020018083116110e557829003601f168201915b5050505050935082805461111590612789565b80601f016020809104026020016040519081016040528092919081815260200182805461114190612789565b801561118c5780601f106111635761010080835404028352916020019161118c565b820191905f5260205f20905b81548152906001019060200180831161116f57829003601f168201915b5050505050925081805461119f90612789565b80601f01602080910402602001604051908101604052809291908181526020018280546111cb90612789565b80156112165780601f106111ed57610100808354040283529160200191611216565b820191905f5260205f20905b8154815290600101906020018083116111f957829003601f168201915b505050505091508080548060200260200160405190810160405280929190818152602001828054801561127057602002820191905f5260205f20905b81546001600160a01b03168152600190910190602001808311611252575b50505050509050935093509350935090919293565b60068181548110611294575f80fd5b5f918252602090912001546001600160a01b0316905081565b6060806060600d8054806020026020016040519081016040528092919081815260200182805480156112fc57602002820191905f5260205f20905b8154815260200190600101908083116112e8575b50505050509250825167ffffffffffffffff81111561131d5761131d612906565b60405190808252806020026020018201604052801561135057816020015b606081526020019060019003908161133b5790505b509150825167ffffffffffffffff81111561136d5761136d612906565b6040519080825280602002602001820160405280156113a057816020015b606081526020019060019003908161138b5790505b5090505f5b835181101561155257600c5f8583815181106113c3576113c3612800565b602002602001015181526020019081526020015f2080546113e390612789565b80601f016020809104026020016040519081016040528092919081815260200182805461140f90612789565b801561145a5780601f106114315761010080835404028352916020019161145a565b820191905f5260205f20905b81548152906001019060200180831161143d57829003601f168201915b505050505083828151811061147157611471612800565b602002602001018190525060115f85838151811061149157611491612800565b602002602001015181526020019081526020015f2080546114b190612789565b80601f01602080910402602001604051908101604052809291908181526020018280546114dd90612789565b80156115285780601f106114ff57610100808354040283529160200191611528565b820191905f5260205f20905b81548152906001019060200180831161150b57829003601f168201915b505050505082828151811061153f5761153f612800565b60209081029190910101526001016113a5565b50909192565b5f8281526020819052604090206001015461157281611cda565b610cca8383611ce4565b6115935f5160206129da5f395f51905f5233611049565b6115af5760405162461bcd60e51b8152600401610716906127bb565b6107365f5160206129ba5f395f51905f5282611ce4565b5f6115de5f5160206129da5f395f51905f5233611049565b6115fa5760405162461bcd60e51b8152600401610716906127bb565b611602611d9f565b6001600160a01b0382166116645760405162461bcd60e51b8152602060048201526024808201527f4261736553747261746567793a20746f20697320746865207a65726f206164646044820152637265737360e01b6064820152608401610716565b5050600180555f90565b5f6116865f5160206129da5f395f51905f5233611049565b6116a25760405162461bcd60e51b8152600401610716906127bb565b6116aa611d9f565b6116b383611be6565b5f82116117105760405162461bcd60e51b815260206004820152602560248201527f4261736553747261746567793a20776974686472617720616d6f756e74206973604482015264207a65726f60d81b6064820152608401610716565b5f61171b8484611ea4565b905080600a5f82825461172e9190612896565b9091555050600180559050610651565b5f60606117585f5160206129ba5f395f51905f5233611049565b6117b05760405162461bcd60e51b8152602060048201526024808201527f4261736553747261746567793a2063616c6c6572206973206e6f7420616e206160448201526319d95b9d60e21b6064820152608401610716565b6117b8611d9f565b6117c0611dc9565b5f5f6117cd87878761073a565b915091508181906117f15760405162461bcd60e51b815260040161071691906124fb565b506117fd8787876120cb565b6040518215158152919550935087907f68e6e743ea58d627efa5de7faa5e162a4551e1ded07ebc7f6b471d987a5f71839060200160405180910390a2505061090060018055565b5f61184e82611be6565b600f546001600160a01b0383165f908152601260205260408120549091606491611878919061291a565b6118829190612931565b6001600160a01b0384165f90815260126020526040902054601054919250908111156118e2576010546001600160a01b0385165f9081526012602052604081205490916118ce9161286f565b9050818110156118dc578091505b506118e5565b505f5b6001600160a01b0384165f9081526012602052604090205482101561193b576001600160a01b0384165f9081526012602052604081205461192790849061286f565b905081811015611935578091505b5061193e565b505f5b9392505050565b5f61194f82611be6565b6001600160a01b0382165f90815260126020526040902054610651565b6119835f5160206129da5f395f51905f5233611049565b61199f5760405162461bcd60e51b8152600401610716906127bb565b6107365f5160206129ba5f395f51905f5282611b57565b6119cd5f5160206129da5f395f51905f5233611049565b6119e95760405162461bcd60e51b8152600401610716906127bb565b6001600160a01b038116611a0f5760405162461bcd60e51b815260040161071690612814565b5f805b600654811015611a6357826001600160a01b031660068281548110611a3957611a39612800565b5f918252602090912001546001600160a01b031603611a5b5760019150611a63565b600101611a12565b508015611ac05760405162461bcd60e51b815260206004820152602560248201527f4261736553747261746567793a20617373657420616c726561647920737570706044820152641bdc9d195960da1b6064820152608401610716565b600680546001810182555f9182527ff652222313e28459528d920b65115c16c04f3efc82aaedc97be59f3f377c0d3f0180546001600160a01b0319166001600160a01b03851690811790915560405190917f0e3c58ebfb2e7465fbb1c32e6b4f40c3c4f5ca77e8218a386aff8617831260d791a25050565b5f808080611b44612271565b600b54919590945060ff90911692509050565b5f611b628383611049565b611bdf575f838152602081815260408083206001600160a01b03861684529091529020805460ff19166001179055611b973390565b6001600160a01b0316826001600160a01b0316847f2f8788117e7eff1d82e926ec794901d17c78024a50270940304540a733656f0d60405160405180910390a4506001610651565b505f610651565b5f805b600654811015611c3a57826001600160a01b031660068281548110611c1057611c10612800565b5f918252602090912001546001600160a01b031603611c325760019150611c3a565b600101611be9565b50806107365760405162461bcd60e51b815260206004820152601f60248201527f4261736553747261746567793a20756e737570706f72746564206173736574006044820152606401610716565b604080516001600160a01b038416602482015260448082018490528251808303909101815260649091019091526020810180516001600160e01b031663a9059cbb60e01b179052610d039084906122d5565b610fe68133612341565b5f611cef8383611049565b15611bdf575f838152602081815260408083206001600160a01b0386168085529252808320805460ff1916905551339286917ff6391f5c32d9c69d2a47ea670b442974b53935d1edc7fd64eb21e047a839171b9190a4506001610651565b611d5561237a565b6002805460ff191690557f5db9ee0a495bf2e6ff9c91a7834c1ba4fdd244a5e8aa4e537bd38aeae4b073aa335b6040516001600160a01b03909116815260200160405180910390a1565b600260015403611dc257604051633ee5aeb560e01b815260040160405180910390fd5b6002600155565b60025460ff1615610d435760405163d93c066560e01b815260040160405180910390fd5b5f611df783611be6565b6001600160a01b0383165f9081526012602052604081208054849290611e1e908490612896565b90915550506040518281526001600160a01b038416907fddc69a07b5bfcee2b68a56a2e28e712c83e6b1372b06f80aaab04dbaca91020f9060200160405180910390a250919050565b611e6f611dc9565b6002805460ff191660011790557f62e78cea01bee320cd4e420270b5ea74000d11b0c9f74754ebdbfc544b05a258611d823390565b5f611eae83611be6565b6001600160a01b0383165f90815260126020526040902054821115611f235760405162461bcd60e51b815260206004820152602560248201527f44656661756c7453747261746567793a20696e73756666696369656e742062616044820152646c616e636560d81b6064820152608401610716565b6001600160a01b0383165f90815260126020526040902054601054811115611f71576010546001600160a01b0385165f90815260126020526040902054611f6a919061286f565b9050611f74565b505f5b600f546001600160a01b0385165f908152601260205260408120549091606491611f9e919061291a565b611fa89190612931565b6001600160a01b0386165f90815260126020526040902054909150811015612001576001600160a01b0385165f90815260126020526040812054611fed90839061286f565b905082811015611ffb578092505b50612005565b5f91505b5f8285116120135784612015565b825b905080156120c2576001600160a01b0386165f908152601260205260408120805483929061204490849061286f565b9091555061207e90506001600160a01b0387167f000000000000000000000000000000000000000000000000000000000000000083611c88565b856001600160a01b03167f94b055d454fefc95ba06924afbaac83912b1575d621a7d32a4675303246bb7d0826040516120b991815260200190565b60405180910390a25b95945050505050565b5f606060018503612125575f806120e4858701876125e4565b915091505f6120f38383611ded565b905060018160405160200161210a91815260200190565b60405160208183030381529060405294509450505050610900565b6002850361214a575f8061213b858701876125e4565b915091505f6120f38383611ea4565b60038503612174575f61215f848601866125cd565b905061216a8161239d565b9250925050610900565b60058503612194575f612189848601866125cd565b905061216a81612461565b60048503612240575f5f306001600160a01b031686866040516121b8929190612950565b5f604051808303815f865af19150503d805f81146121f1576040519150601f19603f3d011682016040523d82523d5f602084013e6121f6565b606091505b50915091507f045e1f92975177ef33ebd496c8cdbdb7fcc77fad258fa9d45eb53249f5cf801f86868460405161222e9392919061295f565b60405180910390a19092509050610900565b505060408051808201909152600e81526d2ab735b737bbb71030b1ba34b7b760911b60208201525f90935093915050565b5f80805b6006548110156122cf575f6006828154811061229357612293612800565b5f9182526020808320909101546001600160a01b031680835260129091526040909120549091506122c49084612896565b925050600101612275565b50919050565b5f5f60205f8451602086015f885af1806122f4576040513d5f823e3d81fd5b50505f513d9150811561230b578060011415612318565b6001600160a01b0384163b155b15610cca57604051635274afe760e01b81526001600160a01b0385166004820152602401610716565b61234b8282611049565b6107365760405163e2517d3f60e01b81526001600160a01b038216600482015260248101839052604401610716565b60025460ff16610d4357604051638dfc202b60e01b815260040160405180910390fd5b5f606060328311156123f15760405162461bcd60e51b815260206004820152601f60248201527f44656661756c7453747261746567793a20726174696f20746f6f2068696768006044820152606401610716565b600f80549084905560408051828152602081018690527f5fc202872c5a7cd0b4e57b020c5f9b016b85ab3ca29cfb204fe46a9e3f391a8791015b60405180910390a160018460405160200161244891815260200190565b6040516020818303038152906040529250925050915091565b601080549082905560408051828152602081018490525f9260609290917f7e5f5916635de81a43a0f6975026ef7e0889548562871f73f2125b5c5211716b910161242b565b5f602082840312156124b6575f5ffd5b81356001600160e01b03198116811461193e575f5ffd5b5f81518084528060208401602086015e5f602082860101526020601f19601f83011685010191505092915050565b602081525f61193e60208301846124cd565b6001600160a01b0381168114610fe6575f5ffd5b5f60208284031215612531575f5ffd5b813561193e8161250d565b5f5f5f6040848603121561254e575f5ffd5b83359250602084013567ffffffffffffffff81111561256b575f5ffd5b8401601f8101861361257b575f5ffd5b803567ffffffffffffffff811115612591575f5ffd5b8660208284010111156125a2575f5ffd5b939660209190910195509293505050565b8215158152604060208201525f610c9e60408301846124cd565b5f602082840312156125dd575f5ffd5b5035919050565b5f5f604083850312156125f5575f5ffd5b82356126008161250d565b946020939093013593505050565b5f5f6040838503121561261f575f5ffd5b8235915060208301356126318161250d565b809150509250929050565b608081525f61264e60808301876124cd565b828103602084015261266081876124cd565b9050828103604084015261267481866124cd565b8381036060850152845180825260208087019350909101905f5b818110156126b55783516001600160a01b031683526020938401939092019160010161268e565b509098975050505050505050565b5f82825180855260208501945060208160051b830101602085015f5b8381101561271157601f198584030188526126fb8383516124cd565b60209889019890935091909101906001016126df565b50909695505050505050565b606080825284519082018190525f9060208601906080840190835b81811015612756578351835260209384019390920191600101612738565b5050838103602085015261276a81876126c3565b915050828103604084015261277f81856126c3565b9695505050505050565b600181811c9082168061279d57607f821691505b6020821081036122cf57634e487b7160e01b5f52602260045260245ffd5b60208082526025908201527f4261736553747261746567793a2063616c6c6572206973206e6f7420746865206040820152641d985d5b1d60da1b606082015260800190565b634e487b7160e01b5f52603260045260245ffd5b60208082526027908201527f4261736553747261746567793a20617373657420697320746865207a65726f206040820152666164647265737360c81b606082015260800190565b634e487b7160e01b5f52601160045260245ffd5b818103818111156106515761065161285b565b634e487b7160e01b5f52603160045260245ffd5b808201808211156106515761065161285b565b60208082526026908201527f4261736553747261746567793a2063616c6c6572206973206e6f74206120677560408201526530b93234b0b760d11b606082015260800190565b5f602082840312156128ff575f5ffd5b5051919050565b634e487b7160e01b5f52604160045260245ffd5b80820281158282048414176106515761065161285b565b5f8261294b57634e487b7160e01b5f52601260045260245ffd5b500490565b818382375f9101908152919050565b60408152826040820152828460608301375f60608483018101919091529115156020820152601f909201601f19169091010191905056fe44656661756c7453747261746567793a20696e76616c696420706172616d6574657273cab5a0bfe0b79d2c4b1c2e02599fa044d115b7511f9659307cb427695096770931e0210044b4f6757ce6aa31f9c6e8d4896d24a755014887391a926c5224d95944656661756c7453747261746567793a20696e76616c696420616374696f6e20494455435dd261a4b9b3364963f7738a7a662ad9c84396d64be3365284bb7f0a5041a26469706673582212209c3c5134448e9288ad2dd598fa71bae4eb4132c9edde75fadccabd9a6d1cf38e64736f6c634300081b00335769746864726177206173736574732066726f6d2074686520737472617465677953657420746865207265736572766520726174696f20666f72207769746864726177616c73426173696320737472617465677920666f722073746f72696e67206173736574732077697468206167656e742d63616c6c61626c652066756e6374696f6e73","linkReferences":{}},"methodIdentifiers":{"AGENT_ROLE()":"22459e18","DEFAULT_ADMIN_ROLE()":"a217fddf","GUARDIAN_ROLE()":"24ea54f4","MAX_RESERVE_RATIO()":"1190016c","VAULT_ROLE()":"98c4f1ac","actionNames(uint256)":"8b744602","addSupportedAsset(address)":"fac09e87","claimRewards(address)":"ef5cfb8c","deposit(address,uint256)":"47e7ef24","description()":"7284e416","emergencyRecipient()":"be9ee11f","emergencyWithdraw(address)":"6ff1c9bc","executeStrategy(uint256,bytes)":"f58f4100","getAvailableActions()":"c6e5554a","getBalance(address)":"f8b2cb4f","getPerformanceMetrics()":"ff083a97","getRoleAdmin(bytes32)":"248a9ca3","getStrategyInfo()":"9613092d","getWithdrawableAmount(address)":"f6777175","grantAgentRole(address)":"f9757313","grantGuardianRole(address)":"10e7b489","grantRole(bytes32,address)":"2f2ff15d","hasRole(bytes32,address)":"91d14854","historicalReturns()":"5c40c7e6","lastRebalanceTimestamp()":"b83d8157","minLiquidity()":"252cf2d2","name()":"06fdde03","pause()":"8456cb59","paused()":"5c975abb","provideEmergencyLiquidity(address,uint256)":"2ce198ea","removeSupportedAsset(address)":"1c46bc6f","renounceRole(bytes32,address)":"36568abe","reserveRatio()":"0c7d5cd8","revokeAgentRole(address)":"e4304313","revokeGuardianRole(address)":"4b4b5389","revokeRole(bytes32,address)":"d547741f","riskLevel()":"a62b33be","setEmergencyRecipient(address)":"1b035932","supportedAssets(uint256)":"c68dbb37","supportsInterface(bytes4)":"01ffc9a7","totalDeposited()":"ff50abdc","totalWithdrawn()":"4b319713","unpause()":"3f4ba83a","validateAction(uint256,bytes)":"1a8a2b68","vault()":"fbfa77cf","version()":"54fd4d50","withdraw(address,uint256)":"f3fef3a3"},"id":46}