{"abi":[{"type":"constructor","inputs":[{"name":"_vault","type":"address","internalType":"address"},{"name":"_supportedAssets","type":"address[]","internalType":"address[]"}],"stateMutability":"nonpayable"},{"type":"function","name":"AGENT_ROLE","inputs":[],"outputs":[{"name":"","type":"bytes32","internalType":"bytes32"}],"stateMutability":"view"},{"type":"function","name":"DEFAULT_ADMIN_ROLE","inputs":[],"outputs":[{"name":"","type":"bytes32","internalType":"bytes32"}],"stateMutability":"view"},{"type":"function","name":"GUARDIAN_ROLE","inputs":[],"outputs":[{"name":"","type":"bytes32","internalType":"bytes32"}],"stateMutability":"view"},{"type":"function","name":"MAX_RESERVE_RATIO","inputs":[],"outputs":[{"name":"","type":"uint256","internalType":"uint256"}],"stateMutability":"view"},{"type":"function","name":"VAULT_ROLE","inputs":[],"outputs":[{"name":"","type":"bytes32","internalType":"bytes32"}],"stateMutability":"view"},{"type":"function","name":"actionNames","inputs":[{"name":"","type":"uint256","internalType":"uint256"}],"outputs":[{"name":"","type":"string","internalType":"string"}],"stateMutability":"view"},{"type":"function","name":"addSupportedAsset","inputs":[{"name":"asset","type":"address","internalType":"address"}],"outputs":[],"stateMutability":"nonpayable"},{"type":"function","name":"claimRewards","inputs":[{"name":"to","type":"address","internalType":"address"}],"outputs":[{"name":"","type":"uint256","internalType":"uint256"}],"stateMutability":"nonpayable"},{"type":"function","name":"deposit","inputs":[{"name":"asset","type":"address","internalType":"address"},{"name":"amount","type":"uint256","internalType":"uint256"}],"outputs":[{"name":"","type":"uint256","internalType":"uint256"}],"stateMutability":"nonpayable"},{"type":"function","name":"description","inputs":[],"outputs":[{"name":"","type":"string","internalType":"string"}],"stateMutability":"view"},{"type":"function","name":"emergencyRecipient","inputs":[],"outputs":[{"name":"","type":"address","internalType":"address"}],"stateMutability":"view"},{"type":"function","name":"emergencyWithdraw","inputs":[{"name":"asset","type":"address","internalType":"address"}],"outputs":[],"stateMutability":"nonpayable"},{"type":"function","name":"executeStrategy","inputs":[{"name":"actionId","type":"uint256","internalType":"uint256"},{"name":"data","type":"bytes","internalType":"bytes"}],"outputs":[{"name":"success","type":"bool","internalType":"bool"},{"name":"result","type":"bytes","internalType":"bytes"}],"stateMutability":"nonpayable"},{"type":"function","name":"getAvailableActions","inputs":[],"outputs":[{"name":"actionIds","type":"uint256[]","internalType":"uint256[]"},{"name":"names","type":"string[]","internalType":"string[]"},{"name":"descriptions","type":"string[]","internalType":"string[]"}],"stateMutability":"view"},{"type":"function","name":"getBalance","inputs":[{"name":"asset","type":"address","internalType":"address"}],"outputs":[{"name":"","type":"uint256","internalType":"uint256"}],"stateMutability":"view"},{"type":"function","name":"getPerformanceMetrics","inputs":[],"outputs":[{"name":"apy","type":"uint256","internalType":"uint256"},{"name":"tvl","type":"uint256","internalType":"uint256"},{"name":"risk","type":"uint8","internalType":"uint8"}],"stateMutability":"view"},{"type":"function","name":"getRoleAdmin","inputs":[{"name":"role","type":"bytes32","internalType":"bytes32"}],"outputs":[{"name":"","type":"bytes32","internalType":"bytes32"}],"stateMutability":"view"},{"type":"function","name":"getStrategyInfo","inputs":[],"outputs":[{"name":"","type":"string","internalType":"string"},{"name":"","type":"string","internalType":"string"},{"name":"","type":"string","internalType":"string"},{"name":"","type":"address[]","internalType":"address[]"}],"stateMutability":"view"},{"type":"function","name":"getWithdrawableAmount","inputs":[{"name":"asset","type":"address","internalType":"address"}],"outputs":[{"name":"","type":"uint256","internalType":"uint256"}],"stateMutability":"view"},{"type":"function","name":"grantAgentRole","inputs":[{"name":"agent","type":"address","internalType":"address"}],"outputs":[],"stateMutability":"nonpayable"},{"type":"function","name":"grantGuardianRole","inputs":[{"name":"guardian","type":"address","internalType":"address"}],"outputs":[],"stateMutability":"nonpayable"},{"type":"function","name":"grantRole","inputs":[{"name":"role","type":"bytes32","internalType":"bytes32"},{"name":"account","type":"address","internalType":"address"}],"outputs":[],"stateMutability":"nonpayable"},{"type":"function","name":"hasRole","inputs":[{"name":"role","type":"bytes32","internalType":"bytes32"},{"name":"account","type":"address","internalType":"address"}],"outputs":[{"name":"","type":"bool","internalType":"bool"}],"stateMutability":"view"},{"type":"function","name":"historicalReturns","inputs":[],"outputs":[{"name":"","type":"uint256","internalType":"uint256"}],"stateMutability":"view"},{"type":"function","name":"initialSetup","inputs":[{"name":"agent","type":"address","internalType":"address"},{"name":"guardian","type":"address","internalType":"address"}],"outputs":[],"stateMutability":"nonpayable"},{"type":"function","name":"lastRebalanceTimestamp","inputs":[],"outputs":[{"name":"","type":"uint256","internalType":"uint256"}],"stateMutability":"view"},{"type":"function","name":"minLiquidity","inputs":[],"outputs":[{"name":"","type":"uint256","internalType":"uint256"}],"stateMutability":"view"},{"type":"function","name":"name","inputs":[],"outputs":[{"name":"","type":"string","internalType":"string"}],"stateMutability":"view"},{"type":"function","name":"pause","inputs":[],"outputs":[],"stateMutability":"nonpayable"},{"type":"function","name":"paused","inputs":[],"outputs":[{"name":"","type":"bool","internalType":"bool"}],"stateMutability":"view"},{"type":"function","name":"provideEmergencyLiquidity","inputs":[{"name":"asset","type":"address","internalType":"address"},{"name":"amount","type":"uint256","internalType":"uint256"}],"outputs":[{"name":"","type":"uint256","internalType":"uint256"}],"stateMutability":"nonpayable"},{"type":"function","name":"removeSupportedAsset","inputs":[{"name":"asset","type":"address","internalType":"address"}],"outputs":[],"stateMutability":"nonpayable"},{"type":"function","name":"renounceRole","inputs":[{"name":"role","type":"bytes32","internalType":"bytes32"},{"name":"callerConfirmation","type":"address","internalType":"address"}],"outputs":[],"stateMutability":"nonpayable"},{"type":"function","name":"reserveRatio","inputs":[],"outputs":[{"name":"","type":"uint256","internalType":"uint256"}],"stateMutability":"view"},{"type":"function","name":"revokeAgentRole","inputs":[{"name":"agent","type":"address","internalType":"address"}],"outputs":[],"stateMutability":"nonpayable"},{"type":"function","name":"revokeGuardianRole","inputs":[{"name":"guardian","type":"address","internalType":"address"}],"outputs":[],"stateMutability":"nonpayable"},{"type":"function","name":"revokeRole","inputs":[{"name":"role","type":"bytes32","internalType":"bytes32"},{"name":"account","type":"address","internalType":"address"}],"outputs":[],"stateMutability":"nonpayable"},{"type":"function","name":"riskLevel","inputs":[],"outputs":[{"name":"","type":"uint8","internalType":"uint8"}],"stateMutability":"view"},{"type":"function","name":"setEmergencyRecipient","inputs":[{"name":"_emergencyRecipient","type":"address","internalType":"address"}],"outputs":[],"stateMutability":"nonpayable"},{"type":"function","name":"supportedAssets","inputs":[{"name":"","type":"uint256","internalType":"uint256"}],"outputs":[{"name":"","type":"address","internalType":"address"}],"stateMutability":"view"},{"type":"function","name":"supportsInterface","inputs":[{"name":"interfaceId","type":"bytes4","internalType":"bytes4"}],"outputs":[{"name":"","type":"bool","internalType":"bool"}],"stateMutability":"view"},{"type":"function","name":"totalDeposited","inputs":[],"outputs":[{"name":"","type":"uint256","internalType":"uint256"}],"stateMutability":"view"},{"type":"function","name":"totalWithdrawn","inputs":[],"outputs":[{"name":"","type":"uint256","internalType":"uint256"}],"stateMutability":"view"},{"type":"function","name":"unpause","inputs":[],"outputs":[],"stateMutability":"nonpayable"},{"type":"function","name":"validateAction","inputs":[{"name":"actionId","type":"uint256","internalType":"uint256"},{"name":"data","type":"bytes","internalType":"bytes"}],"outputs":[{"name":"isValid","type":"bool","internalType":"bool"},{"name":"reason","type":"string","internalType":"string"}],"stateMutability":"view"},{"type":"function","name":"vault","inputs":[],"outputs":[{"name":"","type":"address","internalType":"address"}],"stateMutability":"view"},{"type":"function","name":"version","inputs":[],"outputs":[{"name":"","type":"string","internalType":"string"}],"stateMutability":"view"},{"type":"function","name":"withdraw","inputs":[{"name":"asset","type":"address","internalType":"address"},{"name":"amount","type":"uint256","internalType":"uint256"}],"outputs":[{"name":"","type":"uint256","internalType":"uint256"}],"stateMutability":"nonpayable"},{"type":"event","name":"AssetAdded","inputs":[{"name":"asset","type":"address","indexed":true,"internalType":"address"}],"anonymous":false},{"type":"event","name":"AssetDeposited","inputs":[{"name":"asset","type":"address","indexed":true,"internalType":"address"},{"name":"amount","type":"uint256","indexed":false,"internalType":"uint256"}],"anonymous":false},{"type":"event","name":"AssetEmergencyWithdrawal","inputs":[{"name":"asset","type":"address","indexed":true,"internalType":"address"},{"name":"amount","type":"uint256","indexed":false,"internalType":"uint256"},{"name":"recipient","type":"address","indexed":true,"internalType":"address"}],"anonymous":false},{"type":"event","name":"AssetRemoved","inputs":[{"name":"asset","type":"address","indexed":true,"internalType":"address"}],"anonymous":false},{"type":"event","name":"AssetWithdrawn","inputs":[{"name":"asset","type":"address","indexed":true,"internalType":"address"},{"name":"amount","type":"uint256","indexed":false,"internalType":"uint256"}],"anonymous":false},{"type":"event","name":"CustomFunctionExecuted","inputs":[{"name":"data","type":"bytes","indexed":false,"internalType":"bytes"},{"name":"success","type":"bool","indexed":false,"internalType":"bool"}],"anonymous":false},{"type":"event","name":"EmergencyLiquidityProvided","inputs":[{"name":"asset","type":"address","indexed":true,"internalType":"address"},{"name":"amount","type":"uint256","indexed":false,"internalType":"uint256"}],"anonymous":false},{"type":"event","name":"EmergencyWithdrawal","inputs":[{"name":"asset","type":"address","indexed":true,"internalType":"address"},{"name":"amount","type":"uint256","indexed":false,"internalType":"uint256"},{"name":"recipient","type":"address","indexed":false,"internalType":"address"}],"anonymous":false},{"type":"event","name":"InitialSetupComplete","inputs":[{"name":"agent","type":"address","indexed":false,"internalType":"address"},{"name":"guardian","type":"address","indexed":false,"internalType":"address"}],"anonymous":false},{"type":"event","name":"MinLiquidityUpdated","inputs":[{"name":"oldValue","type":"uint256","indexed":false,"internalType":"uint256"},{"name":"newValue","type":"uint256","indexed":false,"internalType":"uint256"}],"anonymous":false},{"type":"event","name":"Paused","inputs":[{"name":"account","type":"address","indexed":false,"internalType":"address"}],"anonymous":false},{"type":"event","name":"RebalancePerformed","inputs":[{"name":"timestamp","type":"uint256","indexed":false,"internalType":"uint256"}],"anonymous":false},{"type":"event","name":"ReserveRatioUpdated","inputs":[{"name":"oldRatio","type":"uint256","indexed":false,"internalType":"uint256"},{"name":"newRatio","type":"uint256","indexed":false,"internalType":"uint256"}],"anonymous":false},{"type":"event","name":"RoleAdminChanged","inputs":[{"name":"role","type":"bytes32","indexed":true,"internalType":"bytes32"},{"name":"previousAdminRole","type":"bytes32","indexed":true,"internalType":"bytes32"},{"name":"newAdminRole","type":"bytes32","indexed":true,"internalType":"bytes32"}],"anonymous":false},{"type":"event","name":"RoleGranted","inputs":[{"name":"role","type":"bytes32","indexed":true,"internalType":"bytes32"},{"name":"account","type":"address","indexed":true,"internalType":"address"},{"name":"sender","type":"address","indexed":true,"internalType":"address"}],"anonymous":false},{"type":"event","name":"RoleRevoked","inputs":[{"name":"role","type":"bytes32","indexed":true,"internalType":"bytes32"},{"name":"account","type":"address","indexed":true,"internalType":"address"},{"name":"sender","type":"address","indexed":true,"internalType":"address"}],"anonymous":false},{"type":"event","name":"StrategyExecuted","inputs":[{"name":"actionId","type":"uint256","indexed":true,"internalType":"uint256"},{"name":"success","type":"bool","indexed":false,"internalType":"bool"}],"anonymous":false},{"type":"event","name":"Unpaused","inputs":[{"name":"account","type":"address","indexed":false,"internalType":"address"}],"anonymous":false},{"type":"error","name":"AccessControlBadConfirmation","inputs":[]},{"type":"error","name":"AccessControlUnauthorizedAccount","inputs":[{"name":"account","type":"address","internalType":"address"},{"name":"neededRole","type":"bytes32","internalType":"bytes32"}]},{"type":"error","name":"EnforcedPause","inputs":[]},{"type":"error","name":"ExpectedPause","inputs":[]},{"type":"error","name":"ReentrancyGuardReentrantCall","inputs":[]},{"type":"error","name":"SafeERC20FailedOperation","inputs":[{"name":"token","type":"address","internalType":"address"}]}],"bytecode":{"object":"0x60a06040526014600f5568056bc75e2d63100000601055348015610021575f5ffd5b50604051613bf7380380613bf783398101604081905261004091610863565b816040518060400160405280601081526020016f44656661756c7420537472617465677960801b8152506040518060600160405280603f8152602001613bb8603f91396040805180820190915260058152640312e302e360dc1b602082015260018080556002805460ff1916905585906001600160a01b03861661011b5760405162461bcd60e51b815260206004820152602760248201527f4261736553747261746567793a207661756c7420697320746865207a65726f206044820152666164647265737360c81b60648201526084015b60405180910390fd5b60018160ff1610158015610133575060058160ff1611155b61018d5760405162461bcd60e51b815260206004820152602560248201527f4261736553747261746567793a207269736b206c6576656c206f7574206f662060448201526472616e676560d81b6064820152608401610112565b6001600160a01b03861660805260036101a686826109c5565b5060046101b385826109c5565b5060056101c084826109c5565b5081516101d4906006906020850190610784565b50600b805460ff191660ff83161790556101ee5f876106db565b506102197f31e0210044b4f6757ce6aa31f9c6e8d4896d24a755014887391a926c5224d959876106db565b5050600e8054426007556001600160a81b0319166001600160a01b0390961695909517909455505f925050505b81518110156102dd575f6001600160a01b031682828151811061026b5761026b610a7f565b60200260200101516001600160a01b0316036102d55760405162461bcd60e51b815260206004820152602360248201527f44656661756c7453747261746567793a207a65726f206173736574206164647260448201526265737360e81b6064820152608401610112565b600101610246565b506040518060a00160405280600181526020016002815260200160038152602001600481526020016005815250600d90600561031a9291906107e7565b5060408051808201909152600781526611195c1bdcda5d60ca1b60208083019190915260015f52600c90527fd421a5181c571bba3f01190c922c3b2a896fc1d84e86c9f17ac10e67ebef8b5c9061037190826109c5565b50604080518082019091526008815267576974686472617760c01b60208083019190915260025f52600c90527f5d6016397a73f5e079297ac5a36fef17b4d9c3831618e63ab105738020ddd720906103c990826109c5565b50604080518082019091526011815270536574205265736572766520526174696f60781b60208083019190915260035f52600c90527fc0da782485e77ae272268ae0a3ff44c1552ecb60b3743924de17a815e0a3cfd79061042a90826109c5565b5060408051808201909152600f81526e21bab9ba37b690233ab731ba34b7b760891b60208083019190915260045f52600c90527f5b84bb9e0f5aa9cc45a8bb66468db5d4816d1e75ff86b5e1f1dd8d144dab80979061048990826109c5565b5060408051808201909152601581527f536574204d696e696d756d204c6971756964697479000000000000000000000060208083019190915260055f52600c90527f2cd9ebf6ff19cdd7ffcc447d7c7d47b5991f5c7392a04512134e765802361fa6906104f690826109c5565b506040805180820190915260208082527f4465706f7369742061737365747320696e746f207468652073747261746567798183015260015f52601190527f17bc176d2408558f6e4111feebc3cab4e16b63e967be91cde721f4c8a488b5529061055f90826109c5565b50604051806060016040528060218152602001613b726021913960025f5260116020527f08037d7b151cc412d25674a4e66b334d9ae9d2e5517a7feaae5cdb828bf1c628906105ae90826109c5565b50604051806060016040528060258152602001613b936025913960035f5260116020527f9bfbaa59f8e10e7868f8b402de9d605a390c45ddaebd8c9de3c6f31e733c87ff906105fd90826109c5565b5060408051808201909152601e81527f45786563757465206120637573746f6d2066756e6374696f6e2063616c6c000060208083019190915260045f52601190527f251164fe1d8864fe5e86082eae9c288bc2b58695a4d28538dfe86e9e4f1755859061066a90826109c5565b506040805180820190915260208082527f53657420746865206d696e696d756d206c6971756964697479206275666665728183015260055f52601190527fc550213cee30afd5e67ccba7be3d381bbc169034ae08eb3ec9168caca9fe55e7906106d390826109c5565b505050610a93565b5f828152602081815260408083206001600160a01b038516845290915281205460ff1661077b575f838152602081815260408083206001600160a01b03861684529091529020805460ff191660011790556107333390565b6001600160a01b0316826001600160a01b0316847f2f8788117e7eff1d82e926ec794901d17c78024a50270940304540a733656f0d60405160405180910390a450600161077e565b505f5b92915050565b828054828255905f5260205f209081019282156107d7579160200282015b828111156107d757825182546001600160a01b0319166001600160a01b039091161782556020909201916001909101906107a2565b506107e3929150610820565b5090565b828054828255905f5260205f209081019282156107d7579160200282015b828111156107d7578251825591602001919060010190610805565b5b808211156107e3575f8155600101610821565b80516001600160a01b038116811461084a575f5ffd5b919050565b634e487b7160e01b5f52604160045260245ffd5b5f5f60408385031215610874575f5ffd5b61087d83610834565b60208401519092506001600160401b03811115610898575f5ffd5b8301601f810185136108a8575f5ffd5b80516001600160401b038111156108c1576108c161084f565b604051600582901b90603f8201601f191681016001600160401b03811182821017156108ef576108ef61084f565b60405291825260208184018101929081018884111561090c575f5ffd5b6020850194505b838510156109325761092485610834565b815260209485019401610913565b50809450505050509250929050565b600181811c9082168061095557607f821691505b60208210810361097357634e487b7160e01b5f52602260045260245ffd5b50919050565b601f8211156109c057805f5260205f20601f840160051c8101602085101561099e5750805b601f840160051c820191505b818110156109bd575f81556001016109aa565b50505b505050565b81516001600160401b038111156109de576109de61084f565b6109f2816109ec8454610941565b84610979565b6020601f821160018114610a24575f8315610a0d5750848201515b5f19600385901b1c1916600184901b1784556109bd565b5f84815260208120601f198516915b82811015610a535787850151825560209485019460019092019101610a33565b5084821015610a7057868401515f19600387901b60f8161c191681555b50505050600190811b01905550565b634e487b7160e01b5f52603260045260245ffd5b6080516130b2610ac05f395f81816105ee01528181610da60152818161126501526123a101526130b25ff3fe608060405234801561000f575f5ffd5b5060043610610297575f3560e01c80638456cb5911610161578063d547741f116100ca578063f8b2cb4f11610084578063f8b2cb4f146105b0578063f9757313146105c3578063fac09e87146105d6578063fbfa77cf146105e9578063ff083a9714610610578063ff50abdc14610636575f5ffd5b8063d547741f1461053e578063e430431314610551578063ef5cfb8c14610564578063f3fef3a314610577578063f58f41001461058a578063f67771751461059d575f5ffd5b8063a217fddf1161011b578063a217fddf146104ba578063a62b33be146104c1578063b83d8157146104e0578063be9ee11f146104e9578063c68dbb3714610514578063c6e5554a14610527575f5ffd5b80638456cb591461044d5780638b7446021461045557806391d148541461046857806395ee04da1461047b5780639613092d1461048e57806398c4f1ac146104a6575f5ffd5b80632ce198ea116102035780634b4b5389116101bd5780634b4b53891461040357806354fd4d50146104165780635c40c7e61461041e5780635c975abb146104275780636ff1c9bc146104325780637284e41614610445575f5ffd5b80632ce198ea146103a65780632f2ff15d146103b957806336568abe146103cc5780633f4ba83a146103df57806347e7ef24146103e75780634b319713146103fa575f5ffd5b80631b035932116102545780631b0359321461032d5780631c46bc6f1461034057806322459e1814610353578063248a9ca31461036757806324ea54f414610389578063252cf2d21461039d575f5ffd5b806301ffc9a71461029b57806306fdde03146102c35780630c7d5cd8146102d857806310e7b489146102ef5780631190016c146103045780631a8a2b681461030c575b5f5ffd5b6102ae6102a93660046129d7565b61063f565b60405190151581526020015b60405180910390f35b6102cb610675565b6040516102ba9190612a2c565b6102e1600f5481565b6040519081526020016102ba565b6103026102fd366004612a52565b610701565b005b6102e1603281565b61031f61031a366004612a6d565b610758565b6040516102ba929190612ae4565b61030261033b366004612a52565b610a5a565b61030261034e366004612a52565b610b05565b6102e15f516020612f915f395f51905f5281565b6102e1610375366004612afe565b5f9081526020819052604090206001015490565b6102e15f51602061305d5f395f51905f5281565b6102e160105481565b6102e16103b4366004612b15565b610cde565b6103026103c7366004612b3f565b610e17565b6103026103da366004612b3f565b610e41565b610302610e79565b6102e16103f5366004612b15565b610eb6565b6102e1600a5481565b610302610411366004612a52565b610f8a565b6102cb610fd4565b6102e160085481565b60025460ff166102ae565b610302610440366004612a52565b610fe1565b6102cb611167565b610302611174565b6102cb610463366004612afe565b6111af565b6102ae610476366004612b3f565b6111c7565b610302610489366004612b6d565b6111ef565b610496611451565b6040516102ba9493929190612b99565b6102e15f516020612fd35f395f51905f5281565b6102e15f81565b600b546104ce9060ff1681565b60405160ff90911681526020016102ba565b6102e160075481565b600e546104fc906001600160a01b031681565b6040516001600160a01b0390911681526020016102ba565b6104fc610522366004612afe565b611665565b61052f61168d565b6040516102ba93929190612c7a565b61030261054c366004612b3f565b611938565b61030261055f366004612a52565b61195c565b6102e1610572366004612a52565b6119a6565b6102e1610585366004612b15565b611a4e565b61031f610598366004612a6d565b611b1e565b6102e16105ab366004612a52565b611c24565b6102e16105be366004612a52565b611d25565b6103026105d1366004612a52565b611d4c565b6103026105e4366004612a52565b611d96565b6104fc7f000000000000000000000000000000000000000000000000000000000000000081565b610618611f18565b60408051938452602084019290925260ff16908201526060016102ba565b6102e160095481565b5f6001600160e01b03198216637965db0b60e01b148061066f57506301ffc9a760e01b6001600160e01b03198316145b92915050565b6003805461068290612ce6565b80601f01602080910402602001604051908101604052809291908181526020018280546106ae90612ce6565b80156106f95780601f106106d0576101008083540402835291602001916106f9565b820191905f5260205f20905b8154815290600101906020018083116106dc57829003601f168201915b505050505081565b6107185f516020612fd35f395f51905f52336111c7565b61073d5760405162461bcd60e51b815260040161073490612d18565b60405180910390fd5b6107545f51602061305d5f395f51905f5282611f37565b5050565b5f606081805b600d5481101561079b5786600d828154811061077c5761077c612d5d565b905f5260205f20015403610793576001915061079b565b60010161075e565b50806107c5575f604051806060016040528060228152602001613016602291399250925050610a52565b60018614806107d45750600286145b1561095b575f806107e786880188612b15565b90925090506001600160a01b038216610820575f604051806060016040528060238152602001612f6e6023913994509450505050610a52565b805f0361086a575f6040518060400160405280601c81526020017f44656661756c7453747261746567793a207a65726f20616d6f756e740000000081525094509450505050610a52565b5f805b6006548110156108be57836001600160a01b03166006828154811061089457610894612d5d565b5f918252602090912001546001600160a01b0316036108b657600191506108be565b60010161086d565b50806108eb575f604051806060016040528060228152602001612fb1602291399550955050505050610a52565b60028914801561091157506001600160a01b0383165f9081526012602052604090205482115b1561093d575f604051806060016040528060258152602001613038602591399550955050505050610a52565b600160405180602001604052805f8152509550955050505050610a52565b600386036109d9575f61097085870187612afe565b905060328111156109bd575f6040518060400160405280601f81526020017f44656661756c7453747261746567793a20726174696f20746f6f206869676800815250935093505050610a52565b600160405180602001604052805f815250935093505050610a52565b60058603610a1c575f6109ee85870187612afe565b9050805f036109bd575f604051806060016040528060238152602001612ff360239139935093505050610a52565b60048603610a3d57505060408051602081019091525f815260019150610a52565b505060408051602081019091525f8152600191505b935093915050565b610a715f516020612fd35f395f51905f52336111c7565b610a8d5760405162461bcd60e51b815260040161073490612d18565b6001600160a01b038116610ae35760405162461bcd60e51b815260206004820152601a60248201527f4261736553747261746567793a207a65726f20616464726573730000000000006044820152606401610734565b600e80546001600160a01b0319166001600160a01b0392909216919091179055565b610b1c5f516020612fd35f395f51905f52336111c7565b610b385760405162461bcd60e51b815260040161073490612d18565b6001600160a01b038116610b5e5760405162461bcd60e51b815260040161073490612d71565b5f805b600654811015610c5957826001600160a01b031660068281548110610b8857610b88612d5d565b5f918252602090912001546001600160a01b031603610c515760068054610bb190600190612dcc565b81548110610bc157610bc1612d5d565b5f91825260209091200154600680546001600160a01b039092169183908110610bec57610bec612d5d565b905f5260205f20015f6101000a8154816001600160a01b0302191690836001600160a01b031602179055506006805480610c2857610c28612ddf565b5f8281526020902081015f1990810180546001600160a01b031916905501905560019150610c59565b600101610b61565b5080610ca75760405162461bcd60e51b815260206004820152601d60248201527f4261736553747261746567793a206173736574206e6f7420666f756e640000006044820152606401610734565b6040516001600160a01b038316907f37803e2125c48ee96c38ddf04e826daf335b0e1603579040fd275aba6d06b6fc905f90a25050565b5f610cf65f516020612fd35f395f51905f52336111c7565b610d125760405162461bcd60e51b815260040161073490612d18565b610d1b83611fc6565b5f8211610d3a5760405162461bcd60e51b815260040161073490612df3565b6001600160a01b0383165f9081526012602052604081205490818410610d605781610d62565b835b90508015610e0f576001600160a01b0385165f9081526012602052604081208054839290610d91908490612dcc565b90915550610dcb90506001600160a01b0386167f000000000000000000000000000000000000000000000000000000000000000083612068565b846001600160a01b03167f3511a8dedbf75579513356de501b06eae02f88ed43e7b1f9f54dc277da9bcc3a82604051610e0691815260200190565b60405180910390a25b949350505050565b5f82815260208190526040902060010154610e31816120ba565b610e3b8383611f37565b50505050565b6001600160a01b0381163314610e6a5760405163334bd91960e11b815260040160405180910390fd5b610e7482826120c4565b505050565b610e905f516020612fd35f395f51905f52336111c7565b610eac5760405162461bcd60e51b815260040161073490612d18565b610eb461212d565b565b5f610ece5f516020612fd35f395f51905f52336111c7565b610eea5760405162461bcd60e51b815260040161073490612d18565b610ef261217f565b610efa6121a9565b610f0383611fc6565b5f8211610f5e5760405162461bcd60e51b8152602060048201526024808201527f4261736553747261746567793a206465706f73697420616d6f756e74206973206044820152637a65726f60e01b6064820152608401610734565b8160095f828254610f6f9190612e2a565b90915550610f7f905083836121cd565b905061066f60018055565b610fa15f516020612fd35f395f51905f52336111c7565b610fbd5760405162461bcd60e51b815260040161073490612d18565b6107545f51602061305d5f395f51905f52826120c4565b6005805461068290612ce6565b610ff85f51602061305d5f395f51905f52336111c7565b6110145760405162461bcd60e51b815260040161073490612e3d565b61101c61217f565b61102581611fc6565b6040516370a0823160e01b81523060048201525f906001600160a01b038316906370a0823190602401602060405180830381865afa158015611069573d5f5f3e3d5ffd5b505050506040513d601f19601f8201168201806040525081019061108d9190612e83565b90505f81116110ea5760405162461bcd60e51b8152602060048201526024808201527f4261736553747261746567793a206e6f2062616c616e636520746f20776974686044820152636472617760e01b6064820152608401610734565b6001600160a01b038083165f81815260126020526040812055600e54611111921683612068565b600e54604080518381526001600160a01b039283166020820152918416917f3ab9db27a4cdd8c603a752b62d5fbd93b4b3509fe2596708e9688e42bbac3576910160405180910390a25061116460018055565b50565b6004805461068290612ce6565b61118b5f51602061305d5f395f51905f52336111c7565b6111a75760405162461bcd60e51b815260040161073490612e3d565b610eb4612266565b600c6020525f90815260409020805461068290612ce6565b5f918252602082815260408084206001600160a01b0393909316845291905290205460ff1690565b600e54600160a01b900460ff161561125a5760405162461bcd60e51b815260206004820152602860248201527f4261736553747261746567793a20696e697469616c20736574757020616c726560448201526761647920646f6e6560c01b6064820152608401610734565b336001600160a01b037f000000000000000000000000000000000000000000000000000000000000000016148061129657506112965f336111c7565b6113005760405162461bcd60e51b815260206004820152603560248201527f4261736553747261746567793a2063616c6c6572206e6f7420617574686f726960448201527407a656420666f7220696e697469616c20736574757605c1b6064820152608401610734565b6001600160a01b0382166113625760405162461bcd60e51b815260206004820152602360248201527f4261736553747261746567793a206167656e74206973207a65726f206164647260448201526265737360e81b6064820152608401610734565b6001600160a01b0381166113c75760405162461bcd60e51b815260206004820152602660248201527f4261736553747261746567793a20677561726469616e206973207a65726f206160448201526564647265737360d01b6064820152608401610734565b6113de5f516020612f915f395f51905f5283611f37565b506113f65f51602061305d5f395f51905f5282611f37565b50600e805460ff60a01b1916600160a01b179055604080516001600160a01b038481168252831660208201527f9cc63a3d44fd357ab1029cc05a3e15f2dca0300719355211d69010ee5d821a81910160405180910390a15050565b606080606080600360046005600683805461146b90612ce6565b80601f016020809104026020016040519081016040528092919081815260200182805461149790612ce6565b80156114e25780601f106114b9576101008083540402835291602001916114e2565b820191905f5260205f20905b8154815290600101906020018083116114c557829003601f168201915b505050505093508280546114f590612ce6565b80601f016020809104026020016040519081016040528092919081815260200182805461152190612ce6565b801561156c5780601f106115435761010080835404028352916020019161156c565b820191905f5260205f20905b81548152906001019060200180831161154f57829003601f168201915b5050505050925081805461157f90612ce6565b80601f01602080910402602001604051908101604052809291908181526020018280546115ab90612ce6565b80156115f65780601f106115cd576101008083540402835291602001916115f6565b820191905f5260205f20905b8154815290600101906020018083116115d957829003601f168201915b505050505091508080548060200260200160405190810160405280929190818152602001828054801561165057602002820191905f5260205f20905b81546001600160a01b03168152600190910190602001808311611632575b50505050509050935093509350935090919293565b60068181548110611674575f80fd5b5f918252602090912001546001600160a01b0316905081565b6060806060600d8054806020026020016040519081016040528092919081815260200182805480156116dc57602002820191905f5260205f20905b8154815260200190600101908083116116c8575b50505050509250825167ffffffffffffffff8111156116fd576116fd612e9a565b60405190808252806020026020018201604052801561173057816020015b606081526020019060019003908161171b5790505b509150825167ffffffffffffffff81111561174d5761174d612e9a565b60405190808252806020026020018201604052801561178057816020015b606081526020019060019003908161176b5790505b5090505f5b835181101561193257600c5f8583815181106117a3576117a3612d5d565b602002602001015181526020019081526020015f2080546117c390612ce6565b80601f01602080910402602001604051908101604052809291908181526020018280546117ef90612ce6565b801561183a5780601f106118115761010080835404028352916020019161183a565b820191905f5260205f20905b81548152906001019060200180831161181d57829003601f168201915b505050505083828151811061185157611851612d5d565b602002602001018190525060115f85838151811061187157611871612d5d565b602002602001015181526020019081526020015f20805461189190612ce6565b80601f01602080910402602001604051908101604052809291908181526020018280546118bd90612ce6565b80156119085780601f106118df57610100808354040283529160200191611908565b820191905f5260205f20905b8154815290600101906020018083116118eb57829003601f168201915b505050505082828151811061191f5761191f612d5d565b6020908102919091010152600101611785565b50909192565b5f82815260208190526040902060010154611952816120ba565b610e3b83836120c4565b6119735f516020612fd35f395f51905f52336111c7565b61198f5760405162461bcd60e51b815260040161073490612d18565b6107545f516020612f915f395f51905f52826120c4565b5f6119be5f516020612fd35f395f51905f52336111c7565b6119da5760405162461bcd60e51b815260040161073490612d18565b6119e261217f565b6001600160a01b038216611a445760405162461bcd60e51b8152602060048201526024808201527f4261736553747261746567793a20746f20697320746865207a65726f206164646044820152637265737360e01b6064820152608401610734565b5050600180555f90565b5f611a665f516020612fd35f395f51905f52336111c7565b611a825760405162461bcd60e51b815260040161073490612d18565b611a8a61217f565b611a9383611fc6565b5f8211611af05760405162461bcd60e51b815260206004820152602560248201527f4261736553747261746567793a20776974686472617720616d6f756e74206973604482015264207a65726f60d81b6064820152608401610734565b5f611afb84846122a3565b905080600a5f828254611b0e9190612e2a565b909155505060018055905061066f565b5f6060611b385f516020612f915f395f51905f52336111c7565b611b905760405162461bcd60e51b8152602060048201526024808201527f4261736553747261746567793a2063616c6c6572206973206e6f7420616e206160448201526319d95b9d60e21b6064820152608401610734565b611b9861217f565b611ba06121a9565b5f5f611bad878787610758565b91509150818190611bd15760405162461bcd60e51b81526004016107349190612a2c565b50611bdd878787612401565b6040518215158152919550935087907f68e6e743ea58d627efa5de7faa5e162a4551e1ded07ebc7f6b471d987a5f71839060200160405180910390a25050610a5260018055565b5f611c2e82611fc6565b600f546001600160a01b0383165f908152601260205260408120549091606491611c589190612eae565b611c629190612ec5565b6001600160a01b0384165f9081526012602052604090205460105491925090811115611cc2576010546001600160a01b0385165f908152601260205260408120549091611cae91612dcc565b905081811015611cbc578091505b50611cc5565b505f5b6001600160a01b0384165f90815260126020526040902054821015611d1b576001600160a01b0384165f90815260126020526040812054611d07908490612dcc565b905081811015611d15578091505b50611d1e565b505f5b9392505050565b5f611d2f82611fc6565b6001600160a01b0382165f9081526012602052604090205461066f565b611d635f516020612fd35f395f51905f52336111c7565b611d7f5760405162461bcd60e51b815260040161073490612d18565b6107545f516020612f915f395f51905f5282611f37565b611dad5f516020612fd35f395f51905f52336111c7565b611dc95760405162461bcd60e51b815260040161073490612d18565b6001600160a01b038116611def5760405162461bcd60e51b815260040161073490612d71565b5f805b600654811015611e4357826001600160a01b031660068281548110611e1957611e19612d5d565b5f918252602090912001546001600160a01b031603611e3b5760019150611e43565b600101611df2565b508015611ea05760405162461bcd60e51b815260206004820152602560248201527f4261736553747261746567793a20617373657420616c726561647920737570706044820152641bdc9d195960da1b6064820152608401610734565b600680546001810182555f9182527ff652222313e28459528d920b65115c16c04f3efc82aaedc97be59f3f377c0d3f0180546001600160a01b0319166001600160a01b03851690811790915560405190917f0e3c58ebfb2e7465fbb1c32e6b4f40c3c4f5ca77e8218a386aff8617831260d791a25050565b5f808080611f2461274b565b600b54919590945060ff90911692509050565b5f611f4283836111c7565b611fbf575f838152602081815260408083206001600160a01b03861684529091529020805460ff19166001179055611f773390565b6001600160a01b0316826001600160a01b0316847f2f8788117e7eff1d82e926ec794901d17c78024a50270940304540a733656f0d60405160405180910390a450600161066f565b505f61066f565b5f805b60065481101561201a57826001600160a01b031660068281548110611ff057611ff0612d5d565b5f918252602090912001546001600160a01b031603612012576001915061201a565b600101611fc9565b50806107545760405162461bcd60e51b815260206004820152601f60248201527f4261736553747261746567793a20756e737570706f72746564206173736574006044820152606401610734565b604080516001600160a01b038416602482015260448082018490528251808303909101815260649091019091526020810180516001600160e01b031663a9059cbb60e01b179052610e749084906127af565b611164813361281b565b5f6120cf83836111c7565b15611fbf575f838152602081815260408083206001600160a01b0386168085529252808320805460ff1916905551339286917ff6391f5c32d9c69d2a47ea670b442974b53935d1edc7fd64eb21e047a839171b9190a450600161066f565b612135612854565b6002805460ff191690557f5db9ee0a495bf2e6ff9c91a7834c1ba4fdd244a5e8aa4e537bd38aeae4b073aa335b6040516001600160a01b03909116815260200160405180910390a1565b6002600154036121a257604051633ee5aeb560e01b815260040160405180910390fd5b6002600155565b60025460ff1615610eb45760405163d93c066560e01b815260040160405180910390fd5b5f6121d783611fc6565b5f82116121f65760405162461bcd60e51b815260040161073490612df3565b6001600160a01b0383165f908152601260205260408120805484929061221d908490612e2a565b90915550506040518281526001600160a01b038416907fddc69a07b5bfcee2b68a56a2e28e712c83e6b1372b06f80aaab04dbaca91020f9060200160405180910390a250919050565b61226e6121a9565b6002805460ff191660011790557f62e78cea01bee320cd4e420270b5ea74000d11b0c9f74754ebdbfc544b05a2586121623390565b5f6122ad83611fc6565b5f82116122cc5760405162461bcd60e51b815260040161073490612df3565b6001600160a01b0383165f908152601260205260409020548211156123415760405162461bcd60e51b815260206004820152602560248201527f44656661756c7453747261746567793a20696e73756666696369656e742062616044820152646c616e636560d81b6064820152608401610734565b5f61234b84611c24565b90505f81841061235b578161235d565b835b90508015610e0f576001600160a01b0385165f908152601260205260408120805483929061238c908490612dcc565b909155506123c690506001600160a01b0386167f000000000000000000000000000000000000000000000000000000000000000083612068565b846001600160a01b03167f94b055d454fefc95ba06924afbaac83912b1575d621a7d32a4675303246bb7d082604051610e0691815260200190565b5f6060600185036124dd575f8061241a85870187612b15565b90925090506001600160a01b0382166124455760405162461bcd60e51b815260040161073490612ee4565b5f81116124a05760405162461bcd60e51b8152602060048201526024808201527f44656661756c7453747261746567793a207a65726f206465706f73697420616d6044820152631bdd5b9d60e21b6064820152608401610734565b5f6124ab83836121cd565b90506001816040516020016124c291815260200190565b60405160208183030381529060405294509450505050610a52565b60028503612586575f806124f385870187612b15565b90925090506001600160a01b03821661251e5760405162461bcd60e51b815260040161073490612ee4565b5f811161257b5760405162461bcd60e51b815260206004820152602560248201527f44656661756c7453747261746567793a207a65726f20776974686472617720616044820152641b5bdd5b9d60da1b6064820152608401610734565b5f6124ab83836122a3565b600385036125b0575f61259b84860186612afe565b90506125a681612877565b9250925050610a52565b600585036125d0575f6125c584860186612afe565b90506125a68161293b565b6004850361270b576125e25f336111c7565b806125ff57506125ff5f516020612f915f395f51905f52336111c7565b6126675760405162461bcd60e51b815260206004820152603360248201527f44656661756c7453747261746567793a206e6f7420617574686f72697a6564206044820152723337b91031bab9ba37b690333ab731ba34b7b760691b6064820152608401610734565b5f5f306001600160a01b03168686604051612683929190612f27565b5f604051808303815f865af19150503d805f81146126bc576040519150601f19603f3d011682016040523d82523d5f602084013e6126c1565b606091505b50915091507f045e1f92975177ef33ebd496c8cdbdb7fcc77fad258fa9d45eb53249f5cf801f8686846040516126f993929190612f36565b60405180910390a19092509050610a52565b505060408051808201909152601f81527f44656661756c7453747261746567793a20756e6b6e6f776e20616374696f6e0060208201525f90935093915050565b5f80805b6006548110156127a9575f6006828154811061276d5761276d612d5d565b5f9182526020808320909101546001600160a01b0316808352601290915260409091205490915061279e9084612e2a565b92505060010161274f565b50919050565b5f5f60205f8451602086015f885af1806127ce576040513d5f823e3d81fd5b50505f513d915081156127e55780600114156127f2565b6001600160a01b0384163b155b15610e3b57604051635274afe760e01b81526001600160a01b0385166004820152602401610734565b61282582826111c7565b6107545760405163e2517d3f60e01b81526001600160a01b038216600482015260248101839052604401610734565b60025460ff16610eb457604051638dfc202b60e01b815260040160405180910390fd5b5f606060328311156128cb5760405162461bcd60e51b815260206004820152601f60248201527f44656661756c7453747261746567793a20726174696f20746f6f2068696768006044820152606401610734565b600f80549084905560408051828152602081018690527f5fc202872c5a7cd0b4e57b020c5f9b016b85ab3ca29cfb204fe46a9e3f391a8791015b60405180910390a160018460405160200161292291815260200190565b6040516020818303038152906040529250925050915091565b5f60605f83116129995760405162461bcd60e51b815260206004820152602360248201527f44656661756c7453747261746567793a207a65726f206d696e206c697175696460448201526269747960e81b6064820152608401610734565b601080549084905560408051828152602081018690527f7e5f5916635de81a43a0f6975026ef7e0889548562871f73f2125b5c5211716b9101612905565b5f602082840312156129e7575f5ffd5b81356001600160e01b031981168114611d1e575f5ffd5b5f81518084528060208401602086015e5f602082860101526020601f19601f83011685010191505092915050565b602081525f611d1e60208301846129fe565b6001600160a01b0381168114611164575f5ffd5b5f60208284031215612a62575f5ffd5b8135611d1e81612a3e565b5f5f5f60408486031215612a7f575f5ffd5b83359250602084013567ffffffffffffffff811115612a9c575f5ffd5b8401601f81018613612aac575f5ffd5b803567ffffffffffffffff811115612ac2575f5ffd5b866020828401011115612ad3575f5ffd5b939660209190910195509293505050565b8215158152604060208201525f610e0f60408301846129fe565b5f60208284031215612b0e575f5ffd5b5035919050565b5f5f60408385031215612b26575f5ffd5b8235612b3181612a3e565b946020939093013593505050565b5f5f60408385031215612b50575f5ffd5b823591506020830135612b6281612a3e565b809150509250929050565b5f5f60408385031215612b7e575f5ffd5b8235612b8981612a3e565b91506020830135612b6281612a3e565b608081525f612bab60808301876129fe565b8281036020840152612bbd81876129fe565b90508281036040840152612bd181866129fe565b8381036060850152845180825260208087019350909101905f5b81811015612c125783516001600160a01b0316835260209384019390920191600101612beb565b509098975050505050505050565b5f82825180855260208501945060208160051b830101602085015f5b83811015612c6e57601f19858403018852612c588383516129fe565b6020988901989093509190910190600101612c3c565b50909695505050505050565b606080825284519082018190525f9060208601906080840190835b81811015612cb3578351835260209384019390920191600101612c95565b50508381036020850152612cc78187612c20565b9150508281036040840152612cdc8185612c20565b9695505050505050565b600181811c90821680612cfa57607f821691505b6020821081036127a957634e487b7160e01b5f52602260045260245ffd5b60208082526025908201527f4261736553747261746567793a2063616c6c6572206973206e6f7420746865206040820152641d985d5b1d60da1b606082015260800190565b634e487b7160e01b5f52603260045260245ffd5b60208082526027908201527f4261736553747261746567793a20617373657420697320746865207a65726f206040820152666164647265737360c81b606082015260800190565b634e487b7160e01b5f52601160045260245ffd5b8181038181111561066f5761066f612db8565b634e487b7160e01b5f52603160045260245ffd5b6020808252601c908201527f44656661756c7453747261746567793a207a65726f20616d6f756e7400000000604082015260600190565b8082018082111561066f5761066f612db8565b60208082526026908201527f4261736553747261746567793a2063616c6c6572206973206e6f74206120677560408201526530b93234b0b760d11b606082015260800190565b5f60208284031215612e93575f5ffd5b5051919050565b634e487b7160e01b5f52604160045260245ffd5b808202811582820484141761066f5761066f612db8565b5f82612edf57634e487b7160e01b5f52601260045260245ffd5b500490565b60208082526023908201527f44656661756c7453747261746567793a207a65726f206173736574206164647260408201526265737360e81b606082015260800190565b818382375f9101908152919050565b60408152826040820152828460608301375f60608483018101919091529115156020820152601f909201601f19169091010191905056fe44656661756c7453747261746567793a207a65726f2061737365742061646472657373cab5a0bfe0b79d2c4b1c2e02599fa044d115b7511f9659307cb427695096770944656661756c7453747261746567793a20756e737570706f7274656420617373657431e0210044b4f6757ce6aa31f9c6e8d4896d24a755014887391a926c5224d95944656661756c7453747261746567793a207a65726f206d696e206c697175696469747944656661756c7453747261746567793a20696e76616c696420616374696f6e20494444656661756c7453747261746567793a20696e73756666696369656e742062616c616e636555435dd261a4b9b3364963f7738a7a662ad9c84396d64be3365284bb7f0a5041a2646970667358221220da4d12bb9172e2a4ab698413270ee86e82d265bd664425d1af646b3a6553a92164736f6c634300081b00335769746864726177206173736574732066726f6d2074686520737472617465677953657420746865207265736572766520726174696f20666f72207769746864726177616c73426173696320737472617465677920666f722073746f72696e67206173736574732077697468206167656e742d63616c6c61626c652066756e6374696f6e73","linkReferences":{}},"methodIdentifiers":{"AGENT_ROLE()":"22459e18","DEFAULT_ADMIN_ROLE()":"a217fddf","GUARDIAN_ROLE()":"24ea54f4","MAX_RESERVE_RATIO()":"1190016c","VAULT_ROLE()":"98c4f1ac","actionNames(uint256)":"8b744602","addSupportedAsset(address)":"fac09e87","claimRewards(address)":"ef5cfb8c","deposit(address,uint256)":"47e7ef24","description()":"7284e416","emergencyRecipient()":"be9ee11f","emergencyWithdraw(address)":"6ff1c9bc","executeStrategy(uint256,bytes)":"f58f4100","getAvailableActions()":"c6e5554a","getBalance(address)":"f8b2cb4f","getPerformanceMetrics()":"ff083a97","getRoleAdmin(bytes32)":"248a9ca3","getStrategyInfo()":"9613092d","getWithdrawableAmount(address)":"f6777175","grantAgentRole(address)":"f9757313","grantGuardianRole(address)":"10e7b489","grantRole(bytes32,address)":"2f2ff15d","hasRole(bytes32,address)":"91d14854","historicalReturns()":"5c40c7e6","initialSetup(address,address)":"95ee04da","lastRebalanceTimestamp()":"b83d8157","minLiquidity()":"252cf2d2","name()":"06fdde03","pause()":"8456cb59","paused()":"5c975abb","provideEmergencyLiquidity(address,uint256)":"2ce198ea","removeSupportedAsset(address)":"1c46bc6f","renounceRole(bytes32,address)":"36568abe","reserveRatio()":"0c7d5cd8","revokeAgentRole(address)":"e4304313","revokeGuardianRole(address)":"4b4b5389","revokeRole(bytes32,address)":"d547741f","riskLevel()":"a62b33be","setEmergencyRecipient(address)":"1b035932","supportedAssets(uint256)":"c68dbb37","supportsInterface(bytes4)":"01ffc9a7","totalDeposited()":"ff50abdc","totalWithdrawn()":"4b319713","unpause()":"3f4ba83a","validateAction(uint256,bytes)":"1a8a2b68","vault()":"fbfa77cf","version()":"54fd4d50","withdraw(address,uint256)":"f3fef3a3"},"id":39}