{"abi":[{"type":"constructor","inputs":[{"name":"name","type":"string","internalType":"string"},{"name":"symbol","type":"string","internalType":"string"},{"name":"decimals_","type":"uint8","internalType":"uint8"}],"stateMutability":"nonpayable"},{"type":"function","name":"allowance","inputs":[{"name":"owner","type":"address","internalType":"address"},{"name":"spender","type":"address","internalType":"address"}],"outputs":[{"name":"","type":"uint256","internalType":"uint256"}],"stateMutability":"view"},{"type":"function","name":"approve","inputs":[{"name":"spender","type":"address","internalType":"address"},{"name":"value","type":"uint256","internalType":"uint256"}],"outputs":[{"name":"","type":"bool","internalType":"bool"}],"stateMutability":"nonpayable"},{"type":"function","name":"balanceOf","inputs":[{"name":"account","type":"address","internalType":"address"}],"outputs":[{"name":"","type":"uint256","internalType":"uint256"}],"stateMutability":"view"},{"type":"function","name":"burn","inputs":[{"name":"account","type":"address","internalType":"address"},{"name":"amount","type":"uint256","internalType":"uint256"}],"outputs":[],"stateMutability":"nonpayable"},{"type":"function","name":"burnSelf","inputs":[{"name":"amount","type":"uint256","internalType":"uint256"}],"outputs":[],"stateMutability":"nonpayable"},{"type":"function","name":"decimals","inputs":[],"outputs":[{"name":"","type":"uint8","internalType":"uint8"}],"stateMutability":"view"},{"type":"function","name":"mint","inputs":[{"name":"account","type":"address","internalType":"address"},{"name":"amount","type":"uint256","internalType":"uint256"}],"outputs":[],"stateMutability":"nonpayable"},{"type":"function","name":"name","inputs":[],"outputs":[{"name":"","type":"string","internalType":"string"}],"stateMutability":"view"},{"type":"function","name":"owner","inputs":[],"outputs":[{"name":"","type":"address","internalType":"address"}],"stateMutability":"view"},{"type":"function","name":"renounceOwnership","inputs":[],"outputs":[],"stateMutability":"nonpayable"},{"type":"function","name":"symbol","inputs":[],"outputs":[{"name":"","type":"string","internalType":"string"}],"stateMutability":"view"},{"type":"function","name":"totalSupply","inputs":[],"outputs":[{"name":"","type":"uint256","internalType":"uint256"}],"stateMutability":"view"},{"type":"function","name":"transfer","inputs":[{"name":"to","type":"address","internalType":"address"},{"name":"value","type":"uint256","internalType":"uint256"}],"outputs":[{"name":"","type":"bool","internalType":"bool"}],"stateMutability":"nonpayable"},{"type":"function","name":"transferFrom","inputs":[{"name":"from","type":"address","internalType":"address"},{"name":"to","type":"address","internalType":"address"},{"name":"value","type":"uint256","internalType":"uint256"}],"outputs":[{"name":"","type":"bool","internalType":"bool"}],"stateMutability":"nonpayable"},{"type":"function","name":"transferOwnership","inputs":[{"name":"newOwner","type":"address","internalType":"address"}],"outputs":[],"stateMutability":"nonpayable"},{"type":"event","name":"Approval","inputs":[{"name":"owner","type":"address","indexed":true,"internalType":"address"},{"name":"spender","type":"address","indexed":true,"internalType":"address"},{"name":"value","type":"uint256","indexed":false,"internalType":"uint256"}],"anonymous":false},{"type":"event","name":"OwnershipTransferred","inputs":[{"name":"previousOwner","type":"address","indexed":true,"internalType":"address"},{"name":"newOwner","type":"address","indexed":true,"internalType":"address"}],"anonymous":false},{"type":"event","name":"Transfer","inputs":[{"name":"from","type":"address","indexed":true,"internalType":"address"},{"name":"to","type":"address","indexed":true,"internalType":"address"},{"name":"value","type":"uint256","indexed":false,"internalType":"uint256"}],"anonymous":false},{"type":"error","name":"ERC20InsufficientAllowance","inputs":[{"name":"spender","type":"address","internalType":"address"},{"name":"allowance","type":"uint256","internalType":"uint256"},{"name":"needed","type":"uint256","internalType":"uint256"}]},{"type":"error","name":"ERC20InsufficientBalance","inputs":[{"name":"sender","type":"address","internalType":"address"},{"name":"balance","type":"uint256","internalType":"uint256"},{"name":"needed","type":"uint256","internalType":"uint256"}]},{"type":"error","name":"ERC20InvalidApprover","inputs":[{"name":"approver","type":"address","internalType":"address"}]},{"type":"error","name":"ERC20InvalidReceiver","inputs":[{"name":"receiver","type":"address","internalType":"address"}]},{"type":"error","name":"ERC20InvalidSender","inputs":[{"name":"sender","type":"address","internalType":"address"}]},{"type":"error","name":"ERC20InvalidSpender","inputs":[{"name":"spender","type":"address","internalType":"address"}]},{"type":"error","name":"OwnableInvalidOwner","inputs":[{"name":"owner","type":"address","internalType":"address"}]},{"type":"error","name":"OwnableUnauthorizedAccount","inputs":[{"name":"account","type":"address","internalType":"address"}]}],"bytecode":{"object":"0x608060405234801561000f575f5ffd5b50604051610f74380380610f7483398101604081905261002e91610330565b338383600361003d8382610431565b50600461004a8282610431565b5050506001600160a01b03811661007b57604051631e4fbdf760e01b81525f60048201526024015b60405180910390fd5b610084816100e4565b5060ff8116156100945780610097565b60125b6005805460ff60a01b1916600160a01b60ff938416810291909117918290556100dc9233926100ca92900416600a6105e4565b6100d790620f42406105f9565b610135565b505050610623565b600580546001600160a01b038381166001600160a01b0319831681179093556040519116919082907f8be0079c531659141344cd1fd0a4f28419497f9722a3daafe3b4186f6b6457e0905f90a35050565b6001600160a01b03821661015e5760405163ec442f0560e01b81525f6004820152602401610072565b6101695f838361016d565b5050565b6001600160a01b038316610197578060025f82825461018c9190610610565b909155506102079050565b6001600160a01b0383165f90815260208190526040902054818110156101e95760405163391434e360e21b81526001600160a01b03851660048201526024810182905260448101839052606401610072565b6001600160a01b0384165f9081526020819052604090209082900390555b6001600160a01b03821661022357600280548290039055610241565b6001600160a01b0382165f9081526020819052604090208054820190555b816001600160a01b0316836001600160a01b03167fddf252ad1be2c89b69c2b068fc378daa952ba7f163c4a11628f55a4df523b3ef8360405161028691815260200190565b60405180910390a3505050565b634e487b7160e01b5f52604160045260245ffd5b5f82601f8301126102b6575f5ffd5b81516001600160401b038111156102cf576102cf610293565b604051601f8201601f19908116603f011681016001600160401b03811182821017156102fd576102fd610293565b604052818152838201602001851015610314575f5ffd5b8160208501602083015e5f918101602001919091529392505050565b5f5f5f60608486031215610342575f5ffd5b83516001600160401b03811115610357575f5ffd5b610363868287016102a7565b602086015190945090506001600160401b03811115610380575f5ffd5b61038c868287016102a7565b925050604084015160ff811681146103a2575f5ffd5b809150509250925092565b600181811c908216806103c157607f821691505b6020821081036103df57634e487b7160e01b5f52602260045260245ffd5b50919050565b601f82111561042c57805f5260205f20601f840160051c8101602085101561040a5750805b601f840160051c820191505b81811015610429575f8155600101610416565b50505b505050565b81516001600160401b0381111561044a5761044a610293565b61045e8161045884546103ad565b846103e5565b6020601f821160018114610490575f83156104795750848201515b5f19600385901b1c1916600184901b178455610429565b5f84815260208120601f198516915b828110156104bf578785015182556020948501946001909201910161049f565b50848210156104dc57868401515f19600387901b60f8161c191681555b50505050600190811b01905550565b634e487b7160e01b5f52601160045260245ffd5b6001815b600184111561053a5780850481111561051e5761051e6104eb565b600184161561052c57908102905b60019390931c928002610503565b935093915050565b5f82610550575060016105de565b8161055c57505f6105de565b8160018114610572576002811461057c57610598565b60019150506105de565b60ff84111561058d5761058d6104eb565b50506001821b6105de565b5060208310610133831016604e8410600b84101617156105bb575081810a6105de565b6105c75f1984846104ff565b805f19048211156105da576105da6104eb565b0290505b92915050565b5f6105f260ff841683610542565b9392505050565b80820281158282048414176105de576105de6104eb565b808201808211156105de576105de6104eb565b610944806106305f395ff3fe608060405234801561000f575f5ffd5b50600436106100f0575f3560e01c8063715018a611610093578063a9059cbb11610063578063a9059cbb146101f4578063b8b12a1e14610207578063dd62ed3e1461021a578063f2fde38b14610252575f5ffd5b8063715018a6146101b65780638da5cb5b146101be57806395d89b41146101d95780639dc29fac146101e1575f5ffd5b806323b872dd116100ce57806323b872dd14610147578063313ce5671461015a57806340c10f191461017957806370a082311461018e575f5ffd5b806306fdde03146100f4578063095ea7b31461011257806318160ddd14610135575b5f5ffd5b6100fc610265565b604051610109919061079d565b60405180910390f35b6101256101203660046107ed565b6102f5565b6040519015158152602001610109565b6002545b604051908152602001610109565b610125610155366004610815565b61030e565b600554600160a01b900460ff1660405160ff9091168152602001610109565b61018c6101873660046107ed565b610331565b005b61013961019c36600461084f565b6001600160a01b03165f9081526020819052604090205490565b61018c610347565b6005546040516001600160a01b039091168152602001610109565b6100fc61035a565b61018c6101ef3660046107ed565b610369565b6101256102023660046107ed565b61037b565b61018c61021536600461086f565b610388565b610139610228366004610886565b6001600160a01b039182165f90815260016020908152604080832093909416825291909152205490565b61018c61026036600461084f565b610395565b606060038054610274906108b7565b80601f01602080910402602001604051908101604052809291908181526020018280546102a0906108b7565b80156102eb5780601f106102c2576101008083540402835291602001916102eb565b820191905f5260205f20905b8154815290600101906020018083116102ce57829003601f168201915b5050505050905090565b5f336103028185856103d4565b60019150505b92915050565b5f3361031b8582856103e6565b610326858585610462565b506001949350505050565b6103396104bf565b61034382826104ec565b5050565b61034f6104bf565b6103585f610520565b565b606060048054610274906108b7565b6103716104bf565b6103438282610571565b5f33610302818585610462565b6103923382610571565b50565b61039d6104bf565b6001600160a01b0381166103cb57604051631e4fbdf760e01b81525f60048201526024015b60405180910390fd5b61039281610520565b6103e183838360016105a5565b505050565b6001600160a01b038381165f908152600160209081526040808320938616835292905220545f1981101561045c578181101561044e57604051637dc7a0d960e11b81526001600160a01b038416600482015260248101829052604481018390526064016103c2565b61045c84848484035f6105a5565b50505050565b6001600160a01b03831661048b57604051634b637e8f60e11b81525f60048201526024016103c2565b6001600160a01b0382166104b45760405163ec442f0560e01b81525f60048201526024016103c2565b6103e1838383610677565b6005546001600160a01b031633146103585760405163118cdaa760e01b81523360048201526024016103c2565b6001600160a01b0382166105155760405163ec442f0560e01b81525f60048201526024016103c2565b6103435f8383610677565b600580546001600160a01b038381166001600160a01b0319831681179093556040519116919082907f8be0079c531659141344cd1fd0a4f28419497f9722a3daafe3b4186f6b6457e0905f90a35050565b6001600160a01b03821661059a57604051634b637e8f60e11b81525f60048201526024016103c2565b610343825f83610677565b6001600160a01b0384166105ce5760405163e602df0560e01b81525f60048201526024016103c2565b6001600160a01b0383166105f757604051634a1406b160e11b81525f60048201526024016103c2565b6001600160a01b038085165f908152600160209081526040808320938716835292905220829055801561045c57826001600160a01b0316846001600160a01b03167f8c5be1e5ebec7d5bd14f71427d1e84f3dd0314c0f7b2291e5b200ac8c7c3b9258460405161066991815260200190565b60405180910390a350505050565b6001600160a01b0383166106a1578060025f82825461069691906108ef565b909155506107119050565b6001600160a01b0383165f90815260208190526040902054818110156106f35760405163391434e360e21b81526001600160a01b038516600482015260248101829052604481018390526064016103c2565b6001600160a01b0384165f9081526020819052604090209082900390555b6001600160a01b03821661072d5760028054829003905561074b565b6001600160a01b0382165f9081526020819052604090208054820190555b816001600160a01b0316836001600160a01b03167fddf252ad1be2c89b69c2b068fc378daa952ba7f163c4a11628f55a4df523b3ef8360405161079091815260200190565b60405180910390a3505050565b602081525f82518060208401528060208501604085015e5f604082850101526040601f19601f83011684010191505092915050565b80356001600160a01b03811681146107e8575f5ffd5b919050565b5f5f604083850312156107fe575f5ffd5b610807836107d2565b946020939093013593505050565b5f5f5f60608486031215610827575f5ffd5b610830846107d2565b925061083e602085016107d2565b929592945050506040919091013590565b5f6020828403121561085f575f5ffd5b610868826107d2565b9392505050565b5f6020828403121561087f575f5ffd5b5035919050565b5f5f60408385031215610897575f5ffd5b6108a0836107d2565b91506108ae602084016107d2565b90509250929050565b600181811c908216806108cb57607f821691505b6020821081036108e957634e487b7160e01b5f52602260045260245ffd5b50919050565b8082018082111561030857634e487b7160e01b5f52601160045260245ffdfea26469706673582212207a8c63dbd0a56fa3a91ccae03e1c752359ab02f7fcd6493b6c3ebdfa1f1d643e64736f6c634300081b0033","linkReferences":{}},"methodIdentifiers":{"allowance(address,address)":"dd62ed3e","approve(address,uint256)":"095ea7b3","balanceOf(address)":"70a08231","burn(address,uint256)":"9dc29fac","burnSelf(uint256)":"b8b12a1e","decimals()":"313ce567","mint(address,uint256)":"40c10f19","name()":"06fdde03","owner()":"8da5cb5b","renounceOwnership()":"715018a6","symbol()":"95d89b41","totalSupply()":"18160ddd","transfer(address,uint256)":"a9059cbb","transferFrom(address,address,uint256)":"23b872dd","transferOwnership(address)":"f2fde38b"},"id":39}